{
  "contractName": "BnbStaking",
  "abi": [
    {
      "inputs": [
        {
          "internalType": "contract IBEP20",
          "name": "_lp",
          "type": "address"
        },
        {
          "internalType": "contract IBEP20",
          "name": "_rewardToken",
          "type": "address"
        },
        {
          "internalType": "uint256",
          "name": "_rewardPerBlock",
          "type": "uint256"
        },
        {
          "internalType": "uint256",
          "name": "_startBlock",
          "type": "uint256"
        },
        {
          "internalType": "uint256",
          "name": "_bonusEndBlock",
          "type": "uint256"
        },
        {
          "internalType": "address",
          "name": "_adminAddress",
          "type": "address"
        },
        {
          "internalType": "address",
          "name": "_wbnb",
          "type": "address"
        }
      ],
      "stateMutability": "nonpayable",
      "type": "constructor"
    },
    {
      "anonymous": false,
      "inputs": [
        {
          "indexed": true,
          "internalType": "address",
          "name": "user",
          "type": "address"
        },
        {
          "indexed": false,
          "internalType": "uint256",
          "name": "amount",
          "type": "uint256"
        }
      ],
      "name": "Deposit",
      "type": "event"
    },
    {
      "anonymous": false,
      "inputs": [
        {
          "indexed": true,
          "internalType": "address",
          "name": "user",
          "type": "address"
        },
        {
          "indexed": false,
          "internalType": "uint256",
          "name": "amount",
          "type": "uint256"
        }
      ],
      "name": "EmergencyWithdraw",
      "type": "event"
    },
    {
      "anonymous": false,
      "inputs": [
        {
          "indexed": true,
          "internalType": "address",
          "name": "previousOwner",
          "type": "address"
        },
        {
          "indexed": true,
          "internalType": "address",
          "name": "newOwner",
          "type": "address"
        }
      ],
      "name": "OwnershipTransferred",
      "type": "event"
    },
    {
      "anonymous": false,
      "inputs": [
        {
          "indexed": true,
          "internalType": "address",
          "name": "user",
          "type": "address"
        },
        {
          "indexed": false,
          "internalType": "uint256",
          "name": "amount",
          "type": "uint256"
        }
      ],
      "name": "Withdraw",
      "type": "event"
    },
    {
      "inputs": [],
      "name": "WBNB",
      "outputs": [
        {
          "internalType": "address",
          "name": "",
          "type": "address"
        }
      ],
      "stateMutability": "view",
      "type": "function"
    },
    {
      "inputs": [],
      "name": "adminAddress",
      "outputs": [
        {
          "internalType": "address",
          "name": "",
          "type": "address"
        }
      ],
      "stateMutability": "view",
      "type": "function"
    },
    {
      "inputs": [],
      "name": "bonusEndBlock",
      "outputs": [
        {
          "internalType": "uint256",
          "name": "",
          "type": "uint256"
        }
      ],
      "stateMutability": "view",
      "type": "function"
    },
    {
      "inputs": [],
      "name": "limitAmount",
      "outputs": [
        {
          "internalType": "uint256",
          "name": "",
          "type": "uint256"
        }
      ],
      "stateMutability": "view",
      "type": "function"
    },
    {
      "inputs": [],
      "name": "owner",
      "outputs": [
        {
          "internalType": "address",
          "name": "",
          "type": "address"
        }
      ],
      "stateMutability": "view",
      "type": "function"
    },
    {
      "inputs": [
        {
          "internalType": "uint256",
          "name": "",
          "type": "uint256"
        }
      ],
      "name": "poolInfo",
      "outputs": [
        {
          "internalType": "contract IBEP20",
          "name": "lpToken",
          "type": "address"
        },
        {
          "internalType": "uint256",
          "name": "allocPoint",
          "type": "uint256"
        },
        {
          "internalType": "uint256",
          "name": "lastRewardBlock",
          "type": "uint256"
        },
        {
          "internalType": "uint256",
          "name": "accOreoPerShare",
          "type": "uint256"
        }
      ],
      "stateMutability": "view",
      "type": "function"
    },
    {
      "inputs": [],
      "name": "renounceOwnership",
      "outputs": [],
      "stateMutability": "nonpayable",
      "type": "function"
    },
    {
      "inputs": [],
      "name": "rewardPerBlock",
      "outputs": [
        {
          "internalType": "uint256",
          "name": "",
          "type": "uint256"
        }
      ],
      "stateMutability": "view",
      "type": "function"
    },
    {
      "inputs": [],
      "name": "rewardToken",
      "outputs": [
        {
          "internalType": "contract IBEP20",
          "name": "",
          "type": "address"
        }
      ],
      "stateMutability": "view",
      "type": "function"
    },
    {
      "inputs": [],
      "name": "startBlock",
      "outputs": [
        {
          "internalType": "uint256",
          "name": "",
          "type": "uint256"
        }
      ],
      "stateMutability": "view",
      "type": "function"
    },
    {
      "inputs": [],
      "name": "totalAllocPoint",
      "outputs": [
        {
          "internalType": "uint256",
          "name": "",
          "type": "uint256"
        }
      ],
      "stateMutability": "view",
      "type": "function"
    },
    {
      "inputs": [
        {
          "internalType": "address",
          "name": "newOwner",
          "type": "address"
        }
      ],
      "name": "transferOwnership",
      "outputs": [],
      "stateMutability": "nonpayable",
      "type": "function"
    },
    {
      "inputs": [
        {
          "internalType": "address",
          "name": "",
          "type": "address"
        }
      ],
      "name": "userInfo",
      "outputs": [
        {
          "internalType": "uint256",
          "name": "amount",
          "type": "uint256"
        },
        {
          "internalType": "uint256",
          "name": "rewardDebt",
          "type": "uint256"
        },
        {
          "internalType": "bool",
          "name": "inBlackList",
          "type": "bool"
        }
      ],
      "stateMutability": "view",
      "type": "function"
    },
    {
      "stateMutability": "payable",
      "type": "receive"
    },
    {
      "inputs": [
        {
          "internalType": "address",
          "name": "_adminAddress",
          "type": "address"
        }
      ],
      "name": "setAdmin",
      "outputs": [],
      "stateMutability": "nonpayable",
      "type": "function"
    },
    {
      "inputs": [
        {
          "internalType": "address",
          "name": "_blacklistAddress",
          "type": "address"
        }
      ],
      "name": "setBlackList",
      "outputs": [],
      "stateMutability": "nonpayable",
      "type": "function"
    },
    {
      "inputs": [
        {
          "internalType": "address",
          "name": "_blacklistAddress",
          "type": "address"
        }
      ],
      "name": "removeBlackList",
      "outputs": [],
      "stateMutability": "nonpayable",
      "type": "function"
    },
    {
      "inputs": [
        {
          "internalType": "uint256",
          "name": "_amount",
          "type": "uint256"
        }
      ],
      "name": "setLimitAmount",
      "outputs": [],
      "stateMutability": "nonpayable",
      "type": "function"
    },
    {
      "inputs": [
        {
          "internalType": "uint256",
          "name": "_from",
          "type": "uint256"
        },
        {
          "internalType": "uint256",
          "name": "_to",
          "type": "uint256"
        }
      ],
      "name": "getMultiplier",
      "outputs": [
        {
          "internalType": "uint256",
          "name": "",
          "type": "uint256"
        }
      ],
      "stateMutability": "view",
      "type": "function"
    },
    {
      "inputs": [
        {
          "internalType": "address",
          "name": "_user",
          "type": "address"
        }
      ],
      "name": "pendingReward",
      "outputs": [
        {
          "internalType": "uint256",
          "name": "",
          "type": "uint256"
        }
      ],
      "stateMutability": "view",
      "type": "function"
    },
    {
      "inputs": [
        {
          "internalType": "uint256",
          "name": "_pid",
          "type": "uint256"
        }
      ],
      "name": "updatePool",
      "outputs": [],
      "stateMutability": "nonpayable",
      "type": "function"
    },
    {
      "inputs": [],
      "name": "massUpdatePools",
      "outputs": [],
      "stateMutability": "nonpayable",
      "type": "function"
    },
    {
      "inputs": [],
      "name": "deposit",
      "outputs": [],
      "stateMutability": "payable",
      "type": "function"
    },
    {
      "inputs": [
        {
          "internalType": "uint256",
          "name": "_amount",
          "type": "uint256"
        }
      ],
      "name": "withdraw",
      "outputs": [],
      "stateMutability": "nonpayable",
      "type": "function"
    },
    {
      "inputs": [],
      "name": "emergencyWithdraw",
      "outputs": [],
      "stateMutability": "nonpayable",
      "type": "function"
    },
    {
      "inputs": [
        {
          "internalType": "uint256",
          "name": "_amount",
          "type": "uint256"
        }
      ],
      "name": "emergencyRewardWithdraw",
      "outputs": [],
      "stateMutability": "nonpayable",
      "type": "function"
    }
  ],
  "bytecode": "0x60a0604052678ac7230489e8000060065560006007553480156200002257600080fd5b506040516200324b3803806200324b8339818101604052810190620000489190620002f7565b60006200005a620002aa60201b60201c565b9050806000806101000a81548173ffffffffffffffffffffffffffffffffffffffff021916908373ffffffffffffffffffffffffffffffffffffffff1602179055508073ffffffffffffffffffffffffffffffffffffffff16600073ffffffffffffffffffffffffffffffffffffffff167f8be0079c531659141344cd1fd0a4f28419497f9722a3daafe3b4186f6b6457e060405160405180910390a35085600160006101000a81548173ffffffffffffffffffffffffffffffffffffffff021916908373ffffffffffffffffffffffffffffffffffffffff16021790555084600381905550836008819055508260098190555081600260006101000a81548173ffffffffffffffffffffffffffffffffffffffff021916908373ffffffffffffffffffffffffffffffffffffffff1602179055508073ffffffffffffffffffffffffffffffffffffffff1660808173ffffffffffffffffffffffffffffffffffffffff1660601b81525050600460405180608001604052808973ffffffffffffffffffffffffffffffffffffffff1681526020016103e8815260200160085481526020016000815250908060018154018082558091505060019003906000526020600020906004020160009091909190915060008201518160000160006101000a81548173ffffffffffffffffffffffffffffffffffffffff021916908373ffffffffffffffffffffffffffffffffffffffff16021790555060208201518160010155604082015181600201556060820151816003015550506103e8600781905550505050505050506200044f565b600033905090565b600081519050620002c38162000401565b92915050565b600081519050620002da816200041b565b92915050565b600081519050620002f18162000435565b92915050565b600080600080600080600060e0888a031215620003195762000318620003fc565b5b6000620003298a828b01620002c9565b97505060206200033c8a828b01620002c9565b96505060406200034f8a828b01620002e0565b9550506060620003628a828b01620002e0565b9450506080620003758a828b01620002e0565b93505060a0620003888a828b01620002b2565b92505060c06200039b8a828b01620002b2565b91505092959891949750929550565b6000620003b782620003d2565b9050919050565b6000620003cb82620003aa565b9050919050565b600073ffffffffffffffffffffffffffffffffffffffff82169050919050565b6000819050919050565b600080fd5b6200040c81620003aa565b81146200041857600080fd5b50565b6200042681620003be565b81146200043257600080fd5b50565b6200044081620003f2565b81146200044c57600080fd5b50565b60805160601c612dc16200048a60003960008181610171015281816108ca0152818161114b0152818161134b01526113cc0152612dc16000f3fe60806040526004361061016a5760003560e01c806372700241116100d1578063d0e30db01161008a578063f2fde38b11610064578063f2fde38b14610529578063f40f0f5214610552578063f7c618c11461058f578063fc6f9468146105ba576101cd565b8063d0e30db0146104df578063db2e21bc146104e9578063e4997dc514610500576101cd565b806372700241146103cd57806378abafaf146103f65780638ae39cac146104215780638da5cb5b1461044c5780638dbb1e3a146104775780638dd95002146104b4576101cd565b80633279beab116101235780633279beab146102f957806348cd4cb11461032257806351eb05a61461034d578063630b5ba114610376578063704b6c021461038d578063715018a6146103b6576101cd565b80631526fe27146101d257806317caf6f1146102125780631959a0021461023d5780631aed65531461027c5780631f107a45146102a75780632e1a7d4d146102d0576101cd565b366101cd577f000000000000000000000000000000000000000000000000000000000000000073ffffffffffffffffffffffffffffffffffffffff163373ffffffffffffffffffffffffffffffffffffffff16146101cb576101ca6129ed565b5b005b600080fd5b3480156101de57600080fd5b506101f960048036038101906101f491906121f3565b6105e5565b6040516102099493929190612585565b60405180910390f35b34801561021e57600080fd5b50610227610645565b604051610234919061276c565b60405180910390f35b34801561024957600080fd5b50610264600480360381019061025f9190612199565b61064b565b60405161027393929190612787565b60405180910390f35b34801561028857600080fd5b50610291610682565b60405161029e919061276c565b60405180910390f35b3480156102b357600080fd5b506102ce60048036038101906102c991906121f3565b610688565b005b3480156102dc57600080fd5b506102f760048036038101906102f291906121f3565b610727565b005b34801561030557600080fd5b50610320600480360381019061031b91906121f3565b6109ec565b005b34801561032e57600080fd5b50610337610bbd565b604051610344919061276c565b60405180910390f35b34801561035957600080fd5b50610374600480360381019061036f91906121f3565b610bc3565b005b34801561038257600080fd5b5061038b610d72565b005b34801561039957600080fd5b506103b460048036038101906103af9190612199565b610da5565b005b3480156103c257600080fd5b506103cb610e7e565b005b3480156103d957600080fd5b506103f460048036038101906103ef9190612199565b610fd1565b005b34801561040257600080fd5b5061040b6110bf565b604051610418919061276c565b60405180910390f35b34801561042d57600080fd5b506104366110c5565b604051610443919061276c565b60405180910390f35b34801561045857600080fd5b506104616110cb565b60405161046e9190612526565b60405180910390f35b34801561048357600080fd5b5061049e6004803603810190610499919061224d565b6110f4565b6040516104ab919061276c565b60405180910390f35b3480156104c057600080fd5b506104c9611149565b6040516104d69190612526565b60405180910390f35b6104e761116d565b005b3480156104f557600080fd5b506104fe611530565b005b34801561050c57600080fd5b5061052760048036038101906105229190612199565b611657565b005b34801561053557600080fd5b50610550600480360381019061054b9190612199565b611745565b005b34801561055e57600080fd5b5061057960048036038101906105749190612199565b6117e6565b604051610586919061276c565b60405180910390f35b34801561059b57600080fd5b506105a4611a09565b6040516105b1919061256a565b60405180910390f35b3480156105c657600080fd5b506105cf611a2f565b6040516105dc9190612526565b60405180910390f35b600481815481106105f557600080fd5b90600052602060002090600402016000915090508060000160009054906101000a900473ffffffffffffffffffffffffffffffffffffffff16908060010154908060020154908060030154905084565b60075481565b60056020528060005260406000206000915090508060000154908060010154908060020160009054906101000a900460ff16905083565b60095481565b610690611a55565b73ffffffffffffffffffffffffffffffffffffffff1660008054906101000a900473ffffffffffffffffffffffffffffffffffffffff1673ffffffffffffffffffffffffffffffffffffffff161461071d576040517f08c379a0000000000000000000000000000000000000000000000000000000008152600401610714906126cc565b60405180910390fd5b8060068190555050565b6000600460008154811061073e5761073d612a7a565b5b906000526020600020906004020190506000600560003373ffffffffffffffffffffffffffffffffffffffff1673ffffffffffffffffffffffffffffffffffffffff168152602001908152602001600020905082816000015410156107d8576040517f08c379a00000000000000000000000000000000000000000000000000000000081526004016107cf9061272c565b60405180910390fd5b6107e26000610bc3565b600061082c826001015461081e64e8d4a5100061081087600301548760000154611a5d90919063ffffffff16565b611ad890919063ffffffff16565b611b2290919063ffffffff16565b905060008111801561084d57508160020160009054906101000a900460ff16155b156108a05761089f3382600160009054906101000a900473ffffffffffffffffffffffffffffffffffffffff1673ffffffffffffffffffffffffffffffffffffffff16611b6c9092919063ffffffff16565b5b600084111561095e576108c0848360000154611b2290919063ffffffff16565b82600001819055507f000000000000000000000000000000000000000000000000000000000000000073ffffffffffffffffffffffffffffffffffffffff16632e1a7d4d856040518263ffffffff1660e01b8152600401610921919061276c565b600060405180830381600087803b15801561093b57600080fd5b505af115801561094f573d6000803e3d6000fd5b5050505061095d3385611bf2565b5b61099064e8d4a5100061098285600301548560000154611a5d90919063ffffffff16565b611ad890919063ffffffff16565b82600101819055503373ffffffffffffffffffffffffffffffffffffffff167f884edad9ce6fa2440d8a54cc123490eb96d2768479d49ff9c7366125a9424364856040516109de919061276c565b60405180910390a250505050565b6109f4611a55565b73ffffffffffffffffffffffffffffffffffffffff1660008054906101000a900473ffffffffffffffffffffffffffffffffffffffff1673ffffffffffffffffffffffffffffffffffffffff1614610a81576040517f08c379a0000000000000000000000000000000000000000000000000000000008152600401610a78906126cc565b60405180910390fd5b600160009054906101000a900473ffffffffffffffffffffffffffffffffffffffff1673ffffffffffffffffffffffffffffffffffffffff166370a08231306040518263ffffffff1660e01b8152600401610adc9190612526565b60206040518083038186803b158015610af457600080fd5b505afa158015610b08573d6000803e3d6000fd5b505050506040513d601f19601f82011682018060405250810190610b2c9190612220565b8110610b6d576040517f08c379a0000000000000000000000000000000000000000000000000000000008152600401610b649061268c565b60405180910390fd5b610bba3382600160009054906101000a900473ffffffffffffffffffffffffffffffffffffffff1673ffffffffffffffffffffffffffffffffffffffff16611b6c9092919063ffffffff16565b50565b60085481565b600060048281548110610bd957610bd8612a7a565b5b9060005260206000209060040201905080600201544311610bfa5750610d6f565b60008160000160009054906101000a900473ffffffffffffffffffffffffffffffffffffffff1673ffffffffffffffffffffffffffffffffffffffff166370a08231306040518263ffffffff1660e01b8152600401610c599190612526565b60206040518083038186803b158015610c7157600080fd5b505afa158015610c85573d6000803e3d6000fd5b505050506040513d601f19601f82011682018060405250810190610ca99190612220565b90506000811415610cc4574382600201819055505050610d6f565b6000610cd48360020154436110f4565b90506000610d17600754610d098660010154610cfb60035487611a5d90919063ffffffff16565b611a5d90919063ffffffff16565b611ad890919063ffffffff16565b9050610d59610d4684610d3864e8d4a5100085611a5d90919063ffffffff16565b611ad890919063ffffffff16565b8560030154611ca790919063ffffffff16565b8460030181905550438460020181905550505050505b50565b6000600480549050905060005b81811015610da157610d9081610bc3565b80610d9a906129a4565b9050610d7f565b5050565b610dad611a55565b73ffffffffffffffffffffffffffffffffffffffff1660008054906101000a900473ffffffffffffffffffffffffffffffffffffffff1673ffffffffffffffffffffffffffffffffffffffff1614610e3a576040517f08c379a0000000000000000000000000000000000000000000000000000000008152600401610e31906126cc565b60405180910390fd5b80600260006101000a81548173ffffffffffffffffffffffffffffffffffffffff021916908373ffffffffffffffffffffffffffffffffffffffff16021790555050565b610e86611a55565b73ffffffffffffffffffffffffffffffffffffffff1660008054906101000a900473ffffffffffffffffffffffffffffffffffffffff1673ffffffffffffffffffffffffffffffffffffffff1614610f13576040517f08c379a0000000000000000000000000000000000000000000000000000000008152600401610f0a906126cc565b60405180910390fd5b600073ffffffffffffffffffffffffffffffffffffffff1660008054906101000a900473ffffffffffffffffffffffffffffffffffffffff1673ffffffffffffffffffffffffffffffffffffffff167f8be0079c531659141344cd1fd0a4f28419497f9722a3daafe3b4186f6b6457e060405160405180910390a360008060006101000a81548173ffffffffffffffffffffffffffffffffffffffff021916908373ffffffffffffffffffffffffffffffffffffffff160217905550565b600260009054906101000a900473ffffffffffffffffffffffffffffffffffffffff1673ffffffffffffffffffffffffffffffffffffffff163373ffffffffffffffffffffffffffffffffffffffff1614611061576040517f08c379a0000000000000000000000000000000000000000000000000000000008152600401611058906126ec565b60405180910390fd5b6001600560008373ffffffffffffffffffffffffffffffffffffffff1673ffffffffffffffffffffffffffffffffffffffff16815260200190815260200160002060020160006101000a81548160ff02191690831515021790555050565b60065481565b60035481565b60008060009054906101000a900473ffffffffffffffffffffffffffffffffffffffff16905090565b60006009548211611119576111128383611b2290919063ffffffff16565b9050611143565b600954831061112b5760009050611143565b61114083600954611b2290919063ffffffff16565b90505b92915050565b7f000000000000000000000000000000000000000000000000000000000000000081565b6000600460008154811061118457611183612a7a565b5b906000526020600020906004020190506000600560003373ffffffffffffffffffffffffffffffffffffffff1673ffffffffffffffffffffffffffffffffffffffff16815260200190815260200160002090506006546111f1348360000154611ca790919063ffffffff16565b1115611232576040517f08c379a0000000000000000000000000000000000000000000000000000000008152600401611229906125ec565b60405180910390fd5b8060020160009054906101000a900460ff1615611284576040517f08c379a000000000000000000000000000000000000000000000000000000000815260040161127b9061266c565b60405180910390fd5b61128e6000610bc3565b6000816000015411156113405760006112e582600101546112d764e8d4a510006112c987600301548760000154611a5d90919063ffffffff16565b611ad890919063ffffffff16565b611b2290919063ffffffff16565b9050600081111561133e5761133d3382600160009054906101000a900473ffffffffffffffffffffffffffffffffffffffff1673ffffffffffffffffffffffffffffffffffffffff16611b6c9092919063ffffffff16565b5b505b60003411156114a4577f000000000000000000000000000000000000000000000000000000000000000073ffffffffffffffffffffffffffffffffffffffff1663d0e30db0346040518263ffffffff1660e01b81526004016000604051808303818588803b1580156113b157600080fd5b505af11580156113c5573d6000803e3d6000fd5b50505050507f000000000000000000000000000000000000000000000000000000000000000073ffffffffffffffffffffffffffffffffffffffff1663a9059cbb30346040518363ffffffff1660e01b8152600401611425929190612541565b602060405180830381600087803b15801561143f57600080fd5b505af1158015611453573d6000803e3d6000fd5b505050506040513d601f19601f8201168201806040525081019061147791906121c6565b611484576114836129ed565b5b61149b348260000154611ca790919063ffffffff16565b81600001819055505b6114d664e8d4a510006114c884600301548460000154611a5d90919063ffffffff16565b611ad890919063ffffffff16565b81600101819055503373ffffffffffffffffffffffffffffffffffffffff167fe1fffcc4923d04b559f4d29a8bfc6cda04eb5b0d3c460751c2402c5c5cc9109c34604051611524919061276c565b60405180910390a25050565b6000600460008154811061154757611546612a7a565b5b906000526020600020906004020190506000600560003373ffffffffffffffffffffffffffffffffffffffff1673ffffffffffffffffffffffffffffffffffffffff16815260200190815260200160002090506115ed3382600001548460000160009054906101000a900473ffffffffffffffffffffffffffffffffffffffff1673ffffffffffffffffffffffffffffffffffffffff16611b6c9092919063ffffffff16565b3373ffffffffffffffffffffffffffffffffffffffff167f5fafa99d0643513820be26656b45130b01e1c03062e1266bf36f88cbd3bd96958260000154604051611637919061276c565b60405180910390a260008160000181905550600081600101819055505050565b600260009054906101000a900473ffffffffffffffffffffffffffffffffffffffff1673ffffffffffffffffffffffffffffffffffffffff163373ffffffffffffffffffffffffffffffffffffffff16146116e7576040517f08c379a00000000000000000000000000000000000000000000000000000000081526004016116de906126ec565b60405180910390fd5b6000600560008373ffffffffffffffffffffffffffffffffffffffff1673ffffffffffffffffffffffffffffffffffffffff16815260200190815260200160002060020160006101000a81548160ff02191690831515021790555050565b61174d611a55565b73ffffffffffffffffffffffffffffffffffffffff1660008054906101000a900473ffffffffffffffffffffffffffffffffffffffff1673ffffffffffffffffffffffffffffffffffffffff16146117da576040517f08c379a00000000000000000000000000000000000000000000000000000000081526004016117d1906126cc565b60405180910390fd5b6117e381611d05565b50565b60008060046000815481106117fe576117fd612a7a565b5b906000526020600020906004020190506000600560008573ffffffffffffffffffffffffffffffffffffffff1673ffffffffffffffffffffffffffffffffffffffff168152602001908152602001600020905060008260030154905060008360000160009054906101000a900473ffffffffffffffffffffffffffffffffffffffff1673ffffffffffffffffffffffffffffffffffffffff166370a08231306040518263ffffffff1660e01b81526004016118b99190612526565b60206040518083038186803b1580156118d157600080fd5b505afa1580156118e5573d6000803e3d6000fd5b505050506040513d601f19601f820116820180604052508101906119099190612220565b905083600201544311801561191f575060008114155b156119ba5760006119348560020154436110f4565b90506000611977600754611969886001015461195b60035487611a5d90919063ffffffff16565b611a5d90919063ffffffff16565b611ad890919063ffffffff16565b90506119b56119a68461199864e8d4a5100085611a5d90919063ffffffff16565b611ad890919063ffffffff16565b85611ca790919063ffffffff16565b935050505b6119fe83600101546119f064e8d4a510006119e2868860000154611a5d90919063ffffffff16565b611ad890919063ffffffff16565b611b2290919063ffffffff16565b945050505050919050565b600160009054906101000a900473ffffffffffffffffffffffffffffffffffffffff1681565b600260009054906101000a900473ffffffffffffffffffffffffffffffffffffffff1681565b600033905090565b600080831415611a705760009050611ad2565b60008284611a7e9190612877565b9050828482611a8d9190612846565b14611acd576040517f08c379a0000000000000000000000000000000000000000000000000000000008152600401611ac4906126ac565b60405180910390fd5b809150505b92915050565b6000611b1a83836040518060400160405280601a81526020017f536166654d6174683a206469766973696f6e206279207a65726f000000000000815250611e32565b905092915050565b6000611b6483836040518060400160405280601e81526020017f536166654d6174683a207375627472616374696f6e206f766572666c6f770000815250611e95565b905092915050565b611bed8363a9059cbb60e01b8484604051602401611b8b929190612541565b604051602081830303815290604052907bffffffffffffffffffffffffffffffffffffffffffffffffffffffff19166020820180517bffffffffffffffffffffffffffffffffffffffffffffffffffffffff8381831617835250505050611ef9565b505050565b60008273ffffffffffffffffffffffffffffffffffffffff166159d883604051611c1b90612511565b600060405180830381858888f193505050503d8060008114611c59576040519150601f19603f3d011682016040523d82523d6000602084013e611c5e565b606091505b5050905080611ca2576040517f08c379a0000000000000000000000000000000000000000000000000000000008152600401611c999061274c565b60405180910390fd5b505050565b6000808284611cb691906127f0565b905083811015611cfb576040517f08c379a0000000000000000000000000000000000000000000000000000000008152600401611cf29061264c565b60405180910390fd5b8091505092915050565b600073ffffffffffffffffffffffffffffffffffffffff168173ffffffffffffffffffffffffffffffffffffffff161415611d75576040517f08c379a0000000000000000000000000000000000000000000000000000000008152600401611d6c9061262c565b60405180910390fd5b8073ffffffffffffffffffffffffffffffffffffffff1660008054906101000a900473ffffffffffffffffffffffffffffffffffffffff1673ffffffffffffffffffffffffffffffffffffffff167f8be0079c531659141344cd1fd0a4f28419497f9722a3daafe3b4186f6b6457e060405160405180910390a3806000806101000a81548173ffffffffffffffffffffffffffffffffffffffff021916908373ffffffffffffffffffffffffffffffffffffffff16021790555050565b60008083118290611e79576040517f08c379a0000000000000000000000000000000000000000000000000000000008152600401611e7091906125ca565b60405180910390fd5b5060008385611e889190612846565b9050809150509392505050565b6000838311158290611edd576040517f08c379a0000000000000000000000000000000000000000000000000000000008152600401611ed491906125ca565b60405180910390fd5b5060008385611eec91906128d1565b9050809150509392505050565b6000611f5b826040518060400160405280602081526020017f5361666542455032303a206c6f772d6c6576656c2063616c6c206661696c65648152508573ffffffffffffffffffffffffffffffffffffffff16611fc09092919063ffffffff16565b9050600081511115611fbb5780806020019051810190611f7b91906121c6565b611fba576040517f08c379a0000000000000000000000000000000000000000000000000000000008152600401611fb19061260c565b60405180910390fd5b5b505050565b6060611fcf8484600085611fd8565b90509392505050565b6060611fe3856120fa565b612022576040517f08c379a00000000000000000000000000000000000000000000000000000000081526004016120199061270c565b60405180910390fd5b6000808673ffffffffffffffffffffffffffffffffffffffff16858760405161204b91906124fa565b60006040518083038185875af1925050503d8060008114612088576040519150601f19603f3d011682016040523d82523d6000602084013e61208d565b606091505b509150915081156120a25780925050506120f2565b6000815111156120b55780518082602001fd5b836040517f08c379a00000000000000000000000000000000000000000000000000000000081526004016120e991906125ca565b60405180910390fd5b949350505050565b60008060007fc5d2460186f7233c927e7db2dcc703c0e500b653ca82273b7bfad8045d85a47060001b9050833f915080821415801561213c57506000801b8214155b92505050919050565b60008135905061215481612d46565b92915050565b60008151905061216981612d5d565b92915050565b60008135905061217e81612d74565b92915050565b60008151905061219381612d74565b92915050565b6000602082840312156121af576121ae612aa9565b5b60006121bd84828501612145565b91505092915050565b6000602082840312156121dc576121db612aa9565b5b60006121ea8482850161215a565b91505092915050565b60006020828403121561220957612208612aa9565b5b60006122178482850161216f565b91505092915050565b60006020828403121561223657612235612aa9565b5b600061224484828501612184565b91505092915050565b6000806040838503121561226457612263612aa9565b5b60006122728582860161216f565b92505060206122838582860161216f565b9150509250929050565b61229681612905565b82525050565b6122a581612917565b82525050565b60006122b6826127be565b6122c081856127d4565b93506122d0818560208601612971565b80840191505092915050565b6122e58161294d565b82525050565b60006122f6826127c9565b61230081856127df565b9350612310818560208601612971565b61231981612aae565b840191505092915050565b6000612331600e836127df565b915061233c82612abf565b602082019050919050565b6000612354602a836127df565b915061235f82612ae8565b604082019050919050565b60006123776026836127df565b915061238282612b37565b604082019050919050565b600061239a601b836127df565b91506123a582612b86565b602082019050919050565b60006123bd600d836127df565b91506123c882612baf565b602082019050919050565b60006123e06010836127df565b91506123eb82612bd8565b602082019050919050565b60006124036021836127df565b915061240e82612c01565b604082019050919050565b60006124266020836127df565b915061243182612c50565b602082019050919050565b6000612449600b836127df565b915061245482612c79565b602082019050919050565b600061246c6000836127d4565b915061247782612ca2565b600082019050919050565b600061248f601d836127df565b915061249a82612ca5565b602082019050919050565b60006124b26012836127df565b91506124bd82612cce565b602082019050919050565b60006124d56023836127df565b91506124e082612cf7565b604082019050919050565b6124f481612943565b82525050565b600061250682846122ab565b915081905092915050565b600061251c8261245f565b9150819050919050565b600060208201905061253b600083018461228d565b92915050565b6000604082019050612556600083018561228d565b61256360208301846124eb565b9392505050565b600060208201905061257f60008301846122dc565b92915050565b600060808201905061259a60008301876122dc565b6125a760208301866124eb565b6125b460408301856124eb565b6125c160608301846124eb565b95945050505050565b600060208201905081810360008301526125e481846122eb565b905092915050565b6000602082019050818103600083015261260581612324565b9050919050565b6000602082019050818103600083015261262581612347565b9050919050565b600060208201905081810360008301526126458161236a565b9050919050565b600060208201905081810360008301526126658161238d565b9050919050565b60006020820190508181036000830152612685816123b0565b9050919050565b600060208201905081810360008301526126a5816123d3565b9050919050565b600060208201905081810360008301526126c5816123f6565b9050919050565b600060208201905081810360008301526126e581612419565b9050919050565b600060208201905081810360008301526127058161243c565b9050919050565b6000602082019050818103600083015261272581612482565b9050919050565b60006020820190508181036000830152612745816124a5565b9050919050565b60006020820190508181036000830152612765816124c8565b9050919050565b600060208201905061278160008301846124eb565b92915050565b600060608201905061279c60008301866124eb565b6127a960208301856124eb565b6127b6604083018461229c565b949350505050565b600081519050919050565b600081519050919050565b600081905092915050565b600082825260208201905092915050565b60006127fb82612943565b915061280683612943565b9250827fffffffffffffffffffffffffffffffffffffffffffffffffffffffffffffffff0382111561283b5761283a612a1c565b5b828201905092915050565b600061285182612943565b915061285c83612943565b92508261286c5761286b612a4b565b5b828204905092915050565b600061288282612943565b915061288d83612943565b9250817fffffffffffffffffffffffffffffffffffffffffffffffffffffffffffffffff04831182151516156128c6576128c5612a1c565b5b828202905092915050565b60006128dc82612943565b91506128e783612943565b9250828210156128fa576128f9612a1c565b5b828203905092915050565b600061291082612923565b9050919050565b60008115159050919050565b600073ffffffffffffffffffffffffffffffffffffffff82169050919050565b6000819050919050565b60006129588261295f565b9050919050565b600061296a82612923565b9050919050565b60005b8381101561298f578082015181840152602081019050612974565b8381111561299e576000848401525b50505050565b60006129af82612943565b91507fffffffffffffffffffffffffffffffffffffffffffffffffffffffffffffffff8214156129e2576129e1612a1c565b5b600182019050919050565b7f4e487b7100000000000000000000000000000000000000000000000000000000600052600160045260246000fd5b7f4e487b7100000000000000000000000000000000000000000000000000000000600052601160045260246000fd5b7f4e487b7100000000000000000000000000000000000000000000000000000000600052601260045260246000fd5b7f4e487b7100000000000000000000000000000000000000000000000000000000600052603260045260246000fd5b600080fd5b6000601f19601f8301169050919050565b7f6578636565642074686520746f70000000000000000000000000000000000000600082015250565b7f5361666542455032303a204245503230206f7065726174696f6e20646964206e60008201527f6f74207375636365656400000000000000000000000000000000000000000000602082015250565b7f4f776e61626c653a206e6577206f776e657220697320746865207a65726f206160008201527f6464726573730000000000000000000000000000000000000000000000000000602082015250565b7f536166654d6174683a206164646974696f6e206f766572666c6f770000000000600082015250565b7f696e20626c61636b206c69737400000000000000000000000000000000000000600082015250565b7f6e6f7420656e6f75676820746f6b656e00000000000000000000000000000000600082015250565b7f536166654d6174683a206d756c7469706c69636174696f6e206f766572666c6f60008201527f7700000000000000000000000000000000000000000000000000000000000000602082015250565b7f4f776e61626c653a2063616c6c6572206973206e6f7420746865206f776e6572600082015250565b7f61646d696e3a207775743f000000000000000000000000000000000000000000600082015250565b50565b7f416464726573733a2063616c6c20746f206e6f6e2d636f6e7472616374000000600082015250565b7f77697468647261773a206e6f7420676f6f640000000000000000000000000000600082015250565b7f5472616e7366657248656c7065723a204554485f5452414e534645525f46414960008201527f4c45440000000000000000000000000000000000000000000000000000000000602082015250565b612d4f81612905565b8114612d5a57600080fd5b50565b612d6681612917565b8114612d7157600080fd5b50565b612d7d81612943565b8114612d8857600080fd5b5056fea2646970667358221220b76ea22bc989cfe13196f6cb2ea4f3dfe9a4cf39b0213cbbe149e69e9fa1620464736f6c63430008060033",
  "immutableReferences": {
    "56": [
      {
        "length": 32,
        "start": 369
      },
      {
        "length": 32,
        "start": 2250
      },
      {
        "length": 32,
        "start": 4427
      },
      {
        "length": 32,
        "start": 4939
      },
      {
        "length": 32,
        "start": 5068
      }
    ]
  },
  "source": "// SPDX-License-Identifier: MIT\r\n\r\npragma solidity ^0.8.0;\r\n\r\nimport '@pancakeswap/pancake-swap-lib/contracts/math/SafeMath.sol';\r\nimport '@pancakeswap/pancake-swap-lib/contracts/token/BEP20/IBEP20.sol';\r\nimport '@pancakeswap/pancake-swap-lib/contracts/token/BEP20/SafeBEP20.sol';\r\nimport '@pancakeswap/pancake-swap-lib/contracts/access/Ownable.sol';\r\n\r\ninterface IWBNB {\r\n    function deposit() external payable;\r\n    function transfer(address to, uint256 value) external returns (bool);\r\n    function withdraw(uint256) external;\r\n}\r\n\r\ncontract BnbStaking is Ownable {\r\n    using SafeMath for uint256;\r\n    using SafeBEP20 for IBEP20;\r\n\r\n    // Info of each user.\r\n    struct UserInfo {\r\n        uint256 amount;     // How many LP tokens the user has provided.\r\n        uint256 rewardDebt; // Reward debt. See explanation below.\r\n        bool inBlackList;\r\n    }\r\n\r\n    // Info of each pool.\r\n    struct PoolInfo {\r\n        IBEP20 lpToken;           // Address of LP token contract.\r\n        uint256 allocPoint;       // How many allocation points assigned to this pool. Oreos to distribute per block.\r\n        uint256 lastRewardBlock;  // Last block number that Oreos distribution occurs.\r\n        uint256 accOreoPerShare; // Accumulated Oreos per share, times 1e12. See below.\r\n    }\r\n\r\n    // The REWARD TOKEN          //NOTE address of Oreotoken\r\n    IBEP20 public rewardToken;  \r\n\r\n    // adminAddress\r\n    address public adminAddress;\r\n\r\n    // WBNB\r\n    address public immutable WBNB; //WRAP BNB address -- created from WBNB.sol NOTE We created WBNB to make it easier tracking\r\n                                    // users' deposit and not dealing directly with BNB\r\n\r\n    // OREOtokens created per block.\r\n    uint256 public rewardPerBlock;  //To be determined.\r\n\r\n    // Info of each pool.\r\n    PoolInfo[] public poolInfo;\r\n    // Info of each user that stakes LP tokens.\r\n    mapping (address => UserInfo) public userInfo;\r\n    // limit 10 BNB here\r\n    uint256 public limitAmount = 10000000000000000000;\r\n    // Total allocation poitns. Must be the sum of all allocation points in all pools.\r\n    uint256 public totalAllocPoint = 0;\r\n    // The block number when OREOmining starts.\r\n    uint256 public startBlock;\r\n    // The block number when OREOmining ends.\r\n    uint256 public bonusEndBlock;\r\n\r\n    event Deposit(address indexed user, uint256 amount);\r\n    event Withdraw(address indexed user, uint256 amount);\r\n    event EmergencyWithdraw(address indexed user, uint256 amount);\r\n\r\n    constructor(\r\n        IBEP20 _lp, //NOTE When user stakes BNB, they're given LP tokens which represents their share of the pool.\r\n        IBEP20 _rewardToken, //NOTE After providing liquidity, gets LP token, they earn reward in this token.\r\n        uint256 _rewardPerBlock, //How much reward is earned per block.\r\n        uint256 _startBlock, //@dev sets the block number when bonus should begin.\r\n        uint256 _bonusEndBlock, //@dev sets the block number when bonus ends.\r\n        address _adminAddress,\r\n        address _wbnb  //@dev sets WBNB address\r\n    ) {\r\n        rewardToken = _rewardToken;\r\n        rewardPerBlock = _rewardPerBlock;\r\n        startBlock = _startBlock;\r\n        bonusEndBlock = _bonusEndBlock;\r\n        adminAddress = _adminAddress;\r\n        WBNB = _wbnb;\r\n\r\n        // staking pool   ON DEPLOYMENT, AT THE CONSTRUCTOR, WE INITIALIZED OR CREATE A POOL FOR ALL.\r\n        poolInfo.push(PoolInfo({\r\n            lpToken: _lp, //WE SET LP TOKEN ADDRESS i.e MILKBAR TOKEN ADDRESS.\r\n            allocPoint: 1000, //@dev SETS ALLOCATION POINT TO 1000\r\n            lastRewardBlock: startBlock, //OBVIOUSLY, THE LAST BLOCK WHICH REWARD WAS DISTRIBUTED WILL BE THE STARTING BLOCK.\r\n            accOreoPerShare: 0\r\n        }));\r\n\r\n        totalAllocPoint = 1000;  //WE INITIALIZED TOTAL ALLOCATION POINT TO THE TOTAL OF ALL ALLOCATION POINTS IN THE POOL\r\n\r\n    }\r\n\r\n    modifier onlyAdmin() {\r\n        require(msg.sender == adminAddress, \"admin: wut?\"); // WE WILL NOT ACCEPT BNB TRANSFER FROM OUTSIDE WORLRD EXCEPT\r\n        _;                                                  // FROM ADMIN, ELSE POOL WILL BE MESSED UP.\r\n    }\r\n\r\n    receive() external payable {\r\n        assert(msg.sender == WBNB); // only accept BNB via fallback from the WBNB contract\r\n    }\r\n\r\n    // Update admin address by the previous dev.\r\n    function setAdmin(address _adminAddress) public onlyOwner {\r\n        adminAddress = _adminAddress;\r\n    }\r\n\r\n    function setBlackList(address _blacklistAddress) public onlyAdmin {\r\n        userInfo[_blacklistAddress].inBlackList = true;\r\n    }\r\n\r\n    function removeBlackList(address _blacklistAddress) public onlyAdmin {\r\n        userInfo[_blacklistAddress].inBlackList = false;\r\n    }\r\n\r\n    // Set the limit amount. Can only be called by the owner.\r\n    function setLimitAmount(uint256 _amount) public onlyOwner {  //WE CAN UPDATE THE INITIAL BNB STAKING LIMIT SET.\r\n        limitAmount = _amount;\r\n    }\r\n\r\n    // Return reward multiplier over the given starting block (_from) to current block(_to).\r\n    function getMultiplier(uint256 _from, uint256 _to) public view returns (uint256) {\r\n        if (_to <= bonusEndBlock) {  //If the current block is less or same with the block from which reward was distributed,\r\n            return _to.sub(_from);   // then subtract the starting block from the current block and return it.\r\n        } else if (_from >= bonusEndBlock) { //An example: say: bonusEndBlock = 1234577, _fromBlock = 1234570, _toBlock = 1234576 \r\n            return 0;                       // Multiplier = _toBlock - _fromBlock i.e 1234576 - 1234570  \r\n        } else {                            // M = 6;\r\n            return bonusEndBlock.sub(_from);\r\n        }\r\n    }\r\n\r\n    // View function to see pending Reward for a single user in the pool on the frontend.\r\n    function pendingReward(address _user) external view returns (uint256) {\r\n        PoolInfo storage pool = poolInfo[0];\r\n        UserInfo storage user = userInfo[_user];\r\n        uint256 accOreoPerShare = pool.accOreoPerShare; // We get the accumulated Oreopershare from the pool\r\n        uint256 lpSupply = pool.lpToken.balanceOf(address(this)); // Get the total Liquidity provider token in this contract\r\n        if (block.number > pool.lastRewardBlock && lpSupply != 0) {\r\n            uint256 multiplier = getMultiplier(pool.lastRewardBlock, block.number);\r\n            uint256 cakeReward = multiplier.mul(rewardPerBlock).mul(pool.allocPoint).div(totalAllocPoint);\r\n            accOreoPerShare = accOreoPerShare.add(cakeReward.mul(1e12).div(lpSupply));\r\n        }\r\n        return user.amount.mul(accOreoPerShare).div(1e12).sub(user.rewardDebt);\r\n    }\r\n\r\n    // Update reward variables of the given pool to be up-to-date.\r\n    function updatePool(uint256 _pid) public {\r\n        PoolInfo storage pool = poolInfo[_pid];\r\n        if (block.number <= pool.lastRewardBlock) {\r\n            return;\r\n        }\r\n        uint256 lpSupply = pool.lpToken.balanceOf(address(this));\r\n        if (lpSupply == 0) {\r\n            pool.lastRewardBlock = block.number;\r\n            return;\r\n        }\r\n        uint256 multiplier = getMultiplier(pool.lastRewardBlock, block.number);\r\n        uint256 cakeReward = multiplier.mul(rewardPerBlock).mul(pool.allocPoint).div(totalAllocPoint);\r\n        pool.accOreoPerShare = pool.accOreoPerShare.add(cakeReward.mul(1e12).div(lpSupply));\r\n        pool.lastRewardBlock = block.number;\r\n    }\r\n\r\n    // Update reward variables for all pools. Be careful of gas spending!\r\n    function massUpdatePools() public {\r\n        uint256 length = poolInfo.length;\r\n        for (uint256 pid = 0; pid < length; ++pid) {\r\n            updatePool(pid);\r\n        }\r\n    }\r\n\r\n\r\n    // Stake tokens to SmartChef\r\n    function deposit() public payable {\r\n        PoolInfo storage pool = poolInfo[0];\r\n        UserInfo storage user = userInfo[msg.sender];\r\n\r\n        require (user.amount.add(msg.value) <= limitAmount, 'exceed the top');\r\n        require (!user.inBlackList, 'in black list');\r\n\r\n        updatePool(0);\r\n        if (user.amount > 0) {\r\n            uint256 pending = user.amount.mul(pool.accOreoPerShare).div(1e12).sub(user.rewardDebt);\r\n            if(pending > 0) {\r\n                rewardToken.safeTransfer(address(msg.sender), pending);\r\n            }\r\n        }\r\n        if(msg.value > 0) {\r\n            IWBNB(WBNB).deposit{value: msg.value}();\r\n            assert(IWBNB(WBNB).transfer(address(this), msg.value));\r\n            user.amount = user.amount.add(msg.value);\r\n        }\r\n        user.rewardDebt = user.amount.mul(pool.accOreoPerShare).div(1e12);\r\n\r\n        emit Deposit(msg.sender, msg.value);\r\n    }\r\n\r\n    function safeTransferBNB(address to, uint256 value) internal {\r\n        (bool success, ) = to.call{gas: 23000, value: value}(\"\");\r\n        // (bool success,) = to.call{value:value}(new bytes(0));\r\n        require(success, 'TransferHelper: ETH_TRANSFER_FAILED');\r\n    }\r\n\r\n    // Withdraw tokens from STAKING.\r\n    function withdraw(uint256 _amount) public {\r\n        PoolInfo storage pool = poolInfo[0];\r\n        UserInfo storage user = userInfo[msg.sender];\r\n        require(user.amount >= _amount, \"withdraw: not good\");\r\n        updatePool(0);\r\n        uint256 pending = user.amount.mul(pool.accOreoPerShare).div(1e12).sub(user.rewardDebt);\r\n        if(pending > 0 && !user.inBlackList) {\r\n            rewardToken.safeTransfer(address(msg.sender), pending);\r\n        }\r\n        if(_amount > 0) {\r\n            user.amount = user.amount.sub(_amount);\r\n            IWBNB(WBNB).withdraw(_amount);\r\n            safeTransferBNB(address(msg.sender), _amount);\r\n        }\r\n        user.rewardDebt = user.amount.mul(pool.accOreoPerShare).div(1e12);\r\n\r\n        emit Withdraw(msg.sender, _amount);\r\n    }\r\n\r\n    // Withdraw without caring about rewards. EMERGENCY ONLY.\r\n    function emergencyWithdraw() public {\r\n        PoolInfo storage pool = poolInfo[0];\r\n        UserInfo storage user = userInfo[msg.sender];\r\n        pool.lpToken.safeTransfer(address(msg.sender), user.amount);\r\n        emit EmergencyWithdraw(msg.sender, user.amount);\r\n        user.amount = 0;\r\n        user.rewardDebt = 0;\r\n    }\r\n\r\n    // Withdraw reward. EMERGENCY ONLY.\r\n    function emergencyRewardWithdraw(uint256 _amount) public onlyOwner {\r\n        require(_amount < rewardToken.balanceOf(address(this)), 'not enough token');\r\n        rewardToken.safeTransfer(address(msg.sender), _amount);\r\n    }\r\n\r\n}\r\n",
  "sourcePath": "C:/Users/FVO_MMILLLER/Desktop/oreoswapProject/oreoswapv1-farm-core/contracts/BnbStaking.sol",
  "compiler": {
    "name": "solc",
    "version": "0.8.6+commit.11564f7e.Emscripten.clang"
  },
  "schemaVersion": "3.4.1",
  "updatedAt": "2021-09-10T08:13:49.626Z",
  "devdoc": {
    "kind": "dev",
    "methods": {
      "owner()": {
        "details": "Returns the address of the current owner."
      },
      "renounceOwnership()": {
        "details": "Leaves the contract without owner. It will not be possible to call `onlyOwner` functions anymore. Can only be called by the current owner. NOTE: Renouncing ownership will leave the contract without an owner, thereby removing any functionality that is only available to the owner."
      },
      "transferOwnership(address)": {
        "details": "Transfers ownership of the contract to a new account (`newOwner`). Can only be called by the current owner."
      }
    },
    "version": 1
  },
  "userdoc": {
    "kind": "user",
    "methods": {},
    "version": 1
  }
}