{
  "contractName": "LotteryRewardPool",
  "abi": [
    {
      "inputs": [
        {
          "internalType": "contract PastryChef",
          "name": "_chef",
          "type": "address"
        },
        {
          "internalType": "contract IBEP20",
          "name": "_oreo",
          "type": "address"
        },
        {
          "internalType": "address",
          "name": "_admin",
          "type": "address"
        },
        {
          "internalType": "address",
          "name": "_receiver",
          "type": "address"
        }
      ],
      "stateMutability": "nonpayable",
      "type": "constructor"
    },
    {
      "anonymous": false,
      "inputs": [
        {
          "indexed": true,
          "internalType": "address",
          "name": "user",
          "type": "address"
        },
        {
          "indexed": false,
          "internalType": "uint256",
          "name": "amount",
          "type": "uint256"
        }
      ],
      "name": "EmergencyWithdraw",
      "type": "event"
    },
    {
      "anonymous": false,
      "inputs": [
        {
          "indexed": true,
          "internalType": "address",
          "name": "user",
          "type": "address"
        },
        {
          "indexed": true,
          "internalType": "uint256",
          "name": "pid",
          "type": "uint256"
        }
      ],
      "name": "Harvest",
      "type": "event"
    },
    {
      "anonymous": false,
      "inputs": [
        {
          "indexed": true,
          "internalType": "address",
          "name": "previousOwner",
          "type": "address"
        },
        {
          "indexed": true,
          "internalType": "address",
          "name": "newOwner",
          "type": "address"
        }
      ],
      "name": "OwnershipTransferred",
      "type": "event"
    },
    {
      "anonymous": false,
      "inputs": [
        {
          "indexed": true,
          "internalType": "address",
          "name": "user",
          "type": "address"
        },
        {
          "indexed": true,
          "internalType": "uint256",
          "name": "pid",
          "type": "uint256"
        }
      ],
      "name": "StartFarming",
      "type": "event"
    },
    {
      "inputs": [],
      "name": "adminAddress",
      "outputs": [
        {
          "internalType": "address",
          "name": "",
          "type": "address"
        }
      ],
      "stateMutability": "view",
      "type": "function"
    },
    {
      "inputs": [],
      "name": "chef",
      "outputs": [
        {
          "internalType": "contract PastryChef",
          "name": "",
          "type": "address"
        }
      ],
      "stateMutability": "view",
      "type": "function"
    },
    {
      "inputs": [],
      "name": "lptoken",
      "outputs": [
        {
          "internalType": "contract IBEP20",
          "name": "",
          "type": "address"
        }
      ],
      "stateMutability": "view",
      "type": "function"
    },
    {
      "inputs": [],
      "name": "oreo",
      "outputs": [
        {
          "internalType": "contract IBEP20",
          "name": "",
          "type": "address"
        }
      ],
      "stateMutability": "view",
      "type": "function"
    },
    {
      "inputs": [],
      "name": "owner",
      "outputs": [
        {
          "internalType": "address",
          "name": "",
          "type": "address"
        }
      ],
      "stateMutability": "view",
      "type": "function"
    },
    {
      "inputs": [],
      "name": "receiver",
      "outputs": [
        {
          "internalType": "address",
          "name": "",
          "type": "address"
        }
      ],
      "stateMutability": "view",
      "type": "function"
    },
    {
      "inputs": [],
      "name": "renounceOwnership",
      "outputs": [],
      "stateMutability": "nonpayable",
      "type": "function"
    },
    {
      "inputs": [
        {
          "internalType": "address",
          "name": "newOwner",
          "type": "address"
        }
      ],
      "name": "transferOwnership",
      "outputs": [],
      "stateMutability": "nonpayable",
      "type": "function"
    },
    {
      "inputs": [
        {
          "internalType": "uint256",
          "name": "_pid",
          "type": "uint256"
        },
        {
          "internalType": "contract IBEP20",
          "name": "_lptoken",
          "type": "address"
        },
        {
          "internalType": "uint256",
          "name": "_amount",
          "type": "uint256"
        }
      ],
      "name": "startFarming",
      "outputs": [],
      "stateMutability": "nonpayable",
      "type": "function"
    },
    {
      "inputs": [
        {
          "internalType": "uint256",
          "name": "_pid",
          "type": "uint256"
        }
      ],
      "name": "harvest",
      "outputs": [],
      "stateMutability": "nonpayable",
      "type": "function"
    },
    {
      "inputs": [
        {
          "internalType": "address",
          "name": "_receiver",
          "type": "address"
        }
      ],
      "name": "setReceiver",
      "outputs": [],
      "stateMutability": "nonpayable",
      "type": "function"
    },
    {
      "inputs": [
        {
          "internalType": "uint256",
          "name": "_pid",
          "type": "uint256"
        }
      ],
      "name": "pendingReward",
      "outputs": [
        {
          "internalType": "uint256",
          "name": "",
          "type": "uint256"
        }
      ],
      "stateMutability": "view",
      "type": "function"
    },
    {
      "inputs": [
        {
          "internalType": "uint256",
          "name": "_amount",
          "type": "uint256"
        }
      ],
      "name": "emergencyWithdraw",
      "outputs": [],
      "stateMutability": "nonpayable",
      "type": "function"
    },
    {
      "inputs": [
        {
          "internalType": "address",
          "name": "_admin",
          "type": "address"
        }
      ],
      "name": "setAdmin",
      "outputs": [],
      "stateMutability": "nonpayable",
      "type": "function"
    }
  ],
  "bytecode": "0x60806040523480156200001157600080fd5b5060405162001e5b38038062001e5b833981810160405281019062000037919062000242565b600062000049620001f560201b60201c565b9050806000806101000a81548173ffffffffffffffffffffffffffffffffffffffff021916908373ffffffffffffffffffffffffffffffffffffffff1602179055508073ffffffffffffffffffffffffffffffffffffffff16600073ffffffffffffffffffffffffffffffffffffffff167f8be0079c531659141344cd1fd0a4f28419497f9722a3daafe3b4186f6b6457e060405160405180910390a35083600160006101000a81548173ffffffffffffffffffffffffffffffffffffffff021916908373ffffffffffffffffffffffffffffffffffffffff16021790555082600560006101000a81548173ffffffffffffffffffffffffffffffffffffffff021916908373ffffffffffffffffffffffffffffffffffffffff16021790555081600260006101000a81548173ffffffffffffffffffffffffffffffffffffffff021916908373ffffffffffffffffffffffffffffffffffffffff16021790555080600360006101000a81548173ffffffffffffffffffffffffffffffffffffffff021916908373ffffffffffffffffffffffffffffffffffffffff1602179055505050505062000363565b600033905090565b6000815190506200020e8162000315565b92915050565b60008151905062000225816200032f565b92915050565b6000815190506200023c8162000349565b92915050565b600080600080608085870312156200025f576200025e62000310565b5b60006200026f878288016200022b565b9450506020620002828782880162000214565b93505060406200029587828801620001fd565b9250506060620002a887828801620001fd565b91505092959194509250565b6000620002c182620002f0565b9050919050565b6000620002d582620002b4565b9050919050565b6000620002e982620002b4565b9050919050565b600073ffffffffffffffffffffffffffffffffffffffff82169050919050565b600080fd5b6200032081620002b4565b81146200032c57600080fd5b50565b6200033a81620002c8565b81146200034657600080fd5b50565b6200035481620002dc565b81146200036057600080fd5b50565b611ae880620003736000396000f3fe608060405234801561001057600080fd5b50600436106100ea5760003560e01c80638da5cb5b1161008c578063f2fde38b11610066578063f2fde38b1461020f578063f363393b1461022b578063f7260d3e14610249578063fc6f946814610267576100ea565b80638da5cb5b146101b9578063970d8e05146101d7578063ddc63262146101f3576100ea565b80636475d583116100c85780636475d58314610159578063704b6c0214610177578063715018a614610193578063718da7ee1461019d576100ea565b806312f7086c146100ef5780631fc8bc5d1461011f5780635312ea8e1461013d575b600080fd5b61010960048036038101906101049190611359565b610285565b6040516101169190611729565b60405180910390f35b61012761033b565b604051610134919061162c565b60405180910390f35b61015760048036038101906101529190611359565b610361565b005b610161610494565b60405161016e9190611611565b60405180910390f35b610191600480360381019061018c91906112ff565b6104ba565b005b61019b610593565b005b6101b760048036038101906101b291906112ff565b6106e6565b005b6101c16107ba565b6040516101ce91906115a4565b60405180910390f35b6101f160048036038101906101ec91906113b3565b6107e3565b005b61020d60048036038101906102089190611359565b610998565b005b610229600480360381019061022491906112ff565b610c1e565b005b610233610cbf565b6040516102409190611611565b60405180910390f35b610251610ce5565b60405161025e91906115a4565b60405180910390f35b61026f610d0b565b60405161027c91906115a4565b60405180910390f35b6000600160009054906101000a900473ffffffffffffffffffffffffffffffffffffffff1673ffffffffffffffffffffffffffffffffffffffff16638ac3062283306040518363ffffffff1660e01b81526004016102e4929190611744565b60206040518083038186803b1580156102fc57600080fd5b505afa158015610310573d6000803e3d6000fd5b505050506040513d601f19601f820116820180604052508101906103349190611386565b9050919050565b600160009054906101000a900473ffffffffffffffffffffffffffffffffffffffff1681565b610369610d31565b73ffffffffffffffffffffffffffffffffffffffff1660008054906101000a900473ffffffffffffffffffffffffffffffffffffffff1673ffffffffffffffffffffffffffffffffffffffff16146103f6576040517f08c379a00000000000000000000000000000000000000000000000000000000081526004016103ed906116c9565b60405180910390fd5b6104433382600560009054906101000a900473ffffffffffffffffffffffffffffffffffffffff1673ffffffffffffffffffffffffffffffffffffffff16610d399092919063ffffffff16565b3373ffffffffffffffffffffffffffffffffffffffff167f5fafa99d0643513820be26656b45130b01e1c03062e1266bf36f88cbd3bd9695826040516104899190611729565b60405180910390a250565b600560009054906101000a900473ffffffffffffffffffffffffffffffffffffffff1681565b6104c2610d31565b73ffffffffffffffffffffffffffffffffffffffff1660008054906101000a900473ffffffffffffffffffffffffffffffffffffffff1673ffffffffffffffffffffffffffffffffffffffff161461054f576040517f08c379a0000000000000000000000000000000000000000000000000000000008152600401610546906116c9565b60405180910390fd5b80600260006101000a81548173ffffffffffffffffffffffffffffffffffffffff021916908373ffffffffffffffffffffffffffffffffffffffff16021790555050565b61059b610d31565b73ffffffffffffffffffffffffffffffffffffffff1660008054906101000a900473ffffffffffffffffffffffffffffffffffffffff1673ffffffffffffffffffffffffffffffffffffffff1614610628576040517f08c379a000000000000000000000000000000000000000000000000000000000815260040161061f906116c9565b60405180910390fd5b600073ffffffffffffffffffffffffffffffffffffffff1660008054906101000a900473ffffffffffffffffffffffffffffffffffffffff1673ffffffffffffffffffffffffffffffffffffffff167f8be0079c531659141344cd1fd0a4f28419497f9722a3daafe3b4186f6b6457e060405160405180910390a360008060006101000a81548173ffffffffffffffffffffffffffffffffffffffff021916908373ffffffffffffffffffffffffffffffffffffffff160217905550565b600260009054906101000a900473ffffffffffffffffffffffffffffffffffffffff1673ffffffffffffffffffffffffffffffffffffffff163373ffffffffffffffffffffffffffffffffffffffff1614610776576040517f08c379a000000000000000000000000000000000000000000000000000000000815260040161076d906116e9565b60405180910390fd5b80600360006101000a81548173ffffffffffffffffffffffffffffffffffffffff021916908373ffffffffffffffffffffffffffffffffffffffff16021790555050565b60008060009054906101000a900473ffffffffffffffffffffffffffffffffffffffff16905090565b600260009054906101000a900473ffffffffffffffffffffffffffffffffffffffff1673ffffffffffffffffffffffffffffffffffffffff163373ffffffffffffffffffffffffffffffffffffffff1614610873576040517f08c379a000000000000000000000000000000000000000000000000000000000815260040161086a906116e9565b60405180910390fd5b6108c0600160009054906101000a900473ffffffffffffffffffffffffffffffffffffffff16828473ffffffffffffffffffffffffffffffffffffffff16610dbf9092919063ffffffff16565b600160009054906101000a900473ffffffffffffffffffffffffffffffffffffffff1673ffffffffffffffffffffffffffffffffffffffff1663e2bbb15884836040518363ffffffff1660e01b815260040161091d929190611796565b600060405180830381600087803b15801561093757600080fd5b505af115801561094b573d6000803e3d6000fd5b50505050823373ffffffffffffffffffffffffffffffffffffffff167f4ae4c06870b47ebbde6d53278986a91eb269349cdc9ee1e9d211373dd98afef160405160405180910390a3505050565b600260009054906101000a900473ffffffffffffffffffffffffffffffffffffffff1673ffffffffffffffffffffffffffffffffffffffff163373ffffffffffffffffffffffffffffffffffffffff1614610a28576040517f08c379a0000000000000000000000000000000000000000000000000000000008152600401610a1f906116e9565b60405180910390fd5b600160009054906101000a900473ffffffffffffffffffffffffffffffffffffffff1673ffffffffffffffffffffffffffffffffffffffff1663e2bbb1588260006040518363ffffffff1660e01b8152600401610a8692919061176d565b600060405180830381600087803b158015610aa057600080fd5b505af1158015610ab4573d6000803e3d6000fd5b505050506000600560009054906101000a900473ffffffffffffffffffffffffffffffffffffffff1673ffffffffffffffffffffffffffffffffffffffff166370a08231306040518263ffffffff1660e01b8152600401610b1591906115a4565b60206040518083038186803b158015610b2d57600080fd5b505afa158015610b41573d6000803e3d6000fd5b505050506040513d601f19601f82011682018060405250810190610b659190611386565b9050610bd6600360009054906101000a900473ffffffffffffffffffffffffffffffffffffffff1682600560009054906101000a900473ffffffffffffffffffffffffffffffffffffffff1673ffffffffffffffffffffffffffffffffffffffff16610d399092919063ffffffff16565b813373ffffffffffffffffffffffffffffffffffffffff167fc9695243a805adb74c91f28311176c65b417e842d5699893cef56d18bfa48cba60405160405180910390a35050565b610c26610d31565b73ffffffffffffffffffffffffffffffffffffffff1660008054906101000a900473ffffffffffffffffffffffffffffffffffffffff1673ffffffffffffffffffffffffffffffffffffffff1614610cb3576040517f08c379a0000000000000000000000000000000000000000000000000000000008152600401610caa906116c9565b60405180910390fd5b610cbc81610f1d565b50565b600460009054906101000a900473ffffffffffffffffffffffffffffffffffffffff1681565b600360009054906101000a900473ffffffffffffffffffffffffffffffffffffffff1681565b600260009054906101000a900473ffffffffffffffffffffffffffffffffffffffff1681565b600033905090565b610dba8363a9059cbb60e01b8484604051602401610d589291906115e8565b604051602081830303815290604052907bffffffffffffffffffffffffffffffffffffffffffffffffffffffff19166020820180517bffffffffffffffffffffffffffffffffffffffffffffffffffffffff838183161783525050505061104a565b505050565b6000811480610e58575060008373ffffffffffffffffffffffffffffffffffffffff1663dd62ed3e30856040518363ffffffff1660e01b8152600401610e069291906115bf565b60206040518083038186803b158015610e1e57600080fd5b505afa158015610e32573d6000803e3d6000fd5b505050506040513d601f19601f82011682018060405250810190610e569190611386565b145b610e97576040517f08c379a0000000000000000000000000000000000000000000000000000000008152600401610e8e906116a9565b60405180910390fd5b610f188363095ea7b360e01b8484604051602401610eb69291906115e8565b604051602081830303815290604052907bffffffffffffffffffffffffffffffffffffffffffffffffffffffff19166020820180517bffffffffffffffffffffffffffffffffffffffffffffffffffffffff838183161783525050505061104a565b505050565b600073ffffffffffffffffffffffffffffffffffffffff168173ffffffffffffffffffffffffffffffffffffffff161415610f8d576040517f08c379a0000000000000000000000000000000000000000000000000000000008152600401610f8490611689565b60405180910390fd5b8073ffffffffffffffffffffffffffffffffffffffff1660008054906101000a900473ffffffffffffffffffffffffffffffffffffffff1673ffffffffffffffffffffffffffffffffffffffff167f8be0079c531659141344cd1fd0a4f28419497f9722a3daafe3b4186f6b6457e060405160405180910390a3806000806101000a81548173ffffffffffffffffffffffffffffffffffffffff021916908373ffffffffffffffffffffffffffffffffffffffff16021790555050565b60006110ac826040518060400160405280602081526020017f5361666542455032303a206c6f772d6c6576656c2063616c6c206661696c65648152508573ffffffffffffffffffffffffffffffffffffffff166111119092919063ffffffff16565b905060008151111561110c57808060200190518101906110cc919061132c565b61110b576040517f08c379a000000000000000000000000000000000000000000000000000000000815260040161110290611669565b60405180910390fd5b5b505050565b60606111208484600085611129565b90509392505050565b60606111348561124b565b611173576040517f08c379a000000000000000000000000000000000000000000000000000000000815260040161116a90611709565b60405180910390fd5b6000808673ffffffffffffffffffffffffffffffffffffffff16858760405161119c919061158d565b60006040518083038185875af1925050503d80600081146111d9576040519150601f19603f3d011682016040523d82523d6000602084013e6111de565b606091505b509150915081156111f3578092505050611243565b6000815111156112065780518082602001fd5b836040517f08c379a000000000000000000000000000000000000000000000000000000000815260040161123a9190611647565b60405180910390fd5b949350505050565b60008060007fc5d2460186f7233c927e7db2dcc703c0e500b653ca82273b7bfad8045d85a47060001b9050833f915080821415801561128d57506000801b8214155b92505050919050565b6000813590506112a581611a56565b92915050565b6000815190506112ba81611a6d565b92915050565b6000813590506112cf81611a84565b92915050565b6000813590506112e481611a9b565b92915050565b6000815190506112f981611a9b565b92915050565b600060208284031215611315576113146118d8565b5b600061132384828501611296565b91505092915050565b600060208284031215611342576113416118d8565b5b6000611350848285016112ab565b91505092915050565b60006020828403121561136f5761136e6118d8565b5b600061137d848285016112d5565b91505092915050565b60006020828403121561139c5761139b6118d8565b5b60006113aa848285016112ea565b91505092915050565b6000806000606084860312156113cc576113cb6118d8565b5b60006113da868287016112d5565b93505060206113eb868287016112c0565b92505060406113fc868287016112d5565b9150509250925092565b61140f816117f1565b82525050565b6000611420826117bf565b61142a81856117d5565b935061143a8185602086016118a5565b80840191505092915050565b61144f8161184b565b82525050565b61145e8161185d565b82525050565b61146d8161186f565b82525050565b600061147e826117ca565b61148881856117e0565b93506114988185602086016118a5565b6114a1816118dd565b840191505092915050565b60006114b9602a836117e0565b91506114c4826118ee565b604082019050919050565b60006114dc6026836117e0565b91506114e78261193d565b604082019050919050565b60006114ff6036836117e0565b915061150a8261198c565b604082019050919050565b60006115226020836117e0565b915061152d826119db565b602082019050919050565b6000611545600b836117e0565b915061155082611a04565b602082019050919050565b6000611568601d836117e0565b915061157382611a2d565b602082019050919050565b61158781611841565b82525050565b60006115998284611415565b915081905092915050565b60006020820190506115b96000830184611406565b92915050565b60006040820190506115d46000830185611406565b6115e16020830184611406565b9392505050565b60006040820190506115fd6000830185611406565b61160a602083018461157e565b9392505050565b60006020820190506116266000830184611446565b92915050565b60006020820190506116416000830184611455565b92915050565b600060208201905081810360008301526116618184611473565b905092915050565b60006020820190508181036000830152611682816114ac565b9050919050565b600060208201905081810360008301526116a2816114cf565b9050919050565b600060208201905081810360008301526116c2816114f2565b9050919050565b600060208201905081810360008301526116e281611515565b9050919050565b6000602082019050818103600083015261170281611538565b9050919050565b600060208201905081810360008301526117228161155b565b9050919050565b600060208201905061173e600083018461157e565b92915050565b6000604082019050611759600083018561157e565b6117666020830184611406565b9392505050565b6000604082019050611782600083018561157e565b61178f6020830184611464565b9392505050565b60006040820190506117ab600083018561157e565b6117b8602083018461157e565b9392505050565b600081519050919050565b600081519050919050565b600081905092915050565b600082825260208201905092915050565b60006117fc82611821565b9050919050565b60008115159050919050565b600061181a826117f1565b9050919050565b600073ffffffffffffffffffffffffffffffffffffffff82169050919050565b6000819050919050565b600061185682611881565b9050919050565b600061186882611881565b9050919050565b600061187a82611841565b9050919050565b600061188c82611893565b9050919050565b600061189e82611821565b9050919050565b60005b838110156118c35780820151818401526020810190506118a8565b838111156118d2576000848401525b50505050565b600080fd5b6000601f19601f8301169050919050565b7f5361666542455032303a204245503230206f7065726174696f6e20646964206e60008201527f6f74207375636365656400000000000000000000000000000000000000000000602082015250565b7f4f776e61626c653a206e6577206f776e657220697320746865207a65726f206160008201527f6464726573730000000000000000000000000000000000000000000000000000602082015250565b7f5361666542455032303a20617070726f76652066726f6d206e6f6e2d7a65726f60008201527f20746f206e6f6e2d7a65726f20616c6c6f77616e636500000000000000000000602082015250565b7f4f776e61626c653a2063616c6c6572206973206e6f7420746865206f776e6572600082015250565b7f61646d696e3a207775743f000000000000000000000000000000000000000000600082015250565b7f416464726573733a2063616c6c20746f206e6f6e2d636f6e7472616374000000600082015250565b611a5f816117f1565b8114611a6a57600080fd5b50565b611a7681611803565b8114611a8157600080fd5b50565b611a8d8161180f565b8114611a9857600080fd5b50565b611aa481611841565b8114611aaf57600080fd5b5056fea264697066735822122035f7804457db6145f2c56e3d7188239e6e5d9c1cb3206a760bc0adcc5a6a140464736f6c63430008070033",
  "immutableReferences": {},
  "source": "// SPDX-License-Identifier: MIT\n\npragma solidity ^0.8.0;\n\nimport './oreoswap-lib/IBEP20.sol';\nimport './oreoswap-lib/SafeBEP20.sol';\nimport './oreoswap-lib/Ownable.sol';\n\nimport './PastryChef.sol';\n\ncontract LotteryRewardPool is Ownable {\n    using SafeBEP20 for IBEP20;\n\n    PastryChef public chef;\n    address public adminAddress;\n    address public receiver;\n    IBEP20 public lptoken;\n    IBEP20 public oreo;\n\n    constructor(\n        PastryChef _chef,\n        IBEP20 _oreo,\n        address _admin,\n        address _receiver) {\n            chef = _chef;\n            oreo = _oreo;\n            adminAddress = _admin;\n            receiver = _receiver;\n    }\n\n    event StartFarming(address indexed user, uint256 indexed pid);\n    event Harvest(address indexed user, uint256 indexed pid);\n    event EmergencyWithdraw(address indexed user, uint256 amount);\n\n    modifier onlyAdmin() {\n        require(msg.sender == adminAddress, \"admin: wut?\");\n        _;\n    }\n\n    function startFarming(uint256 _pid, IBEP20 _lptoken, uint256 _amount) external onlyAdmin {\n        _lptoken.safeApprove(address(chef), _amount);\n        chef.deposit(_pid, _amount);\n        emit StartFarming(msg.sender, _pid);\n    }\n\n    function  harvest(uint256 _pid) external onlyAdmin {\n        chef.deposit(_pid, 0);\n        uint256 balance = oreo.balanceOf(address(this));\n        oreo.safeTransfer(receiver, balance);\n        emit Harvest(msg.sender, _pid);\n    }\n\n    function setReceiver(address _receiver) external onlyAdmin {\n        receiver = _receiver;\n    }\n\n    function  pendingReward(uint256 _pid) external view returns (uint256) {\n        return chef.pendingOreo(_pid, address(this));\n    }\n\n    // EMERGENCY ONLY.\n    function emergencyWithdraw(uint256 _amount) external onlyOwner {\n        oreo.safeTransfer(address(msg.sender), _amount);\n        emit EmergencyWithdraw(msg.sender, _amount);\n    }\n\n    function setAdmin(address _admin) external onlyOwner {\n        adminAddress = _admin;\n    }\n\n}\n",
  "sourcePath": "/Users/calistus/Google Drive/oreo-swap/oreoswapv1-farm-core/contracts/LotteryRewardPool.sol",
  "compiler": {
    "name": "solc",
    "version": "0.8.7+commit.e28d00a7.Emscripten.clang"
  },
  "schemaVersion": "3.4.0",
  "updatedAt": "2021-09-18T14:51:23.682Z",
  "devdoc": {
    "kind": "dev",
    "methods": {
      "owner()": {
        "details": "Returns the address of the current owner."
      },
      "renounceOwnership()": {
        "details": "Leaves the contract without owner. It will not be possible to call `onlyOwner` functions anymore. Can only be called by the current owner. NOTE: Renouncing ownership will leave the contract without an owner, thereby removing any functionality that is only available to the owner."
      },
      "transferOwnership(address)": {
        "details": "Transfers ownership of the contract to a new account (`newOwner`). Can only be called by the current owner."
      }
    },
    "version": 1
  },
  "userdoc": {
    "kind": "user",
    "methods": {},
    "version": 1
  }
}