{
  "contractName": "PancakeVoterProxy",
  "abi": [
    {
      "inputs": [],
      "stateMutability": "nonpayable",
      "type": "constructor"
    },
    {
      "inputs": [],
      "name": "votes",
      "outputs": [
        {
          "internalType": "address",
          "name": "",
          "type": "address"
        }
      ],
      "stateMutability": "view",
      "type": "function"
    },
    {
      "inputs": [],
      "name": "decimals",
      "outputs": [
        {
          "internalType": "uint8",
          "name": "",
          "type": "uint8"
        }
      ],
      "stateMutability": "pure",
      "type": "function"
    },
    {
      "inputs": [],
      "name": "name",
      "outputs": [
        {
          "internalType": "string",
          "name": "",
          "type": "string"
        }
      ],
      "stateMutability": "pure",
      "type": "function"
    },
    {
      "inputs": [],
      "name": "symbol",
      "outputs": [
        {
          "internalType": "string",
          "name": "",
          "type": "string"
        }
      ],
      "stateMutability": "pure",
      "type": "function"
    },
    {
      "inputs": [],
      "name": "totalSupply",
      "outputs": [
        {
          "internalType": "uint256",
          "name": "",
          "type": "uint256"
        }
      ],
      "stateMutability": "view",
      "type": "function"
    },
    {
      "inputs": [
        {
          "internalType": "address",
          "name": "_voter",
          "type": "address"
        }
      ],
      "name": "balanceOf",
      "outputs": [
        {
          "internalType": "uint256",
          "name": "",
          "type": "uint256"
        }
      ],
      "stateMutability": "view",
      "type": "function"
    }
  ],
  "bytecode": "0x608060405234801561001057600080fd5b50610573806100206000396000f3fe608060405234801561001057600080fd5b50600436106100625760003560e01c806306fdde031461006757806318160ddd14610085578063313ce567146100a357806370a08231146100c157806395d89b41146100f1578063e168c3ec1461010f575b600080fd5b61006f61012d565b60405161007c9190610409565b60405180910390f35b61008d61016a565b60405161009a919061042b565b60405180910390f35b6100ab610202565b6040516100b89190610446565b60405180910390f35b6100db60048036038101906100d6919061032e565b61020b565b6040516100e8919061042b565b60405180910390f35b6100f96102b0565b6040516101069190610409565b60405180910390f35b6101176102ed565b60405161012491906103ee565b60405180910390f35b60606040518060400160405280600981526020017f5359525550564f54450000000000000000000000000000000000000000000000815250905090565b6000729cf7bc57584b7998236eff51b98a168dcea9b073ffffffffffffffffffffffffffffffffffffffff166318160ddd6040518163ffffffff1660e01b815260040160206040518083038186803b1580156101c557600080fd5b505afa1580156101d9573d6000803e3d6000fd5b505050506040513d601f19601f820116820180604052508101906101fd919061035b565b905090565b60006012905090565b6000729cf7bc57584b7998236eff51b98a168dcea9b073ffffffffffffffffffffffffffffffffffffffff166370a08231836040518263ffffffff1660e01b815260040161025991906103ee565b60206040518083038186803b15801561027157600080fd5b505afa158015610285573d6000803e3d6000fd5b505050506040513d601f19601f820116820180604052508101906102a9919061035b565b9050919050565b60606040518060400160405280600581526020017f5359525550000000000000000000000000000000000000000000000000000000815250905090565b729cf7bc57584b7998236eff51b98a168dcea9b081565b6000813590506103138161050f565b92915050565b60008151905061032881610526565b92915050565b600060208284031215610344576103436104f9565b5b600061035284828501610304565b91505092915050565b600060208284031215610371576103706104f9565b5b600061037f84828501610319565b91505092915050565b6103918161047d565b82525050565b60006103a282610461565b6103ac818561046c565b93506103bc8185602086016104c6565b6103c5816104fe565b840191505092915050565b6103d9816104af565b82525050565b6103e8816104b9565b82525050565b60006020820190506104036000830184610388565b92915050565b600060208201905081810360008301526104238184610397565b905092915050565b600060208201905061044060008301846103d0565b92915050565b600060208201905061045b60008301846103df565b92915050565b600081519050919050565b600082825260208201905092915050565b60006104888261048f565b9050919050565b600073ffffffffffffffffffffffffffffffffffffffff82169050919050565b6000819050919050565b600060ff82169050919050565b60005b838110156104e45780820151818401526020810190506104c9565b838111156104f3576000848401525b50505050565b600080fd5b6000601f19601f8301169050919050565b6105188161047d565b811461052357600080fd5b50565b61052f816104af565b811461053a57600080fd5b5056fea2646970667358221220193aed4e46ef4e7a321f1cac0fa476fa483513372a502d8e3b516366b2fe6fb064736f6c63430008060033",
  "immutableReferences": {},
  "source": "// SPDX-License-Identifier: MIT\r\n\r\npragma solidity ^0.8.0;\r\n\r\ninterface IBEP20 {\r\n    /**\r\n     * @dev Returns the amount of tokens in existence.\r\n     */\r\n    function totalSupply() external view returns (uint256);\r\n\r\n    /**\r\n     * @dev Returns the token decimals.\r\n     */\r\n    function decimals() external view returns (uint8);\r\n\r\n    /**\r\n     * @dev Returns the token symbol.\r\n     */\r\n    function symbol() external view returns (string memory);\r\n\r\n    /**\r\n     * @dev Returns the token name.\r\n     */\r\n    function name() external view returns (string memory);\r\n\r\n    /**\r\n     * @dev Returns the bep token owner.\r\n     */\r\n    function getOwner() external view returns (address);\r\n\r\n    /**\r\n     * @dev Returns the amount of tokens owned by `account`.\r\n     */\r\n    function balanceOf(address account) external view returns (uint256);\r\n\r\n    /**\r\n     * @dev Moves `amount` tokens from the caller's account to `recipient`.\r\n     *\r\n     * Returns a boolean value indicating whether the operation succeeded.\r\n     *\r\n     * Emits a {Transfer} event.\r\n     */\r\n    function transfer(address recipient, uint256 amount) external returns (bool);\r\n\r\n    /**\r\n     * @dev Returns the remaining number of tokens that `spender` will be\r\n     * allowed to spend on behalf of `owner` through {transferFrom}. This is\r\n     * zero by default.\r\n     *\r\n     * This value changes when {approve} or {transferFrom} are called.\r\n     */\r\n    function allowance(address _owner, address spender) external view returns (uint256);\r\n\r\n    /**\r\n     * @dev Sets `amount` as the allowance of `spender` over the caller's tokens.\r\n     *\r\n     * Returns a boolean value indicating whether the operation succeeded.\r\n     *\r\n     * IMPORTANT: Beware that changing an allowance with this method brings the risk\r\n     * that someone may use both the old and the new allowance by unfortunate\r\n     * transaction ordering. One possible solution to mitigate this race\r\n     * condition is to first reduce the spender's allowance to 0 and set the\r\n     * desired value afterwards:\r\n     * https://github.com/ethereum/EIPs/issues/20#issuecomment-263524729\r\n     *\r\n     * Emits an {Approval} event.\r\n     */\r\n    function approve(address spender, uint256 amount) external returns (bool);\r\n\r\n    /**\r\n     * @dev Moves `amount` tokens from `sender` to `recipient` using the\r\n     * allowance mechanism. `amount` is then deducted from the caller's\r\n     * allowance.\r\n     *\r\n     * Returns a boolean value indicating whether the operation succeeded.\r\n     *\r\n     * Emits a {Transfer} event.\r\n     */\r\n    function transferFrom(\r\n        address sender,\r\n        address recipient,\r\n        uint256 amount\r\n    ) external returns (bool);\r\n\r\n    /**\r\n     * @dev Emitted when `value` tokens are moved from one account (`from`) to\r\n     * another (`to`).\r\n     *\r\n     * Note that `value` may be zero.\r\n     */\r\n    event Transfer(address indexed from, address indexed to, uint256 value);\r\n\r\n    /**\r\n     * @dev Emitted when the allowance of a `spender` for an `owner` is set by\r\n     * a call to {approve}. `value` is the new allowance.\r\n     */\r\n    event Approval(address indexed owner, address indexed spender, uint256 value);\r\n}\r\n\r\n\r\ncontract PancakeVoterProxy {\r\n    // SYRUP\r\n    address public constant votes = 0x009cF7bC57584b7998236eff51b98A168DceA9B0;\r\n\r\n    function decimals() external pure returns (uint8) {\r\n        return uint8(18);\r\n    }\r\n\r\n    function name() external pure returns (string memory) {\r\n        return 'SYRUPVOTE';\r\n    }\r\n\r\n    function symbol() external pure returns (string memory) {\r\n        return 'SYRUP';\r\n    }\r\n\r\n    function totalSupply() external view returns (uint256) {\r\n        return IBEP20(votes).totalSupply();\r\n    }\r\n\r\n    function balanceOf(address _voter) external view returns (uint256) {\r\n        return IBEP20(votes).balanceOf(_voter);\r\n    }\r\n\r\n    constructor() {}\r\n}",
  "sourcePath": "C:/Users/FVO_MMILLLER/Desktop/oreoswapProject/oreoswapv1-farm-core/contracts/libs/PancakeVoteProxy.sol",
  "compiler": {
    "name": "solc",
    "version": "0.8.6+commit.11564f7e.Emscripten.clang"
  },
  "schemaVersion": "3.4.1",
  "updatedAt": "2021-09-10T08:13:50.341Z",
  "devdoc": {
    "kind": "dev",
    "methods": {},
    "version": 1
  },
  "userdoc": {
    "kind": "user",
    "methods": {},
    "version": 1
  }
}