{
  "contractName": "PastryChef",
  "abi": [
    {
      "inputs": [
        {
          "internalType": "contract OreoToken",
          "name": "_oreo",
          "type": "address"
        },
        {
          "internalType": "contract MilkBar",
          "name": "_milk",
          "type": "address"
        },
        {
          "internalType": "address",
          "name": "_devaddr",
          "type": "address"
        },
        {
          "internalType": "uint256",
          "name": "_oreoPerBlock",
          "type": "uint256"
        },
        {
          "internalType": "uint256",
          "name": "_startBlock",
          "type": "uint256"
        }
      ],
      "stateMutability": "nonpayable",
      "type": "constructor"
    },
    {
      "anonymous": false,
      "inputs": [
        {
          "indexed": true,
          "internalType": "address",
          "name": "user",
          "type": "address"
        },
        {
          "indexed": true,
          "internalType": "uint256",
          "name": "pid",
          "type": "uint256"
        },
        {
          "indexed": false,
          "internalType": "uint256",
          "name": "amount",
          "type": "uint256"
        }
      ],
      "name": "Deposit",
      "type": "event"
    },
    {
      "anonymous": false,
      "inputs": [
        {
          "indexed": true,
          "internalType": "address",
          "name": "user",
          "type": "address"
        },
        {
          "indexed": true,
          "internalType": "uint256",
          "name": "pid",
          "type": "uint256"
        },
        {
          "indexed": false,
          "internalType": "uint256",
          "name": "amount",
          "type": "uint256"
        }
      ],
      "name": "EmergencyWithdraw",
      "type": "event"
    },
    {
      "anonymous": false,
      "inputs": [
        {
          "indexed": true,
          "internalType": "address",
          "name": "previousOwner",
          "type": "address"
        },
        {
          "indexed": true,
          "internalType": "address",
          "name": "newOwner",
          "type": "address"
        }
      ],
      "name": "OwnershipTransferred",
      "type": "event"
    },
    {
      "anonymous": false,
      "inputs": [
        {
          "indexed": true,
          "internalType": "address",
          "name": "user",
          "type": "address"
        },
        {
          "indexed": true,
          "internalType": "uint256",
          "name": "pid",
          "type": "uint256"
        },
        {
          "indexed": false,
          "internalType": "uint256",
          "name": "amount",
          "type": "uint256"
        }
      ],
      "name": "Withdraw",
      "type": "event"
    },
    {
      "inputs": [],
      "name": "BONUS_MULTIPLIER",
      "outputs": [
        {
          "internalType": "uint256",
          "name": "",
          "type": "uint256"
        }
      ],
      "stateMutability": "view",
      "type": "function"
    },
    {
      "inputs": [],
      "name": "devaddr",
      "outputs": [
        {
          "internalType": "address",
          "name": "",
          "type": "address"
        }
      ],
      "stateMutability": "view",
      "type": "function"
    },
    {
      "inputs": [],
      "name": "milk",
      "outputs": [
        {
          "internalType": "contract MilkBar",
          "name": "",
          "type": "address"
        }
      ],
      "stateMutability": "view",
      "type": "function"
    },
    {
      "inputs": [],
      "name": "oreo",
      "outputs": [
        {
          "internalType": "contract OreoToken",
          "name": "",
          "type": "address"
        }
      ],
      "stateMutability": "view",
      "type": "function"
    },
    {
      "inputs": [],
      "name": "oreoPerBlock",
      "outputs": [
        {
          "internalType": "uint256",
          "name": "",
          "type": "uint256"
        }
      ],
      "stateMutability": "view",
      "type": "function"
    },
    {
      "inputs": [],
      "name": "owner",
      "outputs": [
        {
          "internalType": "address",
          "name": "",
          "type": "address"
        }
      ],
      "stateMutability": "view",
      "type": "function"
    },
    {
      "inputs": [
        {
          "internalType": "uint256",
          "name": "",
          "type": "uint256"
        }
      ],
      "name": "poolInfo",
      "outputs": [
        {
          "internalType": "contract IBEP20",
          "name": "lpToken",
          "type": "address"
        },
        {
          "internalType": "uint256",
          "name": "allocPoint",
          "type": "uint256"
        },
        {
          "internalType": "uint256",
          "name": "lastRewardBlock",
          "type": "uint256"
        },
        {
          "internalType": "uint256",
          "name": "accoreoPerShare",
          "type": "uint256"
        }
      ],
      "stateMutability": "view",
      "type": "function"
    },
    {
      "inputs": [],
      "name": "renounceOwnership",
      "outputs": [],
      "stateMutability": "nonpayable",
      "type": "function"
    },
    {
      "inputs": [],
      "name": "startBlock",
      "outputs": [
        {
          "internalType": "uint256",
          "name": "",
          "type": "uint256"
        }
      ],
      "stateMutability": "view",
      "type": "function"
    },
    {
      "inputs": [],
      "name": "totalAllocPoint",
      "outputs": [
        {
          "internalType": "uint256",
          "name": "",
          "type": "uint256"
        }
      ],
      "stateMutability": "view",
      "type": "function"
    },
    {
      "inputs": [
        {
          "internalType": "address",
          "name": "newOwner",
          "type": "address"
        }
      ],
      "name": "transferOwnership",
      "outputs": [],
      "stateMutability": "nonpayable",
      "type": "function"
    },
    {
      "inputs": [
        {
          "internalType": "uint256",
          "name": "",
          "type": "uint256"
        },
        {
          "internalType": "address",
          "name": "",
          "type": "address"
        }
      ],
      "name": "userInfo",
      "outputs": [
        {
          "internalType": "uint256",
          "name": "amount",
          "type": "uint256"
        },
        {
          "internalType": "uint256",
          "name": "rewardDebt",
          "type": "uint256"
        }
      ],
      "stateMutability": "view",
      "type": "function"
    },
    {
      "inputs": [
        {
          "internalType": "uint256",
          "name": "multiplierNumber",
          "type": "uint256"
        }
      ],
      "name": "updateMultiplier",
      "outputs": [],
      "stateMutability": "nonpayable",
      "type": "function"
    },
    {
      "inputs": [],
      "name": "poolLength",
      "outputs": [
        {
          "internalType": "uint256",
          "name": "",
          "type": "uint256"
        }
      ],
      "stateMutability": "view",
      "type": "function"
    },
    {
      "inputs": [
        {
          "internalType": "uint256",
          "name": "_allocPoint",
          "type": "uint256"
        },
        {
          "internalType": "contract IBEP20",
          "name": "_lpToken",
          "type": "address"
        },
        {
          "internalType": "bool",
          "name": "_withUpdate",
          "type": "bool"
        }
      ],
      "name": "add",
      "outputs": [],
      "stateMutability": "nonpayable",
      "type": "function"
    },
    {
      "inputs": [
        {
          "internalType": "uint256",
          "name": "_pid",
          "type": "uint256"
        },
        {
          "internalType": "uint256",
          "name": "_allocPoint",
          "type": "uint256"
        },
        {
          "internalType": "bool",
          "name": "_withUpdate",
          "type": "bool"
        }
      ],
      "name": "set",
      "outputs": [],
      "stateMutability": "nonpayable",
      "type": "function"
    },
    {
      "inputs": [
        {
          "internalType": "uint256",
          "name": "_from",
          "type": "uint256"
        },
        {
          "internalType": "uint256",
          "name": "_to",
          "type": "uint256"
        }
      ],
      "name": "getMultiplier",
      "outputs": [
        {
          "internalType": "uint256",
          "name": "",
          "type": "uint256"
        }
      ],
      "stateMutability": "view",
      "type": "function"
    },
    {
      "inputs": [
        {
          "internalType": "uint256",
          "name": "_pid",
          "type": "uint256"
        },
        {
          "internalType": "address",
          "name": "_user",
          "type": "address"
        }
      ],
      "name": "pendingOreo",
      "outputs": [
        {
          "internalType": "uint256",
          "name": "",
          "type": "uint256"
        }
      ],
      "stateMutability": "view",
      "type": "function"
    },
    {
      "inputs": [],
      "name": "massUpdatePools",
      "outputs": [],
      "stateMutability": "nonpayable",
      "type": "function"
    },
    {
      "inputs": [
        {
          "internalType": "uint256",
          "name": "_pid",
          "type": "uint256"
        }
      ],
      "name": "updatePool",
      "outputs": [],
      "stateMutability": "nonpayable",
      "type": "function"
    },
    {
      "inputs": [
        {
          "internalType": "uint256",
          "name": "_pid",
          "type": "uint256"
        },
        {
          "internalType": "uint256",
          "name": "_amount",
          "type": "uint256"
        }
      ],
      "name": "deposit",
      "outputs": [],
      "stateMutability": "nonpayable",
      "type": "function"
    },
    {
      "inputs": [
        {
          "internalType": "uint256",
          "name": "_pid",
          "type": "uint256"
        },
        {
          "internalType": "uint256",
          "name": "_amount",
          "type": "uint256"
        }
      ],
      "name": "withdraw",
      "outputs": [],
      "stateMutability": "nonpayable",
      "type": "function"
    },
    {
      "inputs": [
        {
          "internalType": "uint256",
          "name": "_amount",
          "type": "uint256"
        }
      ],
      "name": "enterStaking",
      "outputs": [],
      "stateMutability": "nonpayable",
      "type": "function"
    },
    {
      "inputs": [
        {
          "internalType": "uint256",
          "name": "_amount",
          "type": "uint256"
        }
      ],
      "name": "leaveStaking",
      "outputs": [],
      "stateMutability": "nonpayable",
      "type": "function"
    },
    {
      "inputs": [
        {
          "internalType": "uint256",
          "name": "_pid",
          "type": "uint256"
        }
      ],
      "name": "emergencyWithdraw",
      "outputs": [],
      "stateMutability": "nonpayable",
      "type": "function"
    },
    {
      "inputs": [
        {
          "internalType": "address",
          "name": "_devaddr",
          "type": "address"
        }
      ],
      "name": "dev",
      "outputs": [],
      "stateMutability": "nonpayable",
      "type": "function"
    }
  ],
  "bytecode": "0x6080604052600160055560006008553480156200001b57600080fd5b5060405162003708380380620037088339818101604052810190620000419190620003db565b600062000053620002a460201b60201c565b9050806000806101000a81548173ffffffffffffffffffffffffffffffffffffffff021916908373ffffffffffffffffffffffffffffffffffffffff1602179055508073ffffffffffffffffffffffffffffffffffffffff16600073ffffffffffffffffffffffffffffffffffffffff167f8be0079c531659141344cd1fd0a4f28419497f9722a3daafe3b4186f6b6457e060405160405180910390a35084600160006101000a81548173ffffffffffffffffffffffffffffffffffffffff021916908373ffffffffffffffffffffffffffffffffffffffff16021790555083600260006101000a81548173ffffffffffffffffffffffffffffffffffffffff021916908373ffffffffffffffffffffffffffffffffffffffff16021790555082600360006101000a81548173ffffffffffffffffffffffffffffffffffffffff021916908373ffffffffffffffffffffffffffffffffffffffff1602179055508160048190555080600981905550600660405180608001604052808773ffffffffffffffffffffffffffffffffffffffff1681526020016103e8815260200160095481526020016000815250908060018154018082558091505060019003906000526020600020906004020160009091909190915060008201518160000160006101000a81548173ffffffffffffffffffffffffffffffffffffffff021916908373ffffffffffffffffffffffffffffffffffffffff16021790555060208201518160010155604082015181600201556060820151816003015550506103e8600881905550505050505062000463565b600033905090565b600080fd5b600073ffffffffffffffffffffffffffffffffffffffff82169050919050565b6000620002de82620002b1565b9050919050565b6000620002f282620002d1565b9050919050565b6200030481620002e5565b81146200031057600080fd5b50565b6000815190506200032481620002f9565b92915050565b60006200033782620002d1565b9050919050565b62000349816200032a565b81146200035557600080fd5b50565b60008151905062000369816200033e565b92915050565b6200037a81620002d1565b81146200038657600080fd5b50565b6000815190506200039a816200036f565b92915050565b6000819050919050565b620003b581620003a0565b8114620003c157600080fd5b50565b600081519050620003d581620003aa565b92915050565b600080600080600060a08688031215620003fa57620003f9620002ac565b5b60006200040a8882890162000313565b95505060206200041d8882890162000358565b9450506040620004308882890162000389565b93505060606200044388828901620003c4565b92505060806200045688828901620003c4565b9150509295509295909350565b61329580620004736000396000f3fe608060405234801561001057600080fd5b506004361061018e5760003560e01c806364482f79116100de5780638da5cb5b11610097578063d49e77cd11610071578063d49e77cd14610439578063dbf8b16814610457578063e2bbb15814610475578063f2fde38b146104915761018e565b80638da5cb5b146103ba5780638dbb1e3a146103d857806393f1a40b146104085761018e565b806364482f791461030c5780636475d58314610328578063715018a6146103465780638aa28550146103505780638ac306221461036e5780638d88a90e1461039e5761018e565b806341441d3b1161014b57806351eb05a61161012557806351eb05a6146102ae5780635312ea8e146102ca5780635ffe6146146102e6578063630b5ba1146103025761018e565b806341441d3b14610258578063441a3e701461027457806348cd4cb1146102905761018e565b8063081e3eda146101935780630abefeb1146101b15780631058d281146101cf5780631526fe27146101eb57806317caf6f11461021e5780631eaaa0451461023c575b600080fd5b61019b6104ad565b6040516101a891906125be565b60405180910390f35b6101b96104ba565b6040516101c691906125be565b60405180910390f35b6101e960048036038101906101e4919061260a565b6104c0565b005b6102056004803603810190610200919061260a565b610783565b60405161021594939291906126b6565b60405180910390f35b6102266107e3565b60405161023391906125be565b60405180910390f35b61025660048036038101906102519190612783565b6107e9565b005b610272600480360381019061026d919061260a565b610997565b005b61028e600480360381019061028991906127d6565b610c23565b005b610298610e99565b6040516102a591906125be565b60405180910390f35b6102c860048036038101906102c3919061260a565b610e9f565b005b6102e460048036038101906102df919061260a565b6111c3565b005b61030060048036038101906102fb919061260a565b6112fc565b005b61030a61139b565b005b61032660048036038101906103219190612816565b6113ce565b005b610330611509565b60405161033d919061288a565b60405180910390f35b61034e61152f565b005b610358611682565b60405161036591906125be565b60405180910390f35b610388600480360381019061038391906128d1565b611688565b60405161039591906125be565b60405180910390f35b6103b860048036038101906103b39190612911565b6118bc565b005b6103c2611990565b6040516103cf919061294d565b60405180910390f35b6103f260048036038101906103ed91906127d6565b6119b9565b6040516103ff91906125be565b60405180910390f35b610422600480360381019061041d91906128d1565b6119ea565b604051610430929190612968565b60405180910390f35b610441611a1b565b60405161044e919061294d565b60405180910390f35b61045f611a41565b60405161046c91906129b2565b60405180910390f35b61048f600480360381019061048a91906127d6565b611a67565b005b6104ab60048036038101906104a69190612911565b611ca6565b005b6000600680549050905090565b60045481565b600060066000815481106104d7576104d66129cd565b5b9060005260206000209060040201905060006007600080815260200190815260200160002060003373ffffffffffffffffffffffffffffffffffffffff1673ffffffffffffffffffffffffffffffffffffffff16815260200190815260200160002090508281600001541015610582576040517f08c379a000000000000000000000000000000000000000000000000000000000815260040161057990612a59565b60405180910390fd5b61058c6000610e9f565b60006105d682600101546105c864e8d4a510006105ba87600301548760000154611d4790919063ffffffff16565b611dc290919063ffffffff16565b611e0c90919063ffffffff16565b905060008111156105ec576105eb3382611e56565b5b60008411156106645761060c848360000154611e0c90919063ffffffff16565b826000018190555061066333858560000160009054906101000a900473ffffffffffffffffffffffffffffffffffffffff1673ffffffffffffffffffffffffffffffffffffffff16611ee99092919063ffffffff16565b5b61069664e8d4a5100061068885600301548560000154611d4790919063ffffffff16565b611dc290919063ffffffff16565b8260010181905550600260009054906101000a900473ffffffffffffffffffffffffffffffffffffffff1673ffffffffffffffffffffffffffffffffffffffff16639dc29fac33866040518363ffffffff1660e01b81526004016106fb929190612a79565b600060405180830381600087803b15801561071557600080fd5b505af1158015610729573d6000803e3d6000fd5b5050505060003373ffffffffffffffffffffffffffffffffffffffff167ff279e6a1f5e320cca91135676d9cb6e44ca8a08c0b88342bcdb1144f6511b5688660405161077591906125be565b60405180910390a350505050565b6006818154811061079357600080fd5b90600052602060002090600402016000915090508060000160009054906101000a900473ffffffffffffffffffffffffffffffffffffffff16908060010154908060020154908060030154905084565b60085481565b6107f1611f6f565b73ffffffffffffffffffffffffffffffffffffffff1660008054906101000a900473ffffffffffffffffffffffffffffffffffffffff1673ffffffffffffffffffffffffffffffffffffffff161461087e576040517f08c379a000000000000000000000000000000000000000000000000000000000815260040161087590612aee565b60405180910390fd5b801561088d5761088c61139b565b5b600060095443116108a0576009546108a2565b435b90506108b984600854611f7790919063ffffffff16565b600881905550600660405180608001604052808573ffffffffffffffffffffffffffffffffffffffff1681526020018681526020018381526020016000815250908060018154018082558091505060019003906000526020600020906004020160009091909190915060008201518160000160006101000a81548173ffffffffffffffffffffffffffffffffffffffff021916908373ffffffffffffffffffffffffffffffffffffffff1602179055506020820151816001015560408201518160020155606082015181600301555050610991611fd5565b50505050565b600060066000815481106109ae576109ad6129cd565b5b9060005260206000209060040201905060006007600080815260200190815260200160002060003373ffffffffffffffffffffffffffffffffffffffff1673ffffffffffffffffffffffffffffffffffffffff1681526020019081526020016000209050610a1c6000610e9f565b600081600001541115610a8b576000610a738260010154610a6564e8d4a51000610a5787600301548760000154611d4790919063ffffffff16565b611dc290919063ffffffff16565b611e0c90919063ffffffff16565b90506000811115610a8957610a883382611e56565b5b505b6000831115610b0557610ae53330858560000160009054906101000a900473ffffffffffffffffffffffffffffffffffffffff1673ffffffffffffffffffffffffffffffffffffffff166120dc909392919063ffffffff16565b610afc838260000154611f7790919063ffffffff16565b81600001819055505b610b3764e8d4a51000610b2984600301548460000154611d4790919063ffffffff16565b611dc290919063ffffffff16565b8160010181905550600260009054906101000a900473ffffffffffffffffffffffffffffffffffffffff1673ffffffffffffffffffffffffffffffffffffffff166340c10f1933856040518363ffffffff1660e01b8152600401610b9c929190612a79565b600060405180830381600087803b158015610bb657600080fd5b505af1158015610bca573d6000803e3d6000fd5b5050505060003373ffffffffffffffffffffffffffffffffffffffff167f90890809c654f11d6e72a28fa60149770a0d11ec6c92319d6ceb2bb0a4ea1a1585604051610c1691906125be565b60405180910390a3505050565b6000821415610c67576040517f08c379a0000000000000000000000000000000000000000000000000000000008152600401610c5e90612b5a565b60405180910390fd5b600060068381548110610c7d57610c7c6129cd565b5b9060005260206000209060040201905060006007600085815260200190815260200160002060003373ffffffffffffffffffffffffffffffffffffffff1673ffffffffffffffffffffffffffffffffffffffff16815260200190815260200160002090508281600001541015610d28576040517f08c379a0000000000000000000000000000000000000000000000000000000008152600401610d1f90612a59565b60405180910390fd5b610d3184610e9f565b6000610d7b8260010154610d6d64e8d4a51000610d5f87600301548760000154611d4790919063ffffffff16565b611dc290919063ffffffff16565b611e0c90919063ffffffff16565b90506000811115610d9157610d903382611e56565b5b6000841115610e0957610db1848360000154611e0c90919063ffffffff16565b8260000181905550610e0833858560000160009054906101000a900473ffffffffffffffffffffffffffffffffffffffff1673ffffffffffffffffffffffffffffffffffffffff16611ee99092919063ffffffff16565b5b610e3b64e8d4a51000610e2d85600301548560000154611d4790919063ffffffff16565b611dc290919063ffffffff16565b8260010181905550843373ffffffffffffffffffffffffffffffffffffffff167ff279e6a1f5e320cca91135676d9cb6e44ca8a08c0b88342bcdb1144f6511b56886604051610e8a91906125be565b60405180910390a35050505050565b60095481565b600060068281548110610eb557610eb46129cd565b5b9060005260206000209060040201905080600201544311610ed657506111c0565b60008160000160009054906101000a900473ffffffffffffffffffffffffffffffffffffffff1673ffffffffffffffffffffffffffffffffffffffff166370a08231306040518263ffffffff1660e01b8152600401610f35919061294d565b60206040518083038186803b158015610f4d57600080fd5b505afa158015610f61573d6000803e3d6000fd5b505050506040513d601f19601f82011682018060405250810190610f859190612b8f565b90506000811415610fa05743826002018190555050506111c0565b6000610fb08360020154436119b9565b90506000610ff3600854610fe58660010154610fd760045487611d4790919063ffffffff16565b611d4790919063ffffffff16565b611dc290919063ffffffff16565b9050600160009054906101000a900473ffffffffffffffffffffffffffffffffffffffff1673ffffffffffffffffffffffffffffffffffffffff166340c10f19600360009054906101000a900473ffffffffffffffffffffffffffffffffffffffff1661106a600a85611dc290919063ffffffff16565b6040518363ffffffff1660e01b8152600401611087929190612a79565b600060405180830381600087803b1580156110a157600080fd5b505af11580156110b5573d6000803e3d6000fd5b50505050600160009054906101000a900473ffffffffffffffffffffffffffffffffffffffff1673ffffffffffffffffffffffffffffffffffffffff166340c10f19600260009054906101000a900473ffffffffffffffffffffffffffffffffffffffff16836040518363ffffffff1660e01b8152600401611138929190612a79565b600060405180830381600087803b15801561115257600080fd5b505af1158015611166573d6000803e3d6000fd5b505050506111aa6111978461118964e8d4a5100085611d4790919063ffffffff16565b611dc290919063ffffffff16565b8560030154611f7790919063ffffffff16565b8460030181905550438460020181905550505050505b50565b6000600682815481106111d9576111d86129cd565b5b9060005260206000209060040201905060006007600084815260200190815260200160002060003373ffffffffffffffffffffffffffffffffffffffff1673ffffffffffffffffffffffffffffffffffffffff16815260200190815260200160002090506112903382600001548460000160009054906101000a900473ffffffffffffffffffffffffffffffffffffffff1673ffffffffffffffffffffffffffffffffffffffff16611ee99092919063ffffffff16565b823373ffffffffffffffffffffffffffffffffffffffff167fbb757047c2b5f3974fe26b7c10f732e7bce710b0952a71082702781e62ae059583600001546040516112db91906125be565b60405180910390a36000816000018190555060008160010181905550505050565b611304611f6f565b73ffffffffffffffffffffffffffffffffffffffff1660008054906101000a900473ffffffffffffffffffffffffffffffffffffffff1673ffffffffffffffffffffffffffffffffffffffff1614611391576040517f08c379a000000000000000000000000000000000000000000000000000000000815260040161138890612aee565b60405180910390fd5b8060058190555050565b6000600680549050905060005b818110156113ca576113b981610e9f565b806113c390612beb565b90506113a8565b5050565b6113d6611f6f565b73ffffffffffffffffffffffffffffffffffffffff1660008054906101000a900473ffffffffffffffffffffffffffffffffffffffff1673ffffffffffffffffffffffffffffffffffffffff1614611463576040517f08c379a000000000000000000000000000000000000000000000000000000000815260040161145a90612aee565b60405180910390fd5b80156114725761147161139b565b5b600060068481548110611488576114876129cd565b5b906000526020600020906004020160010154905082600685815481106114b1576114b06129cd565b5b906000526020600020906004020160010181905550828114611503576114f4836114e683600854611e0c90919063ffffffff16565b611f7790919063ffffffff16565b600881905550611502611fd5565b5b50505050565b600160009054906101000a900473ffffffffffffffffffffffffffffffffffffffff1681565b611537611f6f565b73ffffffffffffffffffffffffffffffffffffffff1660008054906101000a900473ffffffffffffffffffffffffffffffffffffffff1673ffffffffffffffffffffffffffffffffffffffff16146115c4576040517f08c379a00000000000000000000000000000000000000000000000000000000081526004016115bb90612aee565b60405180910390fd5b600073ffffffffffffffffffffffffffffffffffffffff1660008054906101000a900473ffffffffffffffffffffffffffffffffffffffff1673ffffffffffffffffffffffffffffffffffffffff167f8be0079c531659141344cd1fd0a4f28419497f9722a3daafe3b4186f6b6457e060405160405180910390a360008060006101000a81548173ffffffffffffffffffffffffffffffffffffffff021916908373ffffffffffffffffffffffffffffffffffffffff160217905550565b60055481565b6000806006848154811061169f5761169e6129cd565b5b9060005260206000209060040201905060006007600086815260200190815260200160002060008573ffffffffffffffffffffffffffffffffffffffff1673ffffffffffffffffffffffffffffffffffffffff168152602001908152602001600020905060008260030154905060008360000160009054906101000a900473ffffffffffffffffffffffffffffffffffffffff1673ffffffffffffffffffffffffffffffffffffffff166370a08231306040518263ffffffff1660e01b815260040161176b919061294d565b60206040518083038186803b15801561178357600080fd5b505afa158015611797573d6000803e3d6000fd5b505050506040513d601f19601f820116820180604052508101906117bb9190612b8f565b90508360020154431180156117d1575060008114155b1561186c5760006117e68560020154436119b9565b9050600061182960085461181b886001015461180d60045487611d4790919063ffffffff16565b611d4790919063ffffffff16565b611dc290919063ffffffff16565b90506118676118588461184a64e8d4a5100085611d4790919063ffffffff16565b611dc290919063ffffffff16565b85611f7790919063ffffffff16565b935050505b6118b083600101546118a264e8d4a51000611894868860000154611d4790919063ffffffff16565b611dc290919063ffffffff16565b611e0c90919063ffffffff16565b94505050505092915050565b600360009054906101000a900473ffffffffffffffffffffffffffffffffffffffff1673ffffffffffffffffffffffffffffffffffffffff163373ffffffffffffffffffffffffffffffffffffffff161461194c576040517f08c379a000000000000000000000000000000000000000000000000000000000815260040161194390612c80565b60405180910390fd5b80600360006101000a81548173ffffffffffffffffffffffffffffffffffffffff021916908373ffffffffffffffffffffffffffffffffffffffff16021790555050565b60008060009054906101000a900473ffffffffffffffffffffffffffffffffffffffff16905090565b60006119e26005546119d48585611e0c90919063ffffffff16565b611d4790919063ffffffff16565b905092915050565b6007602052816000526040600020602052806000526040600020600091509150508060000154908060010154905082565b600360009054906101000a900473ffffffffffffffffffffffffffffffffffffffff1681565b600260009054906101000a900473ffffffffffffffffffffffffffffffffffffffff1681565b6000821415611aab576040517f08c379a0000000000000000000000000000000000000000000000000000000008152600401611aa290612cec565b60405180910390fd5b600060068381548110611ac157611ac06129cd565b5b9060005260206000209060040201905060006007600085815260200190815260200160002060003373ffffffffffffffffffffffffffffffffffffffff1673ffffffffffffffffffffffffffffffffffffffff1681526020019081526020016000209050611b2e84610e9f565b600081600001541115611b9d576000611b858260010154611b7764e8d4a51000611b6987600301548760000154611d4790919063ffffffff16565b611dc290919063ffffffff16565b611e0c90919063ffffffff16565b90506000811115611b9b57611b9a3382611e56565b5b505b6000831115611c1757611bf73330858560000160009054906101000a900473ffffffffffffffffffffffffffffffffffffffff1673ffffffffffffffffffffffffffffffffffffffff166120dc909392919063ffffffff16565b611c0e838260000154611f7790919063ffffffff16565b81600001819055505b611c4964e8d4a51000611c3b84600301548460000154611d4790919063ffffffff16565b611dc290919063ffffffff16565b8160010181905550833373ffffffffffffffffffffffffffffffffffffffff167f90890809c654f11d6e72a28fa60149770a0d11ec6c92319d6ceb2bb0a4ea1a1585604051611c9891906125be565b60405180910390a350505050565b611cae611f6f565b73ffffffffffffffffffffffffffffffffffffffff1660008054906101000a900473ffffffffffffffffffffffffffffffffffffffff1673ffffffffffffffffffffffffffffffffffffffff1614611d3b576040517f08c379a0000000000000000000000000000000000000000000000000000000008152600401611d3290612aee565b60405180910390fd5b611d4481612165565b50565b600080831415611d5a5760009050611dbc565b60008284611d689190612d0c565b9050828482611d779190612d95565b14611db7576040517f08c379a0000000000000000000000000000000000000000000000000000000008152600401611dae90612e38565b60405180910390fd5b809150505b92915050565b6000611e0483836040518060400160405280601a81526020017f536166654d6174683a206469766973696f6e206279207a65726f000000000000815250612292565b905092915050565b6000611e4e83836040518060400160405280601e81526020017f536166654d6174683a207375627472616374696f6e206f766572666c6f7700008152506122f5565b905092915050565b600260009054906101000a900473ffffffffffffffffffffffffffffffffffffffff1673ffffffffffffffffffffffffffffffffffffffff166391716cf783836040518363ffffffff1660e01b8152600401611eb3929190612a79565b600060405180830381600087803b158015611ecd57600080fd5b505af1158015611ee1573d6000803e3d6000fd5b505050505050565b611f6a8363a9059cbb60e01b8484604051602401611f08929190612a79565b604051602081830303815290604052907bffffffffffffffffffffffffffffffffffffffffffffffffffffffff19166020820180517bffffffffffffffffffffffffffffffffffffffffffffffffffffffff8381831617835250505050612359565b505050565b600033905090565b6000808284611f869190612e58565b905083811015611fcb576040517f08c379a0000000000000000000000000000000000000000000000000000000008152600401611fc290612efa565b60405180910390fd5b8091505092915050565b60006006805490509050600080600190505b8281101561203a5761202760068281548110612006576120056129cd565b5b90600052602060002090600402016001015483611f7790919063ffffffff16565b91508061203390612beb565b9050611fe7565b50600081146120d857612057600382611dc290919063ffffffff16565b90506120a6816120986006600081548110612075576120746129cd565b5b906000526020600020906004020160010154600854611e0c90919063ffffffff16565b611f7790919063ffffffff16565b6008819055508060066000815481106120c2576120c16129cd565b5b9060005260206000209060040201600101819055505b5050565b61215f846323b872dd60e01b8585856040516024016120fd93929190612f1a565b604051602081830303815290604052907bffffffffffffffffffffffffffffffffffffffffffffffffffffffff19166020820180517bffffffffffffffffffffffffffffffffffffffffffffffffffffffff8381831617835250505050612359565b50505050565b600073ffffffffffffffffffffffffffffffffffffffff168173ffffffffffffffffffffffffffffffffffffffff1614156121d5576040517f08c379a00000000000000000000000000000000000000000000000000000000081526004016121cc90612fc3565b60405180910390fd5b8073ffffffffffffffffffffffffffffffffffffffff1660008054906101000a900473ffffffffffffffffffffffffffffffffffffffff1673ffffffffffffffffffffffffffffffffffffffff167f8be0079c531659141344cd1fd0a4f28419497f9722a3daafe3b4186f6b6457e060405160405180910390a3806000806101000a81548173ffffffffffffffffffffffffffffffffffffffff021916908373ffffffffffffffffffffffffffffffffffffffff16021790555050565b600080831182906122d9576040517f08c379a00000000000000000000000000000000000000000000000000000000081526004016122d0919061306b565b60405180910390fd5b50600083856122e89190612d95565b9050809150509392505050565b600083831115829061233d576040517f08c379a0000000000000000000000000000000000000000000000000000000008152600401612334919061306b565b60405180910390fd5b506000838561234c919061308d565b9050809150509392505050565b60006123bb826040518060400160405280602081526020017f5361666542455032303a206c6f772d6c6576656c2063616c6c206661696c65648152508573ffffffffffffffffffffffffffffffffffffffff166124209092919063ffffffff16565b905060008151111561241b57808060200190518101906123db91906130d6565b61241a576040517f08c379a000000000000000000000000000000000000000000000000000000000815260040161241190613175565b60405180910390fd5b5b505050565b606061242f8484600085612438565b90509392505050565b60606124438561255a565b612482576040517f08c379a0000000000000000000000000000000000000000000000000000000008152600401612479906131e1565b60405180910390fd5b6000808673ffffffffffffffffffffffffffffffffffffffff1685876040516124ab9190613248565b60006040518083038185875af1925050503d80600081146124e8576040519150601f19603f3d011682016040523d82523d6000602084013e6124ed565b606091505b50915091508115612502578092505050612552565b6000815111156125155780518082602001fd5b836040517f08c379a0000000000000000000000000000000000000000000000000000000008152600401612549919061306b565b60405180910390fd5b949350505050565b60008060007fc5d2460186f7233c927e7db2dcc703c0e500b653ca82273b7bfad8045d85a47060001b9050833f915080821415801561259c57506000801b8214155b92505050919050565b6000819050919050565b6125b8816125a5565b82525050565b60006020820190506125d360008301846125af565b92915050565b600080fd5b6125e7816125a5565b81146125f257600080fd5b50565b600081359050612604816125de565b92915050565b6000602082840312156126205761261f6125d9565b5b600061262e848285016125f5565b91505092915050565b600073ffffffffffffffffffffffffffffffffffffffff82169050919050565b6000819050919050565b600061267c61267761267284612637565b612657565b612637565b9050919050565b600061268e82612661565b9050919050565b60006126a082612683565b9050919050565b6126b081612695565b82525050565b60006080820190506126cb60008301876126a7565b6126d860208301866125af565b6126e560408301856125af565b6126f260608301846125af565b95945050505050565b600061270682612637565b9050919050565b6000612718826126fb565b9050919050565b6127288161270d565b811461273357600080fd5b50565b6000813590506127458161271f565b92915050565b60008115159050919050565b6127608161274b565b811461276b57600080fd5b50565b60008135905061277d81612757565b92915050565b60008060006060848603121561279c5761279b6125d9565b5b60006127aa868287016125f5565b93505060206127bb86828701612736565b92505060406127cc8682870161276e565b9150509250925092565b600080604083850312156127ed576127ec6125d9565b5b60006127fb858286016125f5565b925050602061280c858286016125f5565b9150509250929050565b60008060006060848603121561282f5761282e6125d9565b5b600061283d868287016125f5565b935050602061284e868287016125f5565b925050604061285f8682870161276e565b9150509250925092565b600061287482612683565b9050919050565b61288481612869565b82525050565b600060208201905061289f600083018461287b565b92915050565b6128ae816126fb565b81146128b957600080fd5b50565b6000813590506128cb816128a5565b92915050565b600080604083850312156128e8576128e76125d9565b5b60006128f6858286016125f5565b9250506020612907858286016128bc565b9150509250929050565b600060208284031215612927576129266125d9565b5b6000612935848285016128bc565b91505092915050565b612947816126fb565b82525050565b6000602082019050612962600083018461293e565b92915050565b600060408201905061297d60008301856125af565b61298a60208301846125af565b9392505050565b600061299c82612683565b9050919050565b6129ac81612991565b82525050565b60006020820190506129c760008301846129a3565b92915050565b7f4e487b7100000000000000000000000000000000000000000000000000000000600052603260045260246000fd5b600082825260208201905092915050565b7f77697468647261773a206e6f7420676f6f640000000000000000000000000000600082015250565b6000612a436012836129fc565b9150612a4e82612a0d565b602082019050919050565b60006020820190508181036000830152612a7281612a36565b9050919050565b6000604082019050612a8e600083018561293e565b612a9b60208301846125af565b9392505050565b7f4f776e61626c653a2063616c6c6572206973206e6f7420746865206f776e6572600082015250565b6000612ad86020836129fc565b9150612ae382612aa2565b602082019050919050565b60006020820190508181036000830152612b0781612acb565b9050919050565b7f7769746864726177206f72656f20627920756e7374616b696e67000000000000600082015250565b6000612b44601a836129fc565b9150612b4f82612b0e565b602082019050919050565b60006020820190508181036000830152612b7381612b37565b9050919050565b600081519050612b89816125de565b92915050565b600060208284031215612ba557612ba46125d9565b5b6000612bb384828501612b7a565b91505092915050565b7f4e487b7100000000000000000000000000000000000000000000000000000000600052601160045260246000fd5b6000612bf6826125a5565b91507fffffffffffffffffffffffffffffffffffffffffffffffffffffffffffffffff821415612c2957612c28612bbc565b5b600182019050919050565b7f6465763a207775743f0000000000000000000000000000000000000000000000600082015250565b6000612c6a6009836129fc565b9150612c7582612c34565b602082019050919050565b60006020820190508181036000830152612c9981612c5d565b9050919050565b7f6465706f736974206f72656f206279207374616b696e67000000000000000000600082015250565b6000612cd66017836129fc565b9150612ce182612ca0565b602082019050919050565b60006020820190508181036000830152612d0581612cc9565b9050919050565b6000612d17826125a5565b9150612d22836125a5565b9250817fffffffffffffffffffffffffffffffffffffffffffffffffffffffffffffffff0483118215151615612d5b57612d5a612bbc565b5b828202905092915050565b7f4e487b7100000000000000000000000000000000000000000000000000000000600052601260045260246000fd5b6000612da0826125a5565b9150612dab836125a5565b925082612dbb57612dba612d66565b5b828204905092915050565b7f536166654d6174683a206d756c7469706c69636174696f6e206f766572666c6f60008201527f7700000000000000000000000000000000000000000000000000000000000000602082015250565b6000612e226021836129fc565b9150612e2d82612dc6565b604082019050919050565b60006020820190508181036000830152612e5181612e15565b9050919050565b6000612e63826125a5565b9150612e6e836125a5565b9250827fffffffffffffffffffffffffffffffffffffffffffffffffffffffffffffffff03821115612ea357612ea2612bbc565b5b828201905092915050565b7f536166654d6174683a206164646974696f6e206f766572666c6f770000000000600082015250565b6000612ee4601b836129fc565b9150612eef82612eae565b602082019050919050565b60006020820190508181036000830152612f1381612ed7565b9050919050565b6000606082019050612f2f600083018661293e565b612f3c602083018561293e565b612f4960408301846125af565b949350505050565b7f4f776e61626c653a206e6577206f776e657220697320746865207a65726f206160008201527f6464726573730000000000000000000000000000000000000000000000000000602082015250565b6000612fad6026836129fc565b9150612fb882612f51565b604082019050919050565b60006020820190508181036000830152612fdc81612fa0565b9050919050565b600081519050919050565b60005b8381101561300c578082015181840152602081019050612ff1565b8381111561301b576000848401525b50505050565b6000601f19601f8301169050919050565b600061303d82612fe3565b61304781856129fc565b9350613057818560208601612fee565b61306081613021565b840191505092915050565b600060208201905081810360008301526130858184613032565b905092915050565b6000613098826125a5565b91506130a3836125a5565b9250828210156130b6576130b5612bbc565b5b828203905092915050565b6000815190506130d081612757565b92915050565b6000602082840312156130ec576130eb6125d9565b5b60006130fa848285016130c1565b91505092915050565b7f5361666542455032303a204245503230206f7065726174696f6e20646964206e60008201527f6f74207375636365656400000000000000000000000000000000000000000000602082015250565b600061315f602a836129fc565b915061316a82613103565b604082019050919050565b6000602082019050818103600083015261318e81613152565b9050919050565b7f416464726573733a2063616c6c20746f206e6f6e2d636f6e7472616374000000600082015250565b60006131cb601d836129fc565b91506131d682613195565b602082019050919050565b600060208201905081810360008301526131fa816131be565b9050919050565b600081519050919050565b600081905092915050565b600061322282613201565b61322c818561320c565b935061323c818560208601612fee565b80840191505092915050565b60006132548284613217565b91508190509291505056fea2646970667358221220fed76cac193ab9d88f1d1a7eb2542e0486e0a63d033e5363e95d73dc96531dfe64736f6c63430008080033",
  "immutableReferences": {},
  "source": "// SPDX-License-Identifier: MIT\n\npragma solidity ^0.8.0;\n\n\nimport \"@oreoswap/oreoswap-swap-lib/libs/token/SafeBEP20.sol\";\nimport \"@oreoswap/oreoswap-swap-lib/libs/token/IBEP20.sol\";\nimport \"@oreoswap/oreoswap-swap-lib/libs/access/Ownable.sol\";\nimport \"@oreoswap/oreoswap-swap-lib/libs/math/SafeMath.sol\";\n\n\nimport \"./OreoToken.sol\";\nimport \"./MilkBar.sol\";\n\n// interface IMigratorChef {\n//     // Perform LP token migration from legacy OreoSwap to oreoSwap.\n//     // Take the current LP token address and return the new LP token address.\n//     // Migrator should have full access to the caller's LP token.\n//     // Return the new LP token address.\n//     //\n//     // XXX Migrator must have allowance access to OreoSwap LP tokens.\n//     // OreoSwap must mint EXACTLY the same amount of OreoSwap LP tokens or\n//     // else something bad will happen. Traditional OreoSwap does not\n//     // do that so be careful!\n//     function migrate(IBEP20 token) external returns (IBEP20);\n// }\n\n// PastryChef is the master of oreo. He can make oreo and he is a fair guy.\n//\n// Note that it's ownable and the owner wields tremendous power. The ownership\n// will be transferred to a governance smart contract once oreo is sufficiently\n// distributed and the community can show to govern itself.\n//\n// Have fun reading it. Hopefully it's bug-free. God bless.\n\ncontract PastryChef is Ownable {\n    using SafeMath for uint256;\n    using SafeBEP20 for IBEP20;\n\n    // Info of each user.\n    struct UserInfo {\n        uint256 amount;     // How many LP tokens the user has provided.\n        uint256 rewardDebt; // Reward debt. See explanation below.\n        //import \"@oreoswap/oreoswap-lib/contracts/token/BEP20/BEP20.sol\";\n        //   pending reward = (user.amount * pool.accOreoPerShare) - user.rewardDebt\n        //onlyOwnerending reward sent to his/her address.\n        //   3. User's `amount` gets updated.\n        //   4. User's `rewardDebt` gets updated.          massUpdatePools();\n    }\n\n    struct PoolInfo {\n        IBEP20 lpToken;           // Address of LP token contract.\n        uint256 allocPoint;       // How many allocation points assigned to this pool. oreos to distribute per block.\n        uint256 lastRewardBlock;  // Last block number that oreos distribution occurs.\n        uint256 accoreoPerShare; // Accumulated oreos per share, times 1e12. See below.\n    }\n\n    // The OREO TOKEN!\n    OreoToken public oreo;\n\n    // The MILK TOKEN!\n    MilkBar public milk;\n\n    // Dev address.\n    address public devaddr; // multisig address\n\n    // OREO tokens created per block.\n    uint256 public oreoPerBlock;\n\n    // Bonus muliplier for early oreo makers.\n    uint256 public BONUS_MULTIPLIER = 1;\n\n    // The migrator contract. It has a lot of power. Can only be set through governance (owner).\n    // IMigratorChef public migrator;\n\n    // Info of each pool.\n    PoolInfo[] public poolInfo;\n\n    // Info of each user that stakes LP tokens.\n    mapping (uint256 => mapping (address => UserInfo)) public userInfo;\n\n    // Total allocation points. Must be the sum of all allocation points in all pools.\n    uint256 public totalAllocPoint = 0;\n\n    // The block number when OREO mining starts.\n    uint256 public startBlock;\n\n    event Deposit(address indexed user, uint256 indexed pid, uint256 amount);\n    event Withdraw(address indexed user, uint256 indexed pid, uint256 amount);\n    event EmergencyWithdraw(address indexed user, uint256 indexed pid, uint256 amount);\n\n    constructor(\n        OreoToken _oreo,\n        MilkBar _milk,\n        address _devaddr,\n        uint256 _oreoPerBlock,\n        uint256 _startBlock){\n            oreo = _oreo;\n            milk = _milk;\n            devaddr = _devaddr;\n            oreoPerBlock = _oreoPerBlock;\n            startBlock = _startBlock;\n\n            // staking pool\n            poolInfo.push(PoolInfo({\n                lpToken: _oreo,\n                allocPoint: 1000,\n                lastRewardBlock: startBlock,\n                accoreoPerShare: 0\n            }));\n\n            totalAllocPoint = 1000;\n\n    }\n\n    function updateMultiplier(uint256 multiplierNumber) public onlyOwner {\n        BONUS_MULTIPLIER = multiplierNumber;\n    }\n\n    function poolLength() external view returns (uint256) {\n        return poolInfo.length;\n    }\n\n    // Add a new lp to the pool. Can only be called by the owner.\n    // XXX DO NOT add the same LP token more than once. Rewards will be messed up if you do.\n    function add(uint256 _allocPoint, IBEP20 _lpToken, bool _withUpdate) public onlyOwner {\n        if (_withUpdate) {\n            massUpdatePools();\n        }\n        uint256 lastRewardBlock = block.number > startBlock ? block.number : startBlock;\n        totalAllocPoint = totalAllocPoint.add(_allocPoint);\n        poolInfo.push(PoolInfo({\n            lpToken: _lpToken,\n            allocPoint: _allocPoint,\n            lastRewardBlock: lastRewardBlock,\n            accoreoPerShare: 0\n        }));\n        updateStakingPool();\n    }\n\n    // Update the given pool's oreo allocation point. Can only be called by the owner.\n    function set(uint256 _pid, uint256 _allocPoint, bool _withUpdate) public onlyOwner {\n        if (_withUpdate) {\n            massUpdatePools();\n        }\n        uint256 prevAllocPoint = poolInfo[_pid].allocPoint;\n        poolInfo[_pid].allocPoint = _allocPoint;\n        if (prevAllocPoint != _allocPoint) {\n            totalAllocPoint = totalAllocPoint.sub(prevAllocPoint).add(_allocPoint);\n            updateStakingPool();\n        }\n    }\n\n    function updateStakingPool() internal {\n        uint256 length = poolInfo.length;\n        uint256 points = 0;\n        for (uint256 pid = 1; pid < length; ++pid) {\n            points = points.add(poolInfo[pid].allocPoint);\n        }\n        if (points != 0) {\n            points = points.div(3);\n            totalAllocPoint = totalAllocPoint.sub(poolInfo[0].allocPoint).add(points);\n            poolInfo[0].allocPoint = points;\n        }\n    }\n\n    // // Set the migrator contract. Can only be called by the owner.\n    // function setMigrator(IMigratorChef _migrator) public onlyOwner {\n    //     migrator = _migrator;\n    // }\n\n    // // Migrate lp token to another lp contract. Can be called by anyone. We trust that migrator contract is good.\n    // function migrate(uint256 _pid) public {\n    //     require(address(migrator) != address(0), \"migrate: no migrator\");\n    //     PoolInfo storage pool = poolInfo[_pid];\n    //     IBEP20 lpToken = pool.lpToken;\n    //     uint256 bal = lpToken.balanceOf(address(this));\n    //     lpToken.safeApprove(address(migrator), bal);\n    //     IBEP20 newLpToken = migrator.migrate(lpToken); // < =================== This is confusing. There's a bug here (Bob)\n    //     require(bal == newLpToken.balanceOf(address(this)), \"migrate: bad\");\n    //     pool.lpToken = newLpToken;\n    // }\n\n    // Return reward multiplier over the given _from to _to block.\n    function getMultiplier(uint256 _from, uint256 _to) public view returns (uint256) {\n        return _to.sub(_from).mul(BONUS_MULTIPLIER);\n    }\n\n    // View function to see pending oreos on frontend.\n    function pendingOreo(uint256 _pid, address _user) external view returns (uint256) {\n        PoolInfo storage pool = poolInfo[_pid];\n        UserInfo storage user = userInfo[_pid][_user];\n        uint256 accoreoPerShare = pool.accoreoPerShare;\n        uint256 lpSupply = pool.lpToken.balanceOf(address(this));\n        if (block.number > pool.lastRewardBlock && lpSupply != 0) {\n            uint256 multiplier = getMultiplier(pool.lastRewardBlock, block.number);\n            uint256 oreoReward = multiplier.mul(oreoPerBlock).mul(pool.allocPoint).div(totalAllocPoint);\n            accoreoPerShare = accoreoPerShare.add(oreoReward.mul(1e12).div(lpSupply));\n        }\n        return user.amount.mul(accoreoPerShare).div(1e12).sub(user.rewardDebt);\n    }\n\n    // Update reward variables for all pools. Be careful of gas spending!\n    function massUpdatePools() public {\n        uint256 length = poolInfo.length;\n        for (uint256 pid = 0; pid < length; ++pid) {\n            updatePool(pid);\n        }\n    }\n\n\n    // Update reward variables of the given pool to be up-to-date.\n    function updatePool(uint256 _pid) public {\n        PoolInfo storage pool = poolInfo[_pid];\n        if (block.number <= pool.lastRewardBlock) {\n            return;\n        }\n        uint256 lpSupply = pool.lpToken.balanceOf(address(this));\n        if (lpSupply == 0) {\n            pool.lastRewardBlock = block.number;\n            return;\n        }\n        uint256 multiplier = getMultiplier(pool.lastRewardBlock, block.number);\n        uint256 oreoReward = multiplier.mul(oreoPerBlock).mul(pool.allocPoint).div(totalAllocPoint);\n        oreo.mint(devaddr, oreoReward.div(10));\n        oreo.mint(address(milk), oreoReward);\n        pool.accoreoPerShare = pool.accoreoPerShare.add(oreoReward.mul(1e12).div(lpSupply));\n        pool.lastRewardBlock = block.number;\n    }\n\n    // Deposit LP tokens to PastryChef for oreo allocation.\n    function deposit(uint256 _pid, uint256 _amount) public {\n\n        require (_pid != 0, 'deposit oreo by staking');\n\n        PoolInfo storage pool = poolInfo[_pid];\n        UserInfo storage user = userInfo[_pid][msg.sender];\n        updatePool(_pid);\n        if (user.amount > 0) {\n            uint256 pending = user.amount.mul(pool.accoreoPerShare).div(1e12).sub(user.rewardDebt);\n            if(pending > 0) {\n                safeoreoTransfer(msg.sender, pending);\n            }\n        }\n        if (_amount > 0) {\n            pool.lpToken.safeTransferFrom(address(msg.sender), address(this), _amount);\n            user.amount = user.amount.add(_amount);\n        }\n        user.rewardDebt = user.amount.mul(pool.accoreoPerShare).div(1e12);\n        emit Deposit(msg.sender, _pid, _amount);\n    }\n\n    // Withdraw LP tokens from MasterChef.\n    function withdraw(uint256 _pid, uint256 _amount) public {\n\n        require (_pid != 0, 'withdraw oreo by unstaking');\n        PoolInfo storage pool = poolInfo[_pid];\n        UserInfo storage user = userInfo[_pid][msg.sender];\n        require(user.amount >= _amount, \"withdraw: not good\");\n\n        updatePool(_pid);\n        uint256 pending = user.amount.mul(pool.accoreoPerShare).div(1e12).sub(user.rewardDebt);\n        if(pending > 0) {\n            safeoreoTransfer(msg.sender, pending);\n        }\n        if(_amount > 0) {\n            user.amount = user.amount.sub(_amount);\n            pool.lpToken.safeTransfer(address(msg.sender), _amount);\n        }\n        user.rewardDebt = user.amount.mul(pool.accoreoPerShare).div(1e12);\n        emit Withdraw(msg.sender, _pid, _amount);\n    }\n\n    // Stake oreo tokens to MasterChef\n    function enterStaking(uint256 _amount) public {\n        PoolInfo storage pool = poolInfo[0];\n        UserInfo storage user = userInfo[0][msg.sender];\n        updatePool(0);\n        if (user.amount > 0) {\n            uint256 pending = user.amount.mul(pool.accoreoPerShare).div(1e12).sub(user.rewardDebt);\n            if(pending > 0) {\n                safeoreoTransfer(msg.sender, pending);\n            }\n        }\n        if(_amount > 0) {\n            pool.lpToken.safeTransferFrom(address(msg.sender), address(this), _amount);\n            user.amount = user.amount.add(_amount);\n        }\n        user.rewardDebt = user.amount.mul(pool.accoreoPerShare).div(1e12);\n\n        milk.mint(msg.sender, _amount);\n        emit Deposit(msg.sender, 0, _amount);\n    }\n\n    // Withdraw oreo tokens from STAKING.\n    function leaveStaking(uint256 _amount) public {\n        PoolInfo storage pool = poolInfo[0];\n        UserInfo storage user = userInfo[0][msg.sender];\n        require(user.amount >= _amount, \"withdraw: not good\");\n        updatePool(0);\n        uint256 pending = user.amount.mul(pool.accoreoPerShare).div(1e12).sub(user.rewardDebt);\n        if(pending > 0) {\n            safeoreoTransfer(msg.sender, pending);\n        }\n        if(_amount > 0) {\n            user.amount = user.amount.sub(_amount);\n            pool.lpToken.safeTransfer(address(msg.sender), _amount);\n        }\n        user.rewardDebt = user.amount.mul(pool.accoreoPerShare).div(1e12);\n\n        milk.burn(msg.sender, _amount);\n        emit Withdraw(msg.sender, 0, _amount);\n    }\n\n    // Withdraw without caring about rewards. EMERGENCY ONLY.\n    function emergencyWithdraw(uint256 _pid) public {\n        PoolInfo storage pool = poolInfo[_pid];\n        UserInfo storage user = userInfo[_pid][msg.sender];\n        pool.lpToken.safeTransfer(address(msg.sender), user.amount);\n        emit EmergencyWithdraw(msg.sender, _pid, user.amount);\n        user.amount = 0;\n        user.rewardDebt = 0;\n    }\n\n    // Safe oreo transfer function, just in case if rounding error causes pool to not have enough oreos.\n    function safeoreoTransfer(address _to, uint256 _amount) internal {\n        milk.safeoreoTransfer(_to, _amount);\n    }\n\n    // Update dev address by the previous dev.\n    function dev(address _devaddr) public {\n        require(msg.sender == devaddr, \"dev: wut?\");\n        devaddr = _devaddr;\n    }\n}\n",
  "sourcePath": "/home/emplugxm3/applications/oreoswapv1-farm-core/contracts/PastryChef.sol",
  "compiler": {
    "name": "solc",
    "version": "0.8.8+commit.dddeac2f.Emscripten.clang"
  },
  "schemaVersion": "3.4.1",
  "updatedAt": "2021-09-29T12:30:18.423Z",
  "devdoc": {
    "kind": "dev",
    "methods": {
      "owner()": {
        "details": "Returns the address of the current owner."
      },
      "renounceOwnership()": {
        "details": "Leaves the contract without owner. It will not be possible to call `onlyOwner` functions anymore. Can only be called by the current owner. NOTE: Renouncing ownership will leave the contract without an owner, thereby removing any functionality that is only available to the owner."
      },
      "transferOwnership(address)": {
        "details": "Transfers ownership of the contract to a new account (`newOwner`). Can only be called by the current owner."
      }
    },
    "version": 1
  },
  "userdoc": {
    "kind": "user",
    "methods": {},
    "version": 1
  }
}