{
  "contractName": "PastryChef",
  "abi": [
    {
      "inputs": [
        {
          "internalType": "contract OreoToken",
          "name": "_oreo",
          "type": "address"
        },
        {
          "internalType": "contract MilkBar",
          "name": "_milk",
          "type": "address"
        },
        {
          "internalType": "address",
          "name": "_devaddr",
          "type": "address"
        },
        {
          "internalType": "uint256",
          "name": "_oreoPerBlock",
          "type": "uint256"
        },
        {
          "internalType": "uint256",
          "name": "_startBlock",
          "type": "uint256"
        }
      ],
      "stateMutability": "nonpayable",
      "type": "constructor"
    },
    {
      "anonymous": false,
      "inputs": [
        {
          "indexed": true,
          "internalType": "address",
          "name": "user",
          "type": "address"
        },
        {
          "indexed": true,
          "internalType": "uint256",
          "name": "pid",
          "type": "uint256"
        },
        {
          "indexed": false,
          "internalType": "uint256",
          "name": "amount",
          "type": "uint256"
        }
      ],
      "name": "Deposit",
      "type": "event"
    },
    {
      "anonymous": false,
      "inputs": [
        {
          "indexed": true,
          "internalType": "address",
          "name": "user",
          "type": "address"
        },
        {
          "indexed": true,
          "internalType": "uint256",
          "name": "pid",
          "type": "uint256"
        },
        {
          "indexed": false,
          "internalType": "uint256",
          "name": "amount",
          "type": "uint256"
        }
      ],
      "name": "EmergencyWithdraw",
      "type": "event"
    },
    {
      "anonymous": false,
      "inputs": [
        {
          "indexed": true,
          "internalType": "address",
          "name": "previousOwner",
          "type": "address"
        },
        {
          "indexed": true,
          "internalType": "address",
          "name": "newOwner",
          "type": "address"
        }
      ],
      "name": "OwnershipTransferred",
      "type": "event"
    },
    {
      "anonymous": false,
      "inputs": [
        {
          "indexed": true,
          "internalType": "address",
          "name": "user",
          "type": "address"
        },
        {
          "indexed": true,
          "internalType": "uint256",
          "name": "pid",
          "type": "uint256"
        },
        {
          "indexed": false,
          "internalType": "uint256",
          "name": "amount",
          "type": "uint256"
        }
      ],
      "name": "Withdraw",
      "type": "event"
    },
    {
      "inputs": [],
      "name": "BONUS_MULTIPLIER",
      "outputs": [
        {
          "internalType": "uint256",
          "name": "",
          "type": "uint256"
        }
      ],
      "stateMutability": "view",
      "type": "function"
    },
    {
      "inputs": [],
      "name": "devaddr",
      "outputs": [
        {
          "internalType": "address",
          "name": "",
          "type": "address"
        }
      ],
      "stateMutability": "view",
      "type": "function"
    },
    {
      "inputs": [],
      "name": "migrator",
      "outputs": [
        {
          "internalType": "contract IMigratorChef",
          "name": "",
          "type": "address"
        }
      ],
      "stateMutability": "view",
      "type": "function"
    },
    {
      "inputs": [],
      "name": "milk",
      "outputs": [
        {
          "internalType": "contract MilkBar",
          "name": "",
          "type": "address"
        }
      ],
      "stateMutability": "view",
      "type": "function"
    },
    {
      "inputs": [],
      "name": "oreo",
      "outputs": [
        {
          "internalType": "contract OreoToken",
          "name": "",
          "type": "address"
        }
      ],
      "stateMutability": "view",
      "type": "function"
    },
    {
      "inputs": [],
      "name": "oreoPerBlock",
      "outputs": [
        {
          "internalType": "uint256",
          "name": "",
          "type": "uint256"
        }
      ],
      "stateMutability": "view",
      "type": "function"
    },
    {
      "inputs": [],
      "name": "owner",
      "outputs": [
        {
          "internalType": "address",
          "name": "",
          "type": "address"
        }
      ],
      "stateMutability": "view",
      "type": "function"
    },
    {
      "inputs": [
        {
          "internalType": "uint256",
          "name": "",
          "type": "uint256"
        }
      ],
      "name": "poolInfo",
      "outputs": [
        {
          "internalType": "contract IBEP20",
          "name": "lpToken",
          "type": "address"
        },
        {
          "internalType": "uint256",
          "name": "allocPoint",
          "type": "uint256"
        },
        {
          "internalType": "uint256",
          "name": "lastRewardBlock",
          "type": "uint256"
        },
        {
          "internalType": "uint256",
          "name": "accoreoPerShare",
          "type": "uint256"
        }
      ],
      "stateMutability": "view",
      "type": "function"
    },
    {
      "inputs": [],
      "name": "renounceOwnership",
      "outputs": [],
      "stateMutability": "nonpayable",
      "type": "function"
    },
    {
      "inputs": [],
      "name": "startBlock",
      "outputs": [
        {
          "internalType": "uint256",
          "name": "",
          "type": "uint256"
        }
      ],
      "stateMutability": "view",
      "type": "function"
    },
    {
      "inputs": [],
      "name": "totalAllocPoint",
      "outputs": [
        {
          "internalType": "uint256",
          "name": "",
          "type": "uint256"
        }
      ],
      "stateMutability": "view",
      "type": "function"
    },
    {
      "inputs": [
        {
          "internalType": "address",
          "name": "newOwner",
          "type": "address"
        }
      ],
      "name": "transferOwnership",
      "outputs": [],
      "stateMutability": "nonpayable",
      "type": "function"
    },
    {
      "inputs": [
        {
          "internalType": "uint256",
          "name": "",
          "type": "uint256"
        },
        {
          "internalType": "address",
          "name": "",
          "type": "address"
        }
      ],
      "name": "userInfo",
      "outputs": [
        {
          "internalType": "uint256",
          "name": "amount",
          "type": "uint256"
        },
        {
          "internalType": "uint256",
          "name": "rewardDebt",
          "type": "uint256"
        }
      ],
      "stateMutability": "view",
      "type": "function"
    },
    {
      "inputs": [
        {
          "internalType": "uint256",
          "name": "multiplierNumber",
          "type": "uint256"
        }
      ],
      "name": "updateMultiplier",
      "outputs": [],
      "stateMutability": "nonpayable",
      "type": "function"
    },
    {
      "inputs": [],
      "name": "poolLength",
      "outputs": [
        {
          "internalType": "uint256",
          "name": "",
          "type": "uint256"
        }
      ],
      "stateMutability": "view",
      "type": "function"
    },
    {
      "inputs": [
        {
          "internalType": "uint256",
          "name": "_allocPoint",
          "type": "uint256"
        },
        {
          "internalType": "contract IBEP20",
          "name": "_lpToken",
          "type": "address"
        },
        {
          "internalType": "bool",
          "name": "_withUpdate",
          "type": "bool"
        }
      ],
      "name": "add",
      "outputs": [],
      "stateMutability": "nonpayable",
      "type": "function"
    },
    {
      "inputs": [
        {
          "internalType": "uint256",
          "name": "_pid",
          "type": "uint256"
        },
        {
          "internalType": "uint256",
          "name": "_allocPoint",
          "type": "uint256"
        },
        {
          "internalType": "bool",
          "name": "_withUpdate",
          "type": "bool"
        }
      ],
      "name": "set",
      "outputs": [],
      "stateMutability": "nonpayable",
      "type": "function"
    },
    {
      "inputs": [
        {
          "internalType": "contract IMigratorChef",
          "name": "_migrator",
          "type": "address"
        }
      ],
      "name": "setMigrator",
      "outputs": [],
      "stateMutability": "nonpayable",
      "type": "function"
    },
    {
      "inputs": [
        {
          "internalType": "uint256",
          "name": "_pid",
          "type": "uint256"
        }
      ],
      "name": "migrate",
      "outputs": [],
      "stateMutability": "nonpayable",
      "type": "function"
    },
    {
      "inputs": [
        {
          "internalType": "uint256",
          "name": "_from",
          "type": "uint256"
        },
        {
          "internalType": "uint256",
          "name": "_to",
          "type": "uint256"
        }
      ],
      "name": "getMultiplier",
      "outputs": [
        {
          "internalType": "uint256",
          "name": "",
          "type": "uint256"
        }
      ],
      "stateMutability": "view",
      "type": "function"
    },
    {
      "inputs": [
        {
          "internalType": "uint256",
          "name": "_pid",
          "type": "uint256"
        },
        {
          "internalType": "address",
          "name": "_user",
          "type": "address"
        }
      ],
      "name": "pendingOreo",
      "outputs": [
        {
          "internalType": "uint256",
          "name": "",
          "type": "uint256"
        }
      ],
      "stateMutability": "view",
      "type": "function"
    },
    {
      "inputs": [],
      "name": "massUpdatePools",
      "outputs": [],
      "stateMutability": "nonpayable",
      "type": "function"
    },
    {
      "inputs": [
        {
          "internalType": "uint256",
          "name": "_pid",
          "type": "uint256"
        }
      ],
      "name": "updatePool",
      "outputs": [],
      "stateMutability": "nonpayable",
      "type": "function"
    },
    {
      "inputs": [
        {
          "internalType": "uint256",
          "name": "_pid",
          "type": "uint256"
        },
        {
          "internalType": "uint256",
          "name": "_amount",
          "type": "uint256"
        }
      ],
      "name": "deposit",
      "outputs": [],
      "stateMutability": "nonpayable",
      "type": "function"
    },
    {
      "inputs": [
        {
          "internalType": "uint256",
          "name": "_pid",
          "type": "uint256"
        },
        {
          "internalType": "uint256",
          "name": "_amount",
          "type": "uint256"
        }
      ],
      "name": "withdraw",
      "outputs": [],
      "stateMutability": "nonpayable",
      "type": "function"
    },
    {
      "inputs": [
        {
          "internalType": "uint256",
          "name": "_amount",
          "type": "uint256"
        }
      ],
      "name": "enterStaking",
      "outputs": [],
      "stateMutability": "nonpayable",
      "type": "function"
    },
    {
      "inputs": [
        {
          "internalType": "uint256",
          "name": "_amount",
          "type": "uint256"
        }
      ],
      "name": "leaveStaking",
      "outputs": [],
      "stateMutability": "nonpayable",
      "type": "function"
    },
    {
      "inputs": [
        {
          "internalType": "uint256",
          "name": "_pid",
          "type": "uint256"
        }
      ],
      "name": "emergencyWithdraw",
      "outputs": [],
      "stateMutability": "nonpayable",
      "type": "function"
    },
    {
      "inputs": [
        {
          "internalType": "address",
          "name": "_devaddr",
          "type": "address"
        }
      ],
      "name": "dev",
      "outputs": [],
      "stateMutability": "nonpayable",
      "type": "function"
    }
  ],
  "bytecode": "0x6080604052600160055560006009553480156200001b57600080fd5b5060405162003ff938038062003ff9833981810160405281019062000041919062000308565b600062000053620002a460201b60201c565b9050806000806101000a81548173ffffffffffffffffffffffffffffffffffffffff021916908373ffffffffffffffffffffffffffffffffffffffff1602179055508073ffffffffffffffffffffffffffffffffffffffff16600073ffffffffffffffffffffffffffffffffffffffff167f8be0079c531659141344cd1fd0a4f28419497f9722a3daafe3b4186f6b6457e060405160405180910390a35084600160006101000a81548173ffffffffffffffffffffffffffffffffffffffff021916908373ffffffffffffffffffffffffffffffffffffffff16021790555083600260006101000a81548173ffffffffffffffffffffffffffffffffffffffff021916908373ffffffffffffffffffffffffffffffffffffffff16021790555082600360006101000a81548173ffffffffffffffffffffffffffffffffffffffff021916908373ffffffffffffffffffffffffffffffffffffffff1602179055508160048190555080600a81905550600760405180608001604052808773ffffffffffffffffffffffffffffffffffffffff1681526020016103e88152602001600a5481526020016000815250908060018154018082558091505060019003906000526020600020906004020160009091909190915060008201518160000160006101000a81548173ffffffffffffffffffffffffffffffffffffffff021916908373ffffffffffffffffffffffffffffffffffffffff16021790555060208201518160010155604082015181600201556060820151816003015550506103e8600981905550505050505062000463565b600033905090565b600081519050620002bd81620003fb565b92915050565b600081519050620002d48162000415565b92915050565b600081519050620002eb816200042f565b92915050565b600081519050620003028162000449565b92915050565b600080600080600060a08688031215620003275762000326620003f6565b5b60006200033788828901620002da565b95505060206200034a88828901620002c3565b94505060406200035d88828901620002ac565b93505060606200037088828901620002f1565b92505060806200038388828901620002f1565b9150509295509295909350565b60006200039d82620003cc565b9050919050565b6000620003b18262000390565b9050919050565b6000620003c58262000390565b9050919050565b600073ffffffffffffffffffffffffffffffffffffffff82169050919050565b6000819050919050565b600080fd5b620004068162000390565b81146200041257600080fd5b50565b6200042081620003a4565b81146200042c57600080fd5b50565b6200043a81620003b8565b81146200044657600080fd5b50565b6200045481620003ec565b81146200046057600080fd5b50565b613b8680620004736000396000f3fe608060405234801561001057600080fd5b50600436106101cf5760003560e01c8063630b5ba1116101045780638d88a90e116100a2578063d49e77cd11610071578063d49e77cd146104d0578063dbf8b168146104ee578063e2bbb1581461050c578063f2fde38b14610528576101cf565b80638d88a90e146104355780638da5cb5b146104515780638dbb1e3a1461046f57806393f1a40b1461049f576101cf565b8063715018a6116100de578063715018a6146103bf5780637cd07e47146103c95780638aa28550146103e75780638ac3062214610405576101cf565b8063630b5ba11461037b57806364482f79146103855780636475d583146103a1576101cf565b806341441d3b1161017157806348cd4cb11161014b57806348cd4cb11461030957806351eb05a6146103275780635312ea8e146103435780635ffe61461461035f576101cf565b806341441d3b146102b5578063441a3e70146102d1578063454b0608146102ed576101cf565b80631526fe27116101ad5780631526fe271461022c57806317caf6f11461025f5780631eaaa0451461027d57806323cf311814610299576101cf565b8063081e3eda146101d45780630abefeb1146101f25780631058d28114610210575b600080fd5b6101dc610544565b6040516101e991906134ae565b60405180910390f35b6101fa610551565b60405161020791906134ae565b60405180910390f35b61022a60048036038101906102259190612d75565b610557565b005b61024660048036038101906102419190612d75565b61081a565b6040516102569493929190613256565b60405180910390f35b61026761087a565b60405161027491906134ae565b60405180910390f35b61029760048036038101906102929190612e0f565b610880565b005b6102b360048036038101906102ae9190612d48565b610a2e565b005b6102cf60048036038101906102ca9190612d75565b610b07565b005b6102eb60048036038101906102e69190612e62565b610d93565b005b61030760048036038101906103029190612d75565b611009565b005b610311611389565b60405161031e91906134ae565b60405180910390f35b610341600480360381019061033c9190612d75565b61138f565b005b61035d60048036038101906103589190612d75565b6116b3565b005b61037960048036038101906103749190612d75565b6117ec565b005b61038361188b565b005b61039f600480360381019061039a9190612ea2565b6118be565b005b6103a96119f9565b6040516103b691906132d1565b60405180910390f35b6103c7611a1f565b005b6103d1611b72565b6040516103de919061329b565b60405180910390f35b6103ef611b98565b6040516103fc91906134ae565b60405180910390f35b61041f600480360381019061041a9190612dcf565b611b9e565b60405161042c91906134ae565b60405180910390f35b61044f600480360381019061044a9190612cc1565b611dd2565b005b610459611ea6565b6040516104669190613197565b60405180910390f35b61048960048036038101906104849190612e62565b611ecf565b60405161049691906134ae565b60405180910390f35b6104b960048036038101906104b49190612dcf565b611f00565b6040516104c79291906134c9565b60405180910390f35b6104d8611f31565b6040516104e59190613197565b60405180910390f35b6104f6611f57565b60405161050391906132b6565b60405180910390f35b61052660048036038101906105219190612e62565b611f7d565b005b610542600480360381019061053d9190612cc1565b6121bc565b005b6000600780549050905090565b60045481565b6000600760008154811061056e5761056d6137eb565b5b9060005260206000209060040201905060006008600080815260200190815260200160002060003373ffffffffffffffffffffffffffffffffffffffff1673ffffffffffffffffffffffffffffffffffffffff16815260200190815260200160002090508281600001541015610619576040517f08c379a00000000000000000000000000000000000000000000000000000000081526004016106109061344e565b60405180910390fd5b610623600061138f565b600061066d826001015461065f64e8d4a510006106518760030154876000015461225d90919063ffffffff16565b6122d890919063ffffffff16565b61232290919063ffffffff16565b9050600081111561068357610682338261236c565b5b60008411156106fb576106a384836000015461232290919063ffffffff16565b82600001819055506106fa33858560000160009054906101000a900473ffffffffffffffffffffffffffffffffffffffff1673ffffffffffffffffffffffffffffffffffffffff166123ff9092919063ffffffff16565b5b61072d64e8d4a5100061071f8560030154856000015461225d90919063ffffffff16565b6122d890919063ffffffff16565b8260010181905550600260009054906101000a900473ffffffffffffffffffffffffffffffffffffffff1673ffffffffffffffffffffffffffffffffffffffff16639dc29fac33866040518363ffffffff1660e01b8152600401610792929190613212565b600060405180830381600087803b1580156107ac57600080fd5b505af11580156107c0573d6000803e3d6000fd5b5050505060003373ffffffffffffffffffffffffffffffffffffffff167ff279e6a1f5e320cca91135676d9cb6e44ca8a08c0b88342bcdb1144f6511b5688660405161080c91906134ae565b60405180910390a350505050565b6007818154811061082a57600080fd5b90600052602060002090600402016000915090508060000160009054906101000a900473ffffffffffffffffffffffffffffffffffffffff16908060010154908060020154908060030154905084565b60095481565b610888612485565b73ffffffffffffffffffffffffffffffffffffffff1660008054906101000a900473ffffffffffffffffffffffffffffffffffffffff1673ffffffffffffffffffffffffffffffffffffffff1614610915576040517f08c379a000000000000000000000000000000000000000000000000000000000815260040161090c906133ee565b60405180910390fd5b80156109245761092361188b565b5b6000600a54431161093757600a54610939565b435b90506109508460095461248d90919063ffffffff16565b600981905550600760405180608001604052808573ffffffffffffffffffffffffffffffffffffffff1681526020018681526020018381526020016000815250908060018154018082558091505060019003906000526020600020906004020160009091909190915060008201518160000160006101000a81548173ffffffffffffffffffffffffffffffffffffffff021916908373ffffffffffffffffffffffffffffffffffffffff1602179055506020820151816001015560408201518160020155606082015181600301555050610a286124eb565b50505050565b610a36612485565b73ffffffffffffffffffffffffffffffffffffffff1660008054906101000a900473ffffffffffffffffffffffffffffffffffffffff1673ffffffffffffffffffffffffffffffffffffffff1614610ac3576040517f08c379a0000000000000000000000000000000000000000000000000000000008152600401610aba906133ee565b60405180910390fd5b80600660006101000a81548173ffffffffffffffffffffffffffffffffffffffff021916908373ffffffffffffffffffffffffffffffffffffffff16021790555050565b60006007600081548110610b1e57610b1d6137eb565b5b9060005260206000209060040201905060006008600080815260200190815260200160002060003373ffffffffffffffffffffffffffffffffffffffff1673ffffffffffffffffffffffffffffffffffffffff1681526020019081526020016000209050610b8c600061138f565b600081600001541115610bfb576000610be38260010154610bd564e8d4a51000610bc78760030154876000015461225d90919063ffffffff16565b6122d890919063ffffffff16565b61232290919063ffffffff16565b90506000811115610bf957610bf8338261236c565b5b505b6000831115610c7557610c553330858560000160009054906101000a900473ffffffffffffffffffffffffffffffffffffffff1673ffffffffffffffffffffffffffffffffffffffff166125f2909392919063ffffffff16565b610c6c83826000015461248d90919063ffffffff16565b81600001819055505b610ca764e8d4a51000610c998460030154846000015461225d90919063ffffffff16565b6122d890919063ffffffff16565b8160010181905550600260009054906101000a900473ffffffffffffffffffffffffffffffffffffffff1673ffffffffffffffffffffffffffffffffffffffff166340c10f1933856040518363ffffffff1660e01b8152600401610d0c929190613212565b600060405180830381600087803b158015610d2657600080fd5b505af1158015610d3a573d6000803e3d6000fd5b5050505060003373ffffffffffffffffffffffffffffffffffffffff167f90890809c654f11d6e72a28fa60149770a0d11ec6c92319d6ceb2bb0a4ea1a1585604051610d8691906134ae565b60405180910390a3505050565b6000821415610dd7576040517f08c379a0000000000000000000000000000000000000000000000000000000008152600401610dce9061340e565b60405180910390fd5b600060078381548110610ded57610dec6137eb565b5b9060005260206000209060040201905060006008600085815260200190815260200160002060003373ffffffffffffffffffffffffffffffffffffffff1673ffffffffffffffffffffffffffffffffffffffff16815260200190815260200160002090508281600001541015610e98576040517f08c379a0000000000000000000000000000000000000000000000000000000008152600401610e8f9061344e565b60405180910390fd5b610ea18461138f565b6000610eeb8260010154610edd64e8d4a51000610ecf8760030154876000015461225d90919063ffffffff16565b6122d890919063ffffffff16565b61232290919063ffffffff16565b90506000811115610f0157610f00338261236c565b5b6000841115610f7957610f2184836000015461232290919063ffffffff16565b8260000181905550610f7833858560000160009054906101000a900473ffffffffffffffffffffffffffffffffffffffff1673ffffffffffffffffffffffffffffffffffffffff166123ff9092919063ffffffff16565b5b610fab64e8d4a51000610f9d8560030154856000015461225d90919063ffffffff16565b6122d890919063ffffffff16565b8260010181905550843373ffffffffffffffffffffffffffffffffffffffff167ff279e6a1f5e320cca91135676d9cb6e44ca8a08c0b88342bcdb1144f6511b56886604051610ffa91906134ae565b60405180910390a35050505050565b600073ffffffffffffffffffffffffffffffffffffffff16600660009054906101000a900473ffffffffffffffffffffffffffffffffffffffff1673ffffffffffffffffffffffffffffffffffffffff16141561109b576040517f08c379a00000000000000000000000000000000000000000000000000000000081526004016110929061348e565b60405180910390fd5b6000600782815481106110b1576110b06137eb565b5b9060005260206000209060040201905060008160000160009054906101000a900473ffffffffffffffffffffffffffffffffffffffff16905060008173ffffffffffffffffffffffffffffffffffffffff166370a08231306040518263ffffffff1660e01b81526004016111259190613197565b60206040518083038186803b15801561113d57600080fd5b505afa158015611151573d6000803e3d6000fd5b505050506040513d601f19601f820116820180604052508101906111759190612da2565b90506111c4600660009054906101000a900473ffffffffffffffffffffffffffffffffffffffff16828473ffffffffffffffffffffffffffffffffffffffff1661267b9092919063ffffffff16565b6000600660009054906101000a900473ffffffffffffffffffffffffffffffffffffffff1673ffffffffffffffffffffffffffffffffffffffff1663ce5494bb846040518263ffffffff1660e01b8152600401611221919061323b565b602060405180830381600087803b15801561123b57600080fd5b505af115801561124f573d6000803e3d6000fd5b505050506040513d601f19601f820116820180604052508101906112739190612d1b565b90508073ffffffffffffffffffffffffffffffffffffffff166370a08231306040518263ffffffff1660e01b81526004016112ae9190613197565b60206040518083038186803b1580156112c657600080fd5b505afa1580156112da573d6000803e3d6000fd5b505050506040513d601f19601f820116820180604052508101906112fe9190612da2565b821461133f576040517f08c379a00000000000000000000000000000000000000000000000000000000081526004016113369061346e565b60405180910390fd5b808460000160006101000a81548173ffffffffffffffffffffffffffffffffffffffff021916908373ffffffffffffffffffffffffffffffffffffffff1602179055505050505050565b600a5481565b6000600782815481106113a5576113a46137eb565b5b90600052602060002090600402019050806002015443116113c657506116b0565b60008160000160009054906101000a900473ffffffffffffffffffffffffffffffffffffffff1673ffffffffffffffffffffffffffffffffffffffff166370a08231306040518263ffffffff1660e01b81526004016114259190613197565b60206040518083038186803b15801561143d57600080fd5b505afa158015611451573d6000803e3d6000fd5b505050506040513d601f19601f820116820180604052508101906114759190612da2565b905060008114156114905743826002018190555050506116b0565b60006114a0836002015443611ecf565b905060006114e36009546114d586600101546114c76004548761225d90919063ffffffff16565b61225d90919063ffffffff16565b6122d890919063ffffffff16565b9050600160009054906101000a900473ffffffffffffffffffffffffffffffffffffffff1673ffffffffffffffffffffffffffffffffffffffff166340c10f19600360009054906101000a900473ffffffffffffffffffffffffffffffffffffffff1661155a600a856122d890919063ffffffff16565b6040518363ffffffff1660e01b8152600401611577929190613212565b600060405180830381600087803b15801561159157600080fd5b505af11580156115a5573d6000803e3d6000fd5b50505050600160009054906101000a900473ffffffffffffffffffffffffffffffffffffffff1673ffffffffffffffffffffffffffffffffffffffff166340c10f19600260009054906101000a900473ffffffffffffffffffffffffffffffffffffffff16836040518363ffffffff1660e01b8152600401611628929190613212565b600060405180830381600087803b15801561164257600080fd5b505af1158015611656573d6000803e3d6000fd5b5050505061169a6116878461167964e8d4a510008561225d90919063ffffffff16565b6122d890919063ffffffff16565b856003015461248d90919063ffffffff16565b8460030181905550438460020181905550505050505b50565b6000600782815481106116c9576116c86137eb565b5b9060005260206000209060040201905060006008600084815260200190815260200160002060003373ffffffffffffffffffffffffffffffffffffffff1673ffffffffffffffffffffffffffffffffffffffff16815260200190815260200160002090506117803382600001548460000160009054906101000a900473ffffffffffffffffffffffffffffffffffffffff1673ffffffffffffffffffffffffffffffffffffffff166123ff9092919063ffffffff16565b823373ffffffffffffffffffffffffffffffffffffffff167fbb757047c2b5f3974fe26b7c10f732e7bce710b0952a71082702781e62ae059583600001546040516117cb91906134ae565b60405180910390a36000816000018190555060008160010181905550505050565b6117f4612485565b73ffffffffffffffffffffffffffffffffffffffff1660008054906101000a900473ffffffffffffffffffffffffffffffffffffffff1673ffffffffffffffffffffffffffffffffffffffff1614611881576040517f08c379a0000000000000000000000000000000000000000000000000000000008152600401611878906133ee565b60405180910390fd5b8060058190555050565b6000600780549050905060005b818110156118ba576118a98161138f565b806118b390613744565b9050611898565b5050565b6118c6612485565b73ffffffffffffffffffffffffffffffffffffffff1660008054906101000a900473ffffffffffffffffffffffffffffffffffffffff1673ffffffffffffffffffffffffffffffffffffffff1614611953576040517f08c379a000000000000000000000000000000000000000000000000000000000815260040161194a906133ee565b60405180910390fd5b80156119625761196161188b565b5b600060078481548110611978576119776137eb565b5b906000526020600020906004020160010154905082600785815481106119a1576119a06137eb565b5b9060005260206000209060040201600101819055508281146119f3576119e4836119d68360095461232290919063ffffffff16565b61248d90919063ffffffff16565b6009819055506119f26124eb565b5b50505050565b600160009054906101000a900473ffffffffffffffffffffffffffffffffffffffff1681565b611a27612485565b73ffffffffffffffffffffffffffffffffffffffff1660008054906101000a900473ffffffffffffffffffffffffffffffffffffffff1673ffffffffffffffffffffffffffffffffffffffff1614611ab4576040517f08c379a0000000000000000000000000000000000000000000000000000000008152600401611aab906133ee565b60405180910390fd5b600073ffffffffffffffffffffffffffffffffffffffff1660008054906101000a900473ffffffffffffffffffffffffffffffffffffffff1673ffffffffffffffffffffffffffffffffffffffff167f8be0079c531659141344cd1fd0a4f28419497f9722a3daafe3b4186f6b6457e060405160405180910390a360008060006101000a81548173ffffffffffffffffffffffffffffffffffffffff021916908373ffffffffffffffffffffffffffffffffffffffff160217905550565b600660009054906101000a900473ffffffffffffffffffffffffffffffffffffffff1681565b60055481565b60008060078481548110611bb557611bb46137eb565b5b9060005260206000209060040201905060006008600086815260200190815260200160002060008573ffffffffffffffffffffffffffffffffffffffff1673ffffffffffffffffffffffffffffffffffffffff168152602001908152602001600020905060008260030154905060008360000160009054906101000a900473ffffffffffffffffffffffffffffffffffffffff1673ffffffffffffffffffffffffffffffffffffffff166370a08231306040518263ffffffff1660e01b8152600401611c819190613197565b60206040518083038186803b158015611c9957600080fd5b505afa158015611cad573d6000803e3d6000fd5b505050506040513d601f19601f82011682018060405250810190611cd19190612da2565b9050836002015443118015611ce7575060008114155b15611d82576000611cfc856002015443611ecf565b90506000611d3f600954611d318860010154611d236004548761225d90919063ffffffff16565b61225d90919063ffffffff16565b6122d890919063ffffffff16565b9050611d7d611d6e84611d6064e8d4a510008561225d90919063ffffffff16565b6122d890919063ffffffff16565b8561248d90919063ffffffff16565b935050505b611dc68360010154611db864e8d4a51000611daa86886000015461225d90919063ffffffff16565b6122d890919063ffffffff16565b61232290919063ffffffff16565b94505050505092915050565b600360009054906101000a900473ffffffffffffffffffffffffffffffffffffffff1673ffffffffffffffffffffffffffffffffffffffff163373ffffffffffffffffffffffffffffffffffffffff1614611e62576040517f08c379a0000000000000000000000000000000000000000000000000000000008152600401611e599061338e565b60405180910390fd5b80600360006101000a81548173ffffffffffffffffffffffffffffffffffffffff021916908373ffffffffffffffffffffffffffffffffffffffff16021790555050565b60008060009054906101000a900473ffffffffffffffffffffffffffffffffffffffff16905090565b6000611ef8600554611eea858561232290919063ffffffff16565b61225d90919063ffffffff16565b905092915050565b6008602052816000526040600020602052806000526040600020600091509150508060000154908060010154905082565b600360009054906101000a900473ffffffffffffffffffffffffffffffffffffffff1681565b600260009054906101000a900473ffffffffffffffffffffffffffffffffffffffff1681565b6000821415611fc1576040517f08c379a0000000000000000000000000000000000000000000000000000000008152600401611fb89061336e565b60405180910390fd5b600060078381548110611fd757611fd66137eb565b5b9060005260206000209060040201905060006008600085815260200190815260200160002060003373ffffffffffffffffffffffffffffffffffffffff1673ffffffffffffffffffffffffffffffffffffffff16815260200190815260200160002090506120448461138f565b6000816000015411156120b357600061209b826001015461208d64e8d4a5100061207f8760030154876000015461225d90919063ffffffff16565b6122d890919063ffffffff16565b61232290919063ffffffff16565b905060008111156120b1576120b0338261236c565b5b505b600083111561212d5761210d3330858560000160009054906101000a900473ffffffffffffffffffffffffffffffffffffffff1673ffffffffffffffffffffffffffffffffffffffff166125f2909392919063ffffffff16565b61212483826000015461248d90919063ffffffff16565b81600001819055505b61215f64e8d4a510006121518460030154846000015461225d90919063ffffffff16565b6122d890919063ffffffff16565b8160010181905550833373ffffffffffffffffffffffffffffffffffffffff167f90890809c654f11d6e72a28fa60149770a0d11ec6c92319d6ceb2bb0a4ea1a15856040516121ae91906134ae565b60405180910390a350505050565b6121c4612485565b73ffffffffffffffffffffffffffffffffffffffff1660008054906101000a900473ffffffffffffffffffffffffffffffffffffffff1673ffffffffffffffffffffffffffffffffffffffff1614612251576040517f08c379a0000000000000000000000000000000000000000000000000000000008152600401612248906133ee565b60405180910390fd5b61225a816127d9565b50565b60008083141561227057600090506122d2565b6000828461227e91906135ab565b905082848261228d919061357a565b146122cd576040517f08c379a00000000000000000000000000000000000000000000000000000000081526004016122c4906133ae565b60405180910390fd5b809150505b92915050565b600061231a83836040518060400160405280601a81526020017f536166654d6174683a206469766973696f6e206279207a65726f000000000000815250612906565b905092915050565b600061236483836040518060400160405280601e81526020017f536166654d6174683a207375627472616374696f6e206f766572666c6f770000815250612969565b905092915050565b600260009054906101000a900473ffffffffffffffffffffffffffffffffffffffff1673ffffffffffffffffffffffffffffffffffffffff166391716cf783836040518363ffffffff1660e01b81526004016123c9929190613212565b600060405180830381600087803b1580156123e357600080fd5b505af11580156123f7573d6000803e3d6000fd5b505050505050565b6124808363a9059cbb60e01b848460405160240161241e929190613212565b604051602081830303815290604052907bffffffffffffffffffffffffffffffffffffffffffffffffffffffff19166020820180517bffffffffffffffffffffffffffffffffffffffffffffffffffffffff83818316178352505050506129cd565b505050565b600033905090565b600080828461249c9190613524565b9050838110156124e1576040517f08c379a00000000000000000000000000000000000000000000000000000000081526004016124d89061334e565b60405180910390fd5b8091505092915050565b60006007805490509050600080600190505b828110156125505761253d6007828154811061251c5761251b6137eb565b5b9060005260206000209060040201600101548361248d90919063ffffffff16565b91508061254990613744565b90506124fd565b50600081146125ee5761256d6003826122d890919063ffffffff16565b90506125bc816125ae600760008154811061258b5761258a6137eb565b5b90600052602060002090600402016001015460095461232290919063ffffffff16565b61248d90919063ffffffff16565b6009819055508060076000815481106125d8576125d76137eb565b5b9060005260206000209060040201600101819055505b5050565b612675846323b872dd60e01b858585604051602401612613939291906131db565b604051602081830303815290604052907bffffffffffffffffffffffffffffffffffffffffffffffffffffffff19166020820180517bffffffffffffffffffffffffffffffffffffffffffffffffffffffff83818316178352505050506129cd565b50505050565b6000811480612714575060008373ffffffffffffffffffffffffffffffffffffffff1663dd62ed3e30856040518363ffffffff1660e01b81526004016126c29291906131b2565b60206040518083038186803b1580156126da57600080fd5b505afa1580156126ee573d6000803e3d6000fd5b505050506040513d601f19601f820116820180604052508101906127129190612da2565b145b612753576040517f08c379a000000000000000000000000000000000000000000000000000000000815260040161274a906133ce565b60405180910390fd5b6127d48363095ea7b360e01b8484604051602401612772929190613212565b604051602081830303815290604052907bffffffffffffffffffffffffffffffffffffffffffffffffffffffff19166020820180517bffffffffffffffffffffffffffffffffffffffffffffffffffffffff83818316178352505050506129cd565b505050565b600073ffffffffffffffffffffffffffffffffffffffff168173ffffffffffffffffffffffffffffffffffffffff161415612849576040517f08c379a00000000000000000000000000000000000000000000000000000000081526004016128409061332e565b60405180910390fd5b8073ffffffffffffffffffffffffffffffffffffffff1660008054906101000a900473ffffffffffffffffffffffffffffffffffffffff1673ffffffffffffffffffffffffffffffffffffffff167f8be0079c531659141344cd1fd0a4f28419497f9722a3daafe3b4186f6b6457e060405160405180910390a3806000806101000a81548173ffffffffffffffffffffffffffffffffffffffff021916908373ffffffffffffffffffffffffffffffffffffffff16021790555050565b6000808311829061294d576040517f08c379a000000000000000000000000000000000000000000000000000000000815260040161294491906132ec565b60405180910390fd5b506000838561295c919061357a565b9050809150509392505050565b60008383111582906129b1576040517f08c379a00000000000000000000000000000000000000000000000000000000081526004016129a891906132ec565b60405180910390fd5b50600083856129c09190613605565b9050809150509392505050565b6000612a2f826040518060400160405280602081526020017f5361666542455032303a206c6f772d6c6576656c2063616c6c206661696c65648152508573ffffffffffffffffffffffffffffffffffffffff16612a949092919063ffffffff16565b9050600081511115612a8f5780806020019051810190612a4f9190612cee565b612a8e576040517f08c379a0000000000000000000000000000000000000000000000000000000008152600401612a859061330e565b60405180910390fd5b5b505050565b6060612aa38484600085612aac565b90509392505050565b6060612ab785612bce565b612af6576040517f08c379a0000000000000000000000000000000000000000000000000000000008152600401612aed9061342e565b60405180910390fd5b6000808673ffffffffffffffffffffffffffffffffffffffff168587604051612b1f9190613180565b60006040518083038185875af1925050503d8060008114612b5c576040519150601f19603f3d011682016040523d82523d6000602084013e612b61565b606091505b50915091508115612b76578092505050612bc6565b600081511115612b895780518082602001fd5b836040517f08c379a0000000000000000000000000000000000000000000000000000000008152600401612bbd91906132ec565b60405180910390fd5b949350505050565b60008060007fc5d2460186f7233c927e7db2dcc703c0e500b653ca82273b7bfad8045d85a47060001b9050833f9150808214158015612c1057506000801b8214155b92505050919050565b600081359050612c2881613add565b92915050565b600081359050612c3d81613af4565b92915050565b600081519050612c5281613af4565b92915050565b600081359050612c6781613b0b565b92915050565b600081519050612c7c81613b0b565b92915050565b600081359050612c9181613b22565b92915050565b600081359050612ca681613b39565b92915050565b600081519050612cbb81613b39565b92915050565b600060208284031215612cd757612cd661381a565b5b6000612ce584828501612c19565b91505092915050565b600060208284031215612d0457612d0361381a565b5b6000612d1284828501612c43565b91505092915050565b600060208284031215612d3157612d3061381a565b5b6000612d3f84828501612c6d565b91505092915050565b600060208284031215612d5e57612d5d61381a565b5b6000612d6c84828501612c82565b91505092915050565b600060208284031215612d8b57612d8a61381a565b5b6000612d9984828501612c97565b91505092915050565b600060208284031215612db857612db761381a565b5b6000612dc684828501612cac565b91505092915050565b60008060408385031215612de657612de561381a565b5b6000612df485828601612c97565b9250506020612e0585828601612c19565b9150509250929050565b600080600060608486031215612e2857612e2761381a565b5b6000612e3686828701612c97565b9350506020612e4786828701612c58565b9250506040612e5886828701612c2e565b9150509250925092565b60008060408385031215612e7957612e7861381a565b5b6000612e8785828601612c97565b9250506020612e9885828601612c97565b9150509250929050565b600080600060608486031215612ebb57612eba61381a565b5b6000612ec986828701612c97565b9350506020612eda86828701612c97565b9250506040612eeb86828701612c2e565b9150509250925092565b612efe81613639565b82525050565b6000612f0f826134f2565b612f198185613508565b9350612f29818560208601613711565b80840191505092915050565b612f3e816136a5565b82525050565b612f4d816136b7565b82525050565b612f5c816136c9565b82525050565b612f6b816136db565b82525050565b6000612f7c826134fd565b612f868185613513565b9350612f96818560208601613711565b612f9f8161381f565b840191505092915050565b6000612fb7602a83613513565b9150612fc282613830565b604082019050919050565b6000612fda602683613513565b9150612fe58261387f565b604082019050919050565b6000612ffd601b83613513565b9150613008826138ce565b602082019050919050565b6000613020601783613513565b915061302b826138f7565b602082019050919050565b6000613043600983613513565b915061304e82613920565b602082019050919050565b6000613066602183613513565b915061307182613949565b604082019050919050565b6000613089603683613513565b915061309482613998565b604082019050919050565b60006130ac602083613513565b91506130b7826139e7565b602082019050919050565b60006130cf601a83613513565b91506130da82613a10565b602082019050919050565b60006130f2601d83613513565b91506130fd82613a39565b602082019050919050565b6000613115601283613513565b915061312082613a62565b602082019050919050565b6000613138600c83613513565b915061314382613a8b565b602082019050919050565b600061315b601483613513565b915061316682613ab4565b602082019050919050565b61317a8161369b565b82525050565b600061318c8284612f04565b915081905092915050565b60006020820190506131ac6000830184612ef5565b92915050565b60006040820190506131c76000830185612ef5565b6131d46020830184612ef5565b9392505050565b60006060820190506131f06000830186612ef5565b6131fd6020830185612ef5565b61320a6040830184613171565b949350505050565b60006040820190506132276000830185612ef5565b6132346020830184613171565b9392505050565b60006020820190506132506000830184612f35565b92915050565b600060808201905061326b6000830187612f35565b6132786020830186613171565b6132856040830185613171565b6132926060830184613171565b95945050505050565b60006020820190506132b06000830184612f44565b92915050565b60006020820190506132cb6000830184612f53565b92915050565b60006020820190506132e66000830184612f62565b92915050565b600060208201905081810360008301526133068184612f71565b905092915050565b6000602082019050818103600083015261332781612faa565b9050919050565b6000602082019050818103600083015261334781612fcd565b9050919050565b6000602082019050818103600083015261336781612ff0565b9050919050565b6000602082019050818103600083015261338781613013565b9050919050565b600060208201905081810360008301526133a781613036565b9050919050565b600060208201905081810360008301526133c781613059565b9050919050565b600060208201905081810360008301526133e78161307c565b9050919050565b600060208201905081810360008301526134078161309f565b9050919050565b60006020820190508181036000830152613427816130c2565b9050919050565b60006020820190508181036000830152613447816130e5565b9050919050565b6000602082019050818103600083015261346781613108565b9050919050565b600060208201905081810360008301526134878161312b565b9050919050565b600060208201905081810360008301526134a78161314e565b9050919050565b60006020820190506134c36000830184613171565b92915050565b60006040820190506134de6000830185613171565b6134eb6020830184613171565b9392505050565b600081519050919050565b600081519050919050565b600081905092915050565b600082825260208201905092915050565b600061352f8261369b565b915061353a8361369b565b9250827fffffffffffffffffffffffffffffffffffffffffffffffffffffffffffffffff0382111561356f5761356e61378d565b5b828201905092915050565b60006135858261369b565b91506135908361369b565b9250826135a05761359f6137bc565b5b828204905092915050565b60006135b68261369b565b91506135c18361369b565b9250817fffffffffffffffffffffffffffffffffffffffffffffffffffffffffffffffff04831182151516156135fa576135f961378d565b5b828202905092915050565b60006136108261369b565b915061361b8361369b565b92508282101561362e5761362d61378d565b5b828203905092915050565b60006136448261367b565b9050919050565b60008115159050919050565b600061366282613639565b9050919050565b600061367482613639565b9050919050565b600073ffffffffffffffffffffffffffffffffffffffff82169050919050565b6000819050919050565b60006136b0826136ed565b9050919050565b60006136c2826136ed565b9050919050565b60006136d4826136ed565b9050919050565b60006136e6826136ed565b9050919050565b60006136f8826136ff565b9050919050565b600061370a8261367b565b9050919050565b60005b8381101561372f578082015181840152602081019050613714565b8381111561373e576000848401525b50505050565b600061374f8261369b565b91507fffffffffffffffffffffffffffffffffffffffffffffffffffffffffffffffff8214156137825761378161378d565b5b600182019050919050565b7f4e487b7100000000000000000000000000000000000000000000000000000000600052601160045260246000fd5b7f4e487b7100000000000000000000000000000000000000000000000000000000600052601260045260246000fd5b7f4e487b7100000000000000000000000000000000000000000000000000000000600052603260045260246000fd5b600080fd5b6000601f19601f8301169050919050565b7f5361666542455032303a204245503230206f7065726174696f6e20646964206e60008201527f6f74207375636365656400000000000000000000000000000000000000000000602082015250565b7f4f776e61626c653a206e6577206f776e657220697320746865207a65726f206160008201527f6464726573730000000000000000000000000000000000000000000000000000602082015250565b7f536166654d6174683a206164646974696f6e206f766572666c6f770000000000600082015250565b7f6465706f736974206f72656f206279207374616b696e67000000000000000000600082015250565b7f6465763a207775743f0000000000000000000000000000000000000000000000600082015250565b7f536166654d6174683a206d756c7469706c69636174696f6e206f766572666c6f60008201527f7700000000000000000000000000000000000000000000000000000000000000602082015250565b7f5361666542455032303a20617070726f76652066726f6d206e6f6e2d7a65726f60008201527f20746f206e6f6e2d7a65726f20616c6c6f77616e636500000000000000000000602082015250565b7f4f776e61626c653a2063616c6c6572206973206e6f7420746865206f776e6572600082015250565b7f7769746864726177206f72656f20627920756e7374616b696e67000000000000600082015250565b7f416464726573733a2063616c6c20746f206e6f6e2d636f6e7472616374000000600082015250565b7f77697468647261773a206e6f7420676f6f640000000000000000000000000000600082015250565b7f6d6967726174653a206261640000000000000000000000000000000000000000600082015250565b7f6d6967726174653a206e6f206d69677261746f72000000000000000000000000600082015250565b613ae681613639565b8114613af157600080fd5b50565b613afd8161364b565b8114613b0857600080fd5b50565b613b1481613657565b8114613b1f57600080fd5b50565b613b2b81613669565b8114613b3657600080fd5b50565b613b428161369b565b8114613b4d57600080fd5b5056fea2646970667358221220a4090c1996b2a5628313704319d6299a25889f61cd6ee410483c10c0ab7fc74364736f6c63430008070033",
  "immutableReferences": {},
  "source": "// SPDX-License-Identifier: MIT\n\npragma solidity ^0.8.0;\n\nimport './oreoswap-lib/SafeMath.sol';\nimport './oreoswap-lib/IBEP20.sol';\nimport './oreoswap-lib/SafeBEP20.sol';\nimport './oreoswap-lib/Ownable.sol';\n\nimport \"./OreoToken.sol\";\nimport \"./MilkBar.sol\";\n\ninterface IMigratorChef {\n    // Perform LP token migration from legacy OreoSwap to oreoSwap.\n    // Take the current LP token address and return the new LP token address.\n    // Migrator should have full access to the caller's LP token.\n    // Return the new LP token address.\n    //\n    // XXX Migrator must have allowance access to OreoSwap LP tokens.\n    // OreoSwap must mint EXACTLY the same amount of OreoSwap LP tokens or\n    // else something bad will happen. Traditional OreoSwap does not\n    // do that so be careful!\n    function migrate(IBEP20 token) external returns (IBEP20);\n}\n\n// MasterChef is the master of oreo. He can make oreo and he is a fair guy.\n//\n// Note that it's ownable and the owner wields tremendous power. The ownership\n// will be transferred to a governance smart contract once oreo is sufficiently\n// distributed and the community can show to govern itself.\n//\n// Have fun reading it. Hopefully it's bug-free. God bless.\ncontract PastryChef is Ownable {\n    using SafeMath for uint256;\n    using SafeBEP20 for IBEP20;\n\n    // Info of each user.\n    struct UserInfo {\n        uint256 amount;     // How many LP tokens the user has provided.\n        uint256 rewardDebt; // Reward debt. See explanation below.\n        //import \"@pancakeswap/pancake-swap-lib/contracts/token/BEP20/BEP20.sol\";\n        //   pending reward = (user.amount * pool.accOreoPerShare) - user.rewardDebt\n        //\n        // Whenever a user deposits or withdraws LP tokens to a pool. Here's what happens:\n        //   1. The pool's `accoreoPerShare` (and `lastRewardBlock`) gets updated.\n        //   2. User receives the pending reward sent to his/her address.\n        //   3. User's `amount` gets updated.\n        //   4. User's `rewardDebt` gets updated.\n    }\n\n    // Info of each pool.\n    struct PoolInfo {\n        IBEP20 lpToken;           // Address of LP token contract.\n        uint256 allocPoint;       // How many allocation points assigned to this pool. oreos to distribute per block.\n        uint256 lastRewardBlock;  // Last block number that oreos distribution occurs.\n        uint256 accoreoPerShare; // Accumulated oreos per share, times 1e12. See below.\n    }\n\n    // The OREO TOKEN!\n    OreoToken public oreo;\n    // The MILK TOKEN!\n    MilkBar public milk;\n    // Dev address.\n    address public devaddr;\n    // OREO tokens created per block.\n    uint256 public oreoPerBlock;\n    // Bonus muliplier for early oreo makers.\n    uint256 public BONUS_MULTIPLIER = 1;\n    // The migrator contract. It has a lot of power. Can only be set through governance (owner).\n    IMigratorChef public migrator;\n\n    // Info of each pool.\n    PoolInfo[] public poolInfo;\n    // Info of each user that stakes LP tokens.\n    mapping (uint256 => mapping (address => UserInfo)) public userInfo;\n    // Total allocation points. Must be the sum of all allocation points in all pools.\n    uint256 public totalAllocPoint = 0;\n    // The block number when OREO mining starts.\n    uint256 public startBlock;\n\n    event Deposit(address indexed user, uint256 indexed pid, uint256 amount);\n    event Withdraw(address indexed user, uint256 indexed pid, uint256 amount);\n    event EmergencyWithdraw(address indexed user, uint256 indexed pid, uint256 amount);\n\n    constructor(\n        OreoToken _oreo,\n        MilkBar _milk,\n        address _devaddr,\n        uint256 _oreoPerBlock,\n        uint256 _startBlock){\n            oreo = _oreo;\n            milk = _milk;\n            devaddr = _devaddr;\n            oreoPerBlock = _oreoPerBlock;\n            startBlock = _startBlock;\n\n            // staking pool\n            poolInfo.push(PoolInfo({\n                lpToken: _oreo,\n                allocPoint: 1000,\n                lastRewardBlock: startBlock,\n                accoreoPerShare: 0\n            }));\n\n            totalAllocPoint = 1000;\n\n    }\n\n    function updateMultiplier(uint256 multiplierNumber) public onlyOwner {\n        BONUS_MULTIPLIER = multiplierNumber;\n    }\n\n    function poolLength() external view returns (uint256) {\n        return poolInfo.length;\n    }\n\n    // Add a new lp to the pool. Can only be called by the owner.\n    // XXX DO NOT add the same LP token more than once. Rewards will be messed up if you do.\n    function add(uint256 _allocPoint, IBEP20 _lpToken, bool _withUpdate) public onlyOwner {\n        if (_withUpdate) {\n            massUpdatePools();\n        }\n        uint256 lastRewardBlock = block.number > startBlock ? block.number : startBlock;\n        totalAllocPoint = totalAllocPoint.add(_allocPoint);\n        poolInfo.push(PoolInfo({\n            lpToken: _lpToken,\n            allocPoint: _allocPoint,\n            lastRewardBlock: lastRewardBlock,\n            accoreoPerShare: 0\n        }));\n        updateStakingPool();\n    }\n\n    // Update the given pool's oreo allocation point. Can only be called by the owner.\n    function set(uint256 _pid, uint256 _allocPoint, bool _withUpdate) public onlyOwner {\n        if (_withUpdate) {\n            massUpdatePools();\n        }\n        uint256 prevAllocPoint = poolInfo[_pid].allocPoint;\n        poolInfo[_pid].allocPoint = _allocPoint;\n        if (prevAllocPoint != _allocPoint) {\n            totalAllocPoint = totalAllocPoint.sub(prevAllocPoint).add(_allocPoint);\n            updateStakingPool();\n        }\n    }\n\n    function updateStakingPool() internal {\n        uint256 length = poolInfo.length;\n        uint256 points = 0;\n        for (uint256 pid = 1; pid < length; ++pid) {\n            points = points.add(poolInfo[pid].allocPoint);\n        }\n        if (points != 0) {\n            points = points.div(3);\n            totalAllocPoint = totalAllocPoint.sub(poolInfo[0].allocPoint).add(points);\n            poolInfo[0].allocPoint = points;\n        }\n    }\n\n    // Set the migrator contract. Can only be called by the owner.\n    function setMigrator(IMigratorChef _migrator) public onlyOwner {\n        migrator = _migrator;\n    }\n\n    // Migrate lp token to another lp contract. Can be called by anyone. We trust that migrator contract is good.\n    function migrate(uint256 _pid) public {\n        require(address(migrator) != address(0), \"migrate: no migrator\");\n        PoolInfo storage pool = poolInfo[_pid];\n        IBEP20 lpToken = pool.lpToken;\n        uint256 bal = lpToken.balanceOf(address(this));\n        lpToken.safeApprove(address(migrator), bal);\n        IBEP20 newLpToken = migrator.migrate(lpToken); // < =================== This is confusing. There's a bug here (Bob)\n        require(bal == newLpToken.balanceOf(address(this)), \"migrate: bad\");\n        pool.lpToken = newLpToken;\n    }\n\n    // Return reward multiplier over the given _from to _to block.\n    function getMultiplier(uint256 _from, uint256 _to) public view returns (uint256) {\n        return _to.sub(_from).mul(BONUS_MULTIPLIER);\n    }\n\n    // View function to see pending oreos on frontend.\n    function pendingOreo(uint256 _pid, address _user) external view returns (uint256) {\n        PoolInfo storage pool = poolInfo[_pid];\n        UserInfo storage user = userInfo[_pid][_user];\n        uint256 accoreoPerShare = pool.accoreoPerShare;\n        uint256 lpSupply = pool.lpToken.balanceOf(address(this));\n        if (block.number > pool.lastRewardBlock && lpSupply != 0) {\n            uint256 multiplier = getMultiplier(pool.lastRewardBlock, block.number);\n            uint256 oreoReward = multiplier.mul(oreoPerBlock).mul(pool.allocPoint).div(totalAllocPoint);\n            accoreoPerShare = accoreoPerShare.add(oreoReward.mul(1e12).div(lpSupply));\n        }\n        return user.amount.mul(accoreoPerShare).div(1e12).sub(user.rewardDebt);\n    }\n\n    // Update reward variables for all pools. Be careful of gas spending!\n    function massUpdatePools() public {\n        uint256 length = poolInfo.length;\n        for (uint256 pid = 0; pid < length; ++pid) {\n            updatePool(pid);\n        }\n    }\n\n\n    // Update reward variables of the given pool to be up-to-date.\n    function updatePool(uint256 _pid) public {\n        PoolInfo storage pool = poolInfo[_pid];\n        if (block.number <= pool.lastRewardBlock) {\n            return;\n        }\n        uint256 lpSupply = pool.lpToken.balanceOf(address(this));\n        if (lpSupply == 0) {\n            pool.lastRewardBlock = block.number;\n            return;\n        }\n        uint256 multiplier = getMultiplier(pool.lastRewardBlock, block.number);\n        uint256 oreoReward = multiplier.mul(oreoPerBlock).mul(pool.allocPoint).div(totalAllocPoint);\n        oreo.mint(devaddr, oreoReward.div(10));\n        oreo.mint(address(milk), oreoReward);\n        pool.accoreoPerShare = pool.accoreoPerShare.add(oreoReward.mul(1e12).div(lpSupply));\n        pool.lastRewardBlock = block.number;\n    }\n\n    // Deposit LP tokens to MasterChef for oreo allocation.\n    function deposit(uint256 _pid, uint256 _amount) public {\n\n        require (_pid != 0, 'deposit oreo by staking');\n\n        PoolInfo storage pool = poolInfo[_pid];\n        UserInfo storage user = userInfo[_pid][msg.sender];\n        updatePool(_pid);\n        if (user.amount > 0) {\n            uint256 pending = user.amount.mul(pool.accoreoPerShare).div(1e12).sub(user.rewardDebt);\n            if(pending > 0) {\n                safeoreoTransfer(msg.sender, pending);\n            }\n        }\n        if (_amount > 0) {\n            pool.lpToken.safeTransferFrom(address(msg.sender), address(this), _amount);\n            user.amount = user.amount.add(_amount);\n        }\n        user.rewardDebt = user.amount.mul(pool.accoreoPerShare).div(1e12);\n        emit Deposit(msg.sender, _pid, _amount);\n    }\n\n    // Withdraw LP tokens from MasterChef.\n    function withdraw(uint256 _pid, uint256 _amount) public {\n\n        require (_pid != 0, 'withdraw oreo by unstaking');\n        PoolInfo storage pool = poolInfo[_pid];\n        UserInfo storage user = userInfo[_pid][msg.sender];\n        require(user.amount >= _amount, \"withdraw: not good\");\n\n        updatePool(_pid);\n        uint256 pending = user.amount.mul(pool.accoreoPerShare).div(1e12).sub(user.rewardDebt);\n        if(pending > 0) {\n            safeoreoTransfer(msg.sender, pending);\n        }\n        if(_amount > 0) {\n            user.amount = user.amount.sub(_amount);\n            pool.lpToken.safeTransfer(address(msg.sender), _amount);\n        }\n        user.rewardDebt = user.amount.mul(pool.accoreoPerShare).div(1e12);\n        emit Withdraw(msg.sender, _pid, _amount);\n    }\n\n    // Stake oreo tokens to MasterChef\n    function enterStaking(uint256 _amount) public {\n        PoolInfo storage pool = poolInfo[0];\n        UserInfo storage user = userInfo[0][msg.sender];\n        updatePool(0);\n        if (user.amount > 0) {\n            uint256 pending = user.amount.mul(pool.accoreoPerShare).div(1e12).sub(user.rewardDebt);\n            if(pending > 0) {\n                safeoreoTransfer(msg.sender, pending);\n            }\n        }\n        if(_amount > 0) {\n            pool.lpToken.safeTransferFrom(address(msg.sender), address(this), _amount);\n            user.amount = user.amount.add(_amount);\n        }\n        user.rewardDebt = user.amount.mul(pool.accoreoPerShare).div(1e12);\n\n        milk.mint(msg.sender, _amount);\n        emit Deposit(msg.sender, 0, _amount);\n    }\n\n    // Withdraw oreo tokens from STAKING.\n    function leaveStaking(uint256 _amount) public {\n        PoolInfo storage pool = poolInfo[0];\n        UserInfo storage user = userInfo[0][msg.sender];\n        require(user.amount >= _amount, \"withdraw: not good\");\n        updatePool(0);\n        uint256 pending = user.amount.mul(pool.accoreoPerShare).div(1e12).sub(user.rewardDebt);\n        if(pending > 0) {\n            safeoreoTransfer(msg.sender, pending);\n        }\n        if(_amount > 0) {\n            user.amount = user.amount.sub(_amount);\n            pool.lpToken.safeTransfer(address(msg.sender), _amount);\n        }\n        user.rewardDebt = user.amount.mul(pool.accoreoPerShare).div(1e12);\n\n        milk.burn(msg.sender, _amount);\n        emit Withdraw(msg.sender, 0, _amount);\n    }\n\n    // Withdraw without caring about rewards. EMERGENCY ONLY.\n    function emergencyWithdraw(uint256 _pid) public {\n        PoolInfo storage pool = poolInfo[_pid];\n        UserInfo storage user = userInfo[_pid][msg.sender];\n        pool.lpToken.safeTransfer(address(msg.sender), user.amount);\n        emit EmergencyWithdraw(msg.sender, _pid, user.amount);\n        user.amount = 0;\n        user.rewardDebt = 0;\n    }\n\n    // Safe oreo transfer function, just in case if rounding error causes pool to not have enough oreos.\n    function safeoreoTransfer(address _to, uint256 _amount) internal {\n        milk.safeoreoTransfer(_to, _amount);\n    }\n\n    // Update dev address by the previous dev.\n    function dev(address _devaddr) public {\n        require(msg.sender == devaddr, \"dev: wut?\");\n        devaddr = _devaddr;\n    }\n}\n",
  "sourcePath": "/Users/calistus/Google Drive/oreo-swap/oreoswapv1-farm-core/contracts/PastryChef.sol",
  "compiler": {
    "name": "solc",
    "version": "0.8.7+commit.e28d00a7.Emscripten.clang"
  },
  "schemaVersion": "3.4.0",
  "updatedAt": "2021-09-18T14:51:23.941Z",
  "devdoc": {
    "kind": "dev",
    "methods": {
      "owner()": {
        "details": "Returns the address of the current owner."
      },
      "renounceOwnership()": {
        "details": "Leaves the contract without owner. It will not be possible to call `onlyOwner` functions anymore. Can only be called by the current owner. NOTE: Renouncing ownership will leave the contract without an owner, thereby removing any functionality that is only available to the owner."
      },
      "transferOwnership(address)": {
        "details": "Transfers ownership of the contract to a new account (`newOwner`). Can only be called by the current owner."
      }
    },
    "version": 1
  },
  "userdoc": {
    "kind": "user",
    "methods": {},
    "version": 1
  }
}