{
  "contractName": "SousChef",
  "abi": [
    {
      "inputs": [
        {
          "internalType": "contract IBEP20",
          "name": "_milk",
          "type": "address"
        },
        {
          "internalType": "uint256",
          "name": "_rewardPerBlock",
          "type": "uint256"
        },
        {
          "internalType": "uint256",
          "name": "_startBlock",
          "type": "uint256"
        },
        {
          "internalType": "uint256",
          "name": "_endBlock",
          "type": "uint256"
        }
      ],
      "stateMutability": "nonpayable",
      "type": "constructor"
    },
    {
      "anonymous": false,
      "inputs": [
        {
          "indexed": true,
          "internalType": "address",
          "name": "user",
          "type": "address"
        },
        {
          "indexed": false,
          "internalType": "uint256",
          "name": "amount",
          "type": "uint256"
        }
      ],
      "name": "Deposit",
      "type": "event"
    },
    {
      "anonymous": false,
      "inputs": [
        {
          "indexed": true,
          "internalType": "address",
          "name": "user",
          "type": "address"
        },
        {
          "indexed": false,
          "internalType": "uint256",
          "name": "amount",
          "type": "uint256"
        }
      ],
      "name": "EmergencyWithdraw",
      "type": "event"
    },
    {
      "anonymous": false,
      "inputs": [
        {
          "indexed": true,
          "internalType": "address",
          "name": "user",
          "type": "address"
        },
        {
          "indexed": false,
          "internalType": "uint256",
          "name": "amount",
          "type": "uint256"
        }
      ],
      "name": "Withdraw",
      "type": "event"
    },
    {
      "inputs": [
        {
          "internalType": "uint256",
          "name": "",
          "type": "uint256"
        }
      ],
      "name": "addressList",
      "outputs": [
        {
          "internalType": "address",
          "name": "",
          "type": "address"
        }
      ],
      "stateMutability": "view",
      "type": "function",
      "constant": true
    },
    {
      "inputs": [],
      "name": "bonusEndBlock",
      "outputs": [
        {
          "internalType": "uint256",
          "name": "",
          "type": "uint256"
        }
      ],
      "stateMutability": "view",
      "type": "function",
      "constant": true
    },
    {
      "inputs": [],
      "name": "milk",
      "outputs": [
        {
          "internalType": "contract IBEP20",
          "name": "",
          "type": "address"
        }
      ],
      "stateMutability": "view",
      "type": "function",
      "constant": true
    },
    {
      "inputs": [],
      "name": "poolInfo",
      "outputs": [
        {
          "internalType": "uint256",
          "name": "lastRewardBlock",
          "type": "uint256"
        },
        {
          "internalType": "uint256",
          "name": "accRewardPerShare",
          "type": "uint256"
        }
      ],
      "stateMutability": "view",
      "type": "function",
      "constant": true
    },
    {
      "inputs": [],
      "name": "rewardPerBlock",
      "outputs": [
        {
          "internalType": "uint256",
          "name": "",
          "type": "uint256"
        }
      ],
      "stateMutability": "view",
      "type": "function",
      "constant": true
    },
    {
      "inputs": [],
      "name": "startBlock",
      "outputs": [
        {
          "internalType": "uint256",
          "name": "",
          "type": "uint256"
        }
      ],
      "stateMutability": "view",
      "type": "function",
      "constant": true
    },
    {
      "inputs": [],
      "name": "starttime",
      "outputs": [
        {
          "internalType": "uint256",
          "name": "",
          "type": "uint256"
        }
      ],
      "stateMutability": "view",
      "type": "function",
      "constant": true
    },
    {
      "inputs": [
        {
          "internalType": "address",
          "name": "",
          "type": "address"
        }
      ],
      "name": "userInfo",
      "outputs": [
        {
          "internalType": "uint256",
          "name": "amount",
          "type": "uint256"
        },
        {
          "internalType": "uint256",
          "name": "rewardDebt",
          "type": "uint256"
        },
        {
          "internalType": "uint256",
          "name": "rewardPending",
          "type": "uint256"
        }
      ],
      "stateMutability": "view",
      "type": "function",
      "constant": true
    },
    {
      "inputs": [],
      "name": "addressLength",
      "outputs": [
        {
          "internalType": "uint256",
          "name": "",
          "type": "uint256"
        }
      ],
      "stateMutability": "view",
      "type": "function",
      "constant": true
    },
    {
      "inputs": [],
      "name": "_now",
      "outputs": [
        {
          "internalType": "uint256",
          "name": "",
          "type": "uint256"
        }
      ],
      "stateMutability": "nonpayable",
      "type": "function"
    },
    {
      "inputs": [
        {
          "internalType": "address",
          "name": "_user",
          "type": "address"
        }
      ],
      "name": "pendingReward",
      "outputs": [
        {
          "internalType": "uint256",
          "name": "",
          "type": "uint256"
        }
      ],
      "stateMutability": "view",
      "type": "function",
      "constant": true
    },
    {
      "inputs": [],
      "name": "updatePool",
      "outputs": [],
      "stateMutability": "nonpayable",
      "type": "function"
    },
    {
      "inputs": [
        {
          "internalType": "uint256",
          "name": "_amount",
          "type": "uint256"
        }
      ],
      "name": "deposit",
      "outputs": [],
      "stateMutability": "nonpayable",
      "type": "function"
    },
    {
      "inputs": [
        {
          "internalType": "uint256",
          "name": "_amount",
          "type": "uint256"
        }
      ],
      "name": "withdraw",
      "outputs": [],
      "stateMutability": "nonpayable",
      "type": "function"
    },
    {
      "inputs": [],
      "name": "emergencyWithdraw",
      "outputs": [],
      "stateMutability": "nonpayable",
      "type": "function"
    }
  ],
  "bytecode": "0x60806040523480156200001157600080fd5b5060405162001d3e38038062001d3e8339818101604052810190620000379190620000f6565b83600160006101000a81548173ffffffffffffffffffffffffffffffffffffffff021916908373ffffffffffffffffffffffffffffffffffffffff1602179055508260028190555081600781905550806008819055506040518060400160405280600754815260200160008152506003600082015181600001556020820151816001015590505050505050620001f3565b600081519050620000d981620001bf565b92915050565b600081519050620000f081620001d9565b92915050565b60008060008060808587031215620001135762000112620001ba565b5b60006200012387828801620000c8565b94505060206200013687828801620000df565b93505060406200014987828801620000df565b92505060606200015c87828801620000df565b91505092959194509250565b6000620001758262000190565b9050919050565b6000620001898262000168565b9050919050565b600073ffffffffffffffffffffffffffffffffffffffff82169050919050565b6000819050919050565b600080fd5b620001ca816200017c565b8114620001d657600080fd5b50565b620001e481620001b0565b8114620001f057600080fd5b50565b611b3b80620002036000396000f3fe608060405234801561001057600080fd5b50600436106100f55760003560e01c8063b3bb8cd411610097578063dbf8b16811610066578063dbf8b16814610253578063dc88188814610271578063e3161ddd1461028f578063f40f0f5214610299576100f5565b8063b3bb8cd4146101df578063b6b55f25146101fd578063b810fb4314610219578063db2e21bc14610249576100f5565b806348cd4cb1116100d357806348cd4cb1146101665780635a2f3d09146101845780638ae39cac146101a35780638da58897146101c1576100f5565b80631959a002146100fa5780631aed65531461012c5780632e1a7d4d1461014a575b600080fd5b610114600480360381019061010f91906112eb565b6102c9565b604051610123939291906116db565b60405180910390f35b6101346102f3565b6040516101419190611697565b60405180910390f35b610164600480360381019061015f9190611345565b6102f9565b005b61016e61052e565b60405161017b9190611697565b60405180910390f35b61018c610534565b60405161019a9291906116b2565b60405180910390f35b6101ab610546565b6040516101b89190611697565b60405180910390f35b6101c961054c565b6040516101d69190611697565b60405180910390f35b6101e7610552565b6040516101f49190611697565b60405180910390f35b61021760048036038101906102129190611345565b61056e565b005b610233600480360381019061022e9190611345565b6107ef565b604051610240919061151f565b60405180910390f35b61025161082e565b005b61025b610935565b604051610268919061159a565b60405180910390f35b61027961095b565b6040516102869190611697565b60405180910390f35b610297610968565b005b6102b360048036038101906102ae91906112eb565b610ac7565b6040516102c09190611697565b60405180910390f35b60056020528060005260406000206000915090508060000154908060010154908060020154905083565b60085481565b6000811161033c576040517f08c379a000000000000000000000000000000000000000000000000000000000815260040161033390611657565b60405180910390fd5b6000600560003373ffffffffffffffffffffffffffffffffffffffff1673ffffffffffffffffffffffffffffffffffffffff168152602001908152602001600020905081816000015410156103c6576040517f08c379a00000000000000000000000000000000000000000000000000000000081526004016103bd90611617565b60405180910390fd5b6103ce610968565b61041b3383600160009054906101000a900473ffffffffffffffffffffffffffffffffffffffff1673ffffffffffffffffffffffffffffffffffffffff16610cb39092919063ffffffff16565b61047a816002015461046c836001015461045e64e8d4a510006104506003600101548860000154610d3990919063ffffffff16565b610db490919063ffffffff16565b610dfe90919063ffffffff16565b610e4890919063ffffffff16565b8160020181905550610499828260000154610dfe90919063ffffffff16565b81600001819055506104d464e8d4a510006104c66003600101548460000154610d3990919063ffffffff16565b610db490919063ffffffff16565b81600101819055503373ffffffffffffffffffffffffffffffffffffffff167f884edad9ce6fa2440d8a54cc123490eb96d2768479d49ff9c7366125a9424364836040516105229190611697565b60405180910390a25050565b60075481565b60038060000154908060010154905082565b60025481565b60005481565b60006101f4436105629190611744565b60008190555043905090565b600081116105b1576040517f08c379a00000000000000000000000000000000000000000000000000000000081526004016105a890611657565b60405180910390fd5b6000600560003373ffffffffffffffffffffffffffffffffffffffff1673ffffffffffffffffffffffffffffffffffffffff16815260200190815260200160002090506105fc610968565b61064b333084600160009054906101000a900473ffffffffffffffffffffffffffffffffffffffff1673ffffffffffffffffffffffffffffffffffffffff16610ea6909392919063ffffffff16565b60008160000154148015610663575060008160020154145b8015610673575060008160010154145b156106dc576006339080600181540180825580915050600190039060005260206000200160009091909190916101000a81548173ffffffffffffffffffffffffffffffffffffffff021916908373ffffffffffffffffffffffffffffffffffffffff1602179055505b61073b816002015461072d836001015461071f64e8d4a510006107116003600101548860000154610d3990919063ffffffff16565b610db490919063ffffffff16565b610dfe90919063ffffffff16565b610e4890919063ffffffff16565b816002018190555061075a828260000154610e4890919063ffffffff16565b816000018190555061079564e8d4a510006107876003600101548460000154610d3990919063ffffffff16565b610db490919063ffffffff16565b81600101819055503373ffffffffffffffffffffffffffffffffffffffff167fe1fffcc4923d04b559f4d29a8bfc6cda04eb5b0d3c460751c2402c5c5cc9109c836040516107e39190611697565b60405180910390a25050565b600681815481106107ff57600080fd5b906000526020600020016000915054906101000a900473ffffffffffffffffffffffffffffffffffffffff1681565b6000600560003373ffffffffffffffffffffffffffffffffffffffff1673ffffffffffffffffffffffffffffffffffffffff16815260200190815260200160002090506108c2338260000154600160009054906101000a900473ffffffffffffffffffffffffffffffffffffffff1673ffffffffffffffffffffffffffffffffffffffff16610cb39092919063ffffffff16565b3373ffffffffffffffffffffffffffffffffffffffff167f5fafa99d0643513820be26656b45130b01e1c03062e1266bf36f88cbd3bd9695826000015460405161090c9190611697565b60405180910390a260008160000181905550600081600101819055506000816002018190555050565b600160009054906101000a900473ffffffffffffffffffffffffffffffffffffffff1681565b6000600680549050905090565b600360000154431161097957610ac5565b6000600160009054906101000a900473ffffffffffffffffffffffffffffffffffffffff1673ffffffffffffffffffffffffffffffffffffffff166370a08231306040518263ffffffff1660e01b81526004016109d6919061151f565b60206040518083038186803b1580156109ee57600080fd5b505afa158015610a02573d6000803e3d6000fd5b505050506040513d601f19601f82011682018060405250810190610a269190611372565b90506000811415610a41574360036000018190555050610ac5565b6000610a5260036000015443610f2f565b90506000610a6b60025483610d3990919063ffffffff16565b9050610aae610a9a84610a8c64e8d4a5100085610d3990919063ffffffff16565b610db490919063ffffffff16565b600360010154610e4890919063ffffffff16565b600360010181905550436003600001819055505050505b565b600080600390506000600560008573ffffffffffffffffffffffffffffffffffffffff1673ffffffffffffffffffffffffffffffffffffffff16815260200190815260200160002090506000826001015490506000600160009054906101000a900473ffffffffffffffffffffffffffffffffffffffff1673ffffffffffffffffffffffffffffffffffffffff166370a08231306040518263ffffffff1660e01b8152600401610b77919061151f565b60206040518083038186803b158015610b8f57600080fd5b505afa158015610ba3573d6000803e3d6000fd5b505050506040513d601f19601f82011682018060405250810190610bc79190611372565b9050836000015443118015610bdd575060008114155b15610c4e576000610bf2856000015443610f2f565b90506000610c0b60025483610d3990919063ffffffff16565b9050610c49610c3a84610c2c64e8d4a5100085610d3990919063ffffffff16565b610db490919063ffffffff16565b85610e4890919063ffffffff16565b935050505b610ca88360020154610c9a8560010154610c8c64e8d4a51000610c7e888a60000154610d3990919063ffffffff16565b610db490919063ffffffff16565b610dfe90919063ffffffff16565b610e4890919063ffffffff16565b945050505050919050565b610d348363a9059cbb60e01b8484604051602401610cd2929190611571565b604051602081830303815290604052907bffffffffffffffffffffffffffffffffffffffffffffffffffffffff19166020820180517bffffffffffffffffffffffffffffffffffffffffffffffffffffffff8381831617835250505050610f84565b505050565b600080831415610d4c5760009050610dae565b60008284610d5a91906117cb565b9050828482610d69919061179a565b14610da9576040517f08c379a0000000000000000000000000000000000000000000000000000000008152600401610da090611637565b60405180910390fd5b809150505b92915050565b6000610df683836040518060400160405280601a81526020017f536166654d6174683a206469766973696f6e206279207a65726f00000000000081525061104b565b905092915050565b6000610e4083836040518060400160405280601e81526020017f536166654d6174683a207375627472616374696f6e206f766572666c6f7700008152506110ae565b905092915050565b6000808284610e579190611744565b905083811015610e9c576040517f08c379a0000000000000000000000000000000000000000000000000000000008152600401610e93906115f7565b60405180910390fd5b8091505092915050565b610f29846323b872dd60e01b858585604051602401610ec79392919061153a565b604051602081830303815290604052907bffffffffffffffffffffffffffffffffffffffffffffffffffffffff19166020820180517bffffffffffffffffffffffffffffffffffffffffffffffffffffffff8381831617835250505050610f84565b50505050565b60006008548211610f5457610f4d8383610dfe90919063ffffffff16565b9050610f7e565b6008548310610f665760009050610f7e565b610f7b83600854610dfe90919063ffffffff16565b90505b92915050565b6000610fe6826040518060400160405280602081526020017f5361666542455032303a206c6f772d6c6576656c2063616c6c206661696c65648152508573ffffffffffffffffffffffffffffffffffffffff166111129092919063ffffffff16565b905060008151111561104657808060200190518101906110069190611318565b611045576040517f08c379a000000000000000000000000000000000000000000000000000000000815260040161103c906115d7565b60405180910390fd5b5b505050565b60008083118290611092576040517f08c379a000000000000000000000000000000000000000000000000000000000815260040161108991906115b5565b60405180910390fd5b50600083856110a1919061179a565b9050809150509392505050565b60008383111582906110f6576040517f08c379a00000000000000000000000000000000000000000000000000000000081526004016110ed91906115b5565b60405180910390fd5b50600083856111059190611825565b9050809150509392505050565b6060611121848460008561112a565b90509392505050565b60606111358561124c565b611174576040517f08c379a000000000000000000000000000000000000000000000000000000000815260040161116b90611677565b60405180910390fd5b6000808673ffffffffffffffffffffffffffffffffffffffff16858760405161119d9190611508565b60006040518083038185875af1925050503d80600081146111da576040519150601f19603f3d011682016040523d82523d6000602084013e6111df565b606091505b509150915081156111f4578092505050611244565b6000815111156112075780518082602001fd5b836040517f08c379a000000000000000000000000000000000000000000000000000000000815260040161123b91906115b5565b60405180910390fd5b949350505050565b60008060007fc5d2460186f7233c927e7db2dcc703c0e500b653ca82273b7bfad8045d85a47060001b9050833f915080821415801561128e57506000801b8214155b92505050919050565b6000813590506112a681611ac0565b92915050565b6000815190506112bb81611ad7565b92915050565b6000813590506112d081611aee565b92915050565b6000815190506112e581611aee565b92915050565b60006020828403121561130157611300611968565b5b600061130f84828501611297565b91505092915050565b60006020828403121561132e5761132d611968565b5b600061133c848285016112ac565b91505092915050565b60006020828403121561135b5761135a611968565b5b6000611369848285016112c1565b91505092915050565b60006020828403121561138857611387611968565b5b6000611396848285016112d6565b91505092915050565b6113a881611859565b82525050565b60006113b982611712565b6113c38185611728565b93506113d38185602086016118d7565b80840191505092915050565b6113e8816118a1565b82525050565b60006113f98261171d565b6114038185611733565b93506114138185602086016118d7565b61141c8161196d565b840191505092915050565b6000611434602a83611733565b915061143f8261197e565b604082019050919050565b6000611457601b83611733565b9150611462826119cd565b602082019050919050565b600061147a601483611733565b9150611485826119f6565b602082019050919050565b600061149d602183611733565b91506114a882611a1f565b604082019050919050565b60006114c0600883611733565b91506114cb82611a6e565b602082019050919050565b60006114e3601d83611733565b91506114ee82611a97565b602082019050919050565b61150281611897565b82525050565b600061151482846113ae565b915081905092915050565b6000602082019050611534600083018461139f565b92915050565b600060608201905061154f600083018661139f565b61155c602083018561139f565b61156960408301846114f9565b949350505050565b6000604082019050611586600083018561139f565b61159360208301846114f9565b9392505050565b60006020820190506115af60008301846113df565b92915050565b600060208201905081810360008301526115cf81846113ee565b905092915050565b600060208201905081810360008301526115f081611427565b9050919050565b600060208201905081810360008301526116108161144a565b9050919050565b600060208201905081810360008301526116308161146d565b9050919050565b6000602082019050818103600083015261165081611490565b9050919050565b60006020820190508181036000830152611670816114b3565b9050919050565b60006020820190508181036000830152611690816114d6565b9050919050565b60006020820190506116ac60008301846114f9565b92915050565b60006040820190506116c760008301856114f9565b6116d460208301846114f9565b9392505050565b60006060820190506116f060008301866114f9565b6116fd60208301856114f9565b61170a60408301846114f9565b949350505050565b600081519050919050565b600081519050919050565b600081905092915050565b600082825260208201905092915050565b600061174f82611897565b915061175a83611897565b9250827fffffffffffffffffffffffffffffffffffffffffffffffffffffffffffffffff0382111561178f5761178e61190a565b5b828201905092915050565b60006117a582611897565b91506117b083611897565b9250826117c0576117bf611939565b5b828204905092915050565b60006117d682611897565b91506117e183611897565b9250817fffffffffffffffffffffffffffffffffffffffffffffffffffffffffffffffff048311821515161561181a5761181961190a565b5b828202905092915050565b600061183082611897565b915061183b83611897565b92508282101561184e5761184d61190a565b5b828203905092915050565b600061186482611877565b9050919050565b60008115159050919050565b600073ffffffffffffffffffffffffffffffffffffffff82169050919050565b6000819050919050565b60006118ac826118b3565b9050919050565b60006118be826118c5565b9050919050565b60006118d082611877565b9050919050565b60005b838110156118f55780820151818401526020810190506118da565b83811115611904576000848401525b50505050565b7f4e487b7100000000000000000000000000000000000000000000000000000000600052601160045260246000fd5b7f4e487b7100000000000000000000000000000000000000000000000000000000600052601260045260246000fd5b600080fd5b6000601f19601f8301169050919050565b7f5361666542455032303a204245503230206f7065726174696f6e20646964206e60008201527f6f74207375636365656400000000000000000000000000000000000000000000602082015250565b7f536166654d6174683a206164646974696f6e206f766572666c6f770000000000600082015250565b7f77697468647261773a206e6f7420656e6f756768000000000000000000000000600082015250565b7f536166654d6174683a206d756c7469706c69636174696f6e206f766572666c6f60008201527f7700000000000000000000000000000000000000000000000000000000000000602082015250565b7f616d6f756e742030000000000000000000000000000000000000000000000000600082015250565b7f416464726573733a2063616c6c20746f206e6f6e2d636f6e7472616374000000600082015250565b611ac981611859565b8114611ad457600080fd5b50565b611ae08161186b565b8114611aeb57600080fd5b50565b611af781611897565b8114611b0257600080fd5b5056fea2646970667358221220893602b3768208d9b7c3111e9cefd98e751f3358beb7b8061911e8393245050164736f6c63430008070033",
  "immutableReferences": {},
  "source": "// SPDX-License-Identifier: MIT\r\n\r\npragma solidity ^0.8.0;\r\n\r\nimport './oreoswap-lib/SafeMath.sol';\r\nimport './oreoswap-lib/IBEP20.sol';\r\nimport './oreoswap-lib/SafeBEP20.sol';\r\n\r\n// SousChef is the chef of new tokens. He can make yummy food and he is a fair guy as well as MasterChef.\r\ncontract SousChef {\r\n    using SafeMath for uint256;\r\n    using SafeBEP20 for IBEP20;\r\n\r\n    // Info of each user.\r\n    struct UserInfo {\r\n        uint256 amount;   // How many SYRUP tokens the user has provided.\r\n        uint256 rewardDebt;  // Reward debt. See explanation below.\r\n        uint256 rewardPending;\r\n        //\r\n        // We do some fancy math here. Basically, any point in time, the amount of SYRUPs\r\n        // entitled to a user but is pending to be distributed is:\r\n        //\r\n        //   pending reward = (user.amount * pool.accRewardPerShare) - user.rewardDebt + user.rewardPending\r\n        //\r\n        // Whenever a user deposits or withdraws SYRUP tokens to a pool. Here's what happens:\r\n        //   1. The pool's `accRewardPerShare` (and `lastRewardBlock`) gets updated.\r\n        //   2. User receives the pending reward sent to his/her address.\r\n        //   3. User's `amount` gets updated.\r\n        //   3. User's `amount` gets updated.\r\n        //   4. User's `rewardDebt` gets updated.\r\n    }\r\n\r\n    // Info of Pool\r\n    struct PoolInfo {\r\n        uint256 lastRewardBlock;  // Last block number that Rewards distribution occurs.\r\n        uint256 accRewardPerShare; // Accumulated reward per share, times 1e12. See below.\r\n    }\r\n\r\n    uint public starttime;\r\n\r\n    // The SYRUP TOKEN!\r\n    IBEP20 public milk;\r\n    // rewards created per block.\r\n    uint256 public rewardPerBlock;\r\n\r\n    // Info.\r\n    PoolInfo public poolInfo;\r\n    // Info of each user that stakes Milk tokens.\r\n    mapping (address => UserInfo) public userInfo;\r\n\r\n    // addresses list\r\n    address[] public addressList;\r\n\r\n    // The block number when mining starts.\r\n    uint256 public startBlock;\r\n    // The block number when mining ends.\r\n    uint256 public bonusEndBlock;\r\n\r\n    event Deposit(address indexed user, uint256 amount);\r\n    event Withdraw(address indexed user, uint256 amount);\r\n    event EmergencyWithdraw(address indexed user, uint256 amount);\r\n\r\n    constructor(\r\n        IBEP20 _milk,\r\n        uint256 _rewardPerBlock,\r\n        uint256 _startBlock,\r\n        uint256 _endBlock) {\r\n            milk = _milk;\r\n            rewardPerBlock = _rewardPerBlock;\r\n            startBlock = _startBlock;\r\n            bonusEndBlock = _endBlock;\r\n\r\n            // staking pool\r\n            poolInfo = PoolInfo({\r\n                lastRewardBlock: startBlock,\r\n                accRewardPerShare: 0\r\n            });\r\n    }\r\n\r\n    function addressLength() external view returns (uint256) {\r\n        return addressList.length;\r\n    }\r\n\r\n    // Return reward multiplier over the given _from to _to block.\r\n    function getMultiplier(uint256 _from, uint256 _to) internal view returns (uint256) {\r\n        if (_to <= bonusEndBlock) {\r\n            return _to.sub(_from);\r\n        } else if (_from >= bonusEndBlock) {\r\n            return 0;\r\n        } else {\r\n            return bonusEndBlock.sub(_from);\r\n        }\r\n    }\r\n\r\n    function _now() public returns(uint) {\r\n        starttime = block.number + 500;\r\n        return block.number;\r\n    }\r\n\r\n    // View function to see pending Tokens on frontend.\r\n    function pendingReward(address _user) external view returns (uint256) {\r\n        PoolInfo storage pool = poolInfo;\r\n        UserInfo storage user = userInfo[_user];\r\n        uint256 accRewardPerShare = pool.accRewardPerShare;\r\n        uint256 stakedSupply = milk.balanceOf(address(this));\r\n        if (block.number > pool.lastRewardBlock && stakedSupply != 0) {\r\n            uint256 multiplier = getMultiplier(pool.lastRewardBlock, block.number);\r\n            uint256 tokenReward = multiplier.mul(rewardPerBlock);\r\n            accRewardPerShare = accRewardPerShare.add(tokenReward.mul(1e12).div(stakedSupply));\r\n        }\r\n        return user.amount.mul(accRewardPerShare).div(1e12).sub(user.rewardDebt).add(user.rewardPending);\r\n    }\r\n\r\n    // Update reward variables of the given pool to be up-to-date.\r\n    function updatePool() public {\r\n        if (block.number <= poolInfo.lastRewardBlock) {\r\n            return;\r\n        }\r\n        uint256 milkSupply = milk.balanceOf(address(this));\r\n        if (milkSupply == 0) {\r\n            poolInfo.lastRewardBlock = block.number;\r\n            return;\r\n        }\r\n        uint256 multiplier = getMultiplier(poolInfo.lastRewardBlock, block.number);\r\n        uint256 tokenReward = multiplier.mul(rewardPerBlock);\r\n\r\n        poolInfo.accRewardPerShare = poolInfo.accRewardPerShare.add(tokenReward.mul(1e12).div(milkSupply));\r\n        poolInfo.lastRewardBlock = block.number;\r\n    }\r\n\r\n\r\n    // Deposit Milk tokens to SousChef for Reward allocation.\r\n    function deposit(uint256 _amount) public {\r\n        require (_amount > 0, 'amount 0');\r\n        UserInfo storage user = userInfo[msg.sender];\r\n        updatePool();\r\n        milk.safeTransferFrom(address(msg.sender), address(this), _amount);\r\n        // The deposit behavior before farming will result in duplicate addresses, and thus we will manually remove them when airdropping.\r\n        if (user.amount == 0 && user.rewardPending == 0 && user.rewardDebt == 0) {\r\n            addressList.push(address(msg.sender));\r\n        }\r\n        user.rewardPending = user.amount.mul(poolInfo.accRewardPerShare).div(1e12).sub(user.rewardDebt).add(user.rewardPending);\r\n        user.amount = user.amount.add(_amount);\r\n        user.rewardDebt = user.amount.mul(poolInfo.accRewardPerShare).div(1e12);\r\n\r\n        emit Deposit(msg.sender, _amount);\r\n    }\r\n\r\n    // Withdraw Milk tokens from SousChef.\r\n    function withdraw(uint256 _amount) public {\r\n        require (_amount > 0, 'amount 0');\r\n        UserInfo storage user = userInfo[msg.sender];\r\n        require(user.amount >= _amount, \"withdraw: not enough\");\r\n\r\n        updatePool();\r\n        milk.safeTransfer(address(msg.sender), _amount);\r\n\r\n        user.rewardPending = user.amount.mul(poolInfo.accRewardPerShare).div(1e12).sub(user.rewardDebt).add(user.rewardPending);\r\n        user.amount = user.amount.sub(_amount);\r\n        user.rewardDebt = user.amount.mul(poolInfo.accRewardPerShare).div(1e12);\r\n\r\n        emit Withdraw(msg.sender, _amount);\r\n    }\r\n\r\n    // Withdraw without caring about rewards. EMERGENCY ONLY.\r\n    function emergencyWithdraw() public {\r\n        UserInfo storage user = userInfo[msg.sender];\r\n        milk.safeTransfer(address(msg.sender), user.amount);\r\n        emit EmergencyWithdraw(msg.sender, user.amount);\r\n        user.amount = 0;\r\n        user.rewardDebt = 0;\r\n        user.rewardPending = 0;\r\n    }\r\n\r\n}\r\n",
  "sourcePath": "C:/Users/FVO_MMILLLER/Desktop/oreoswav1-core/oreoswapv1-farm-core/contracts/SousChef.sol",
  "compiler": {
    "name": "solc",
    "version": "0.8.7+commit.e28d00a7.Emscripten.clang"
  },
  "schemaVersion": "3.4.1",
  "updatedAt": "2021-09-20T16:28:41.083Z",
  "networkType": "ethereum",
  "devdoc": {
    "kind": "dev",
    "methods": {},
    "version": 1
  },
  "userdoc": {
    "kind": "user",
    "methods": {},
    "version": 1
  }
}