{
  "contractName": "SousChef",
  "abi": [
    {
      "inputs": [
        {
          "internalType": "contract IBEP20",
          "name": "_syrup",
          "type": "address"
        },
        {
          "internalType": "uint256",
          "name": "_rewardPerBlock",
          "type": "uint256"
        },
        {
          "internalType": "uint256",
          "name": "_startBlock",
          "type": "uint256"
        },
        {
          "internalType": "uint256",
          "name": "_endBlock",
          "type": "uint256"
        }
      ],
      "stateMutability": "nonpayable",
      "type": "constructor"
    },
    {
      "anonymous": false,
      "inputs": [
        {
          "indexed": true,
          "internalType": "address",
          "name": "user",
          "type": "address"
        },
        {
          "indexed": false,
          "internalType": "uint256",
          "name": "amount",
          "type": "uint256"
        }
      ],
      "name": "Deposit",
      "type": "event"
    },
    {
      "anonymous": false,
      "inputs": [
        {
          "indexed": true,
          "internalType": "address",
          "name": "user",
          "type": "address"
        },
        {
          "indexed": false,
          "internalType": "uint256",
          "name": "amount",
          "type": "uint256"
        }
      ],
      "name": "EmergencyWithdraw",
      "type": "event"
    },
    {
      "anonymous": false,
      "inputs": [
        {
          "indexed": true,
          "internalType": "address",
          "name": "user",
          "type": "address"
        },
        {
          "indexed": false,
          "internalType": "uint256",
          "name": "amount",
          "type": "uint256"
        }
      ],
      "name": "Withdraw",
      "type": "event"
    },
    {
      "inputs": [
        {
          "internalType": "uint256",
          "name": "",
          "type": "uint256"
        }
      ],
      "name": "addressList",
      "outputs": [
        {
          "internalType": "address",
          "name": "",
          "type": "address"
        }
      ],
      "stateMutability": "view",
      "type": "function"
    },
    {
      "inputs": [],
      "name": "bonusEndBlock",
      "outputs": [
        {
          "internalType": "uint256",
          "name": "",
          "type": "uint256"
        }
      ],
      "stateMutability": "view",
      "type": "function"
    },
    {
      "inputs": [],
      "name": "poolInfo",
      "outputs": [
        {
          "internalType": "uint256",
          "name": "lastRewardBlock",
          "type": "uint256"
        },
        {
          "internalType": "uint256",
          "name": "accRewardPerShare",
          "type": "uint256"
        }
      ],
      "stateMutability": "view",
      "type": "function"
    },
    {
      "inputs": [],
      "name": "rewardPerBlock",
      "outputs": [
        {
          "internalType": "uint256",
          "name": "",
          "type": "uint256"
        }
      ],
      "stateMutability": "view",
      "type": "function"
    },
    {
      "inputs": [],
      "name": "startBlock",
      "outputs": [
        {
          "internalType": "uint256",
          "name": "",
          "type": "uint256"
        }
      ],
      "stateMutability": "view",
      "type": "function"
    },
    {
      "inputs": [],
      "name": "syrup",
      "outputs": [
        {
          "internalType": "contract IBEP20",
          "name": "",
          "type": "address"
        }
      ],
      "stateMutability": "view",
      "type": "function"
    },
    {
      "inputs": [
        {
          "internalType": "address",
          "name": "",
          "type": "address"
        }
      ],
      "name": "userInfo",
      "outputs": [
        {
          "internalType": "uint256",
          "name": "amount",
          "type": "uint256"
        },
        {
          "internalType": "uint256",
          "name": "rewardDebt",
          "type": "uint256"
        },
        {
          "internalType": "uint256",
          "name": "rewardPending",
          "type": "uint256"
        }
      ],
      "stateMutability": "view",
      "type": "function"
    },
    {
      "inputs": [],
      "name": "addressLength",
      "outputs": [
        {
          "internalType": "uint256",
          "name": "",
          "type": "uint256"
        }
      ],
      "stateMutability": "view",
      "type": "function"
    },
    {
      "inputs": [
        {
          "internalType": "address",
          "name": "_user",
          "type": "address"
        }
      ],
      "name": "pendingReward",
      "outputs": [
        {
          "internalType": "uint256",
          "name": "",
          "type": "uint256"
        }
      ],
      "stateMutability": "view",
      "type": "function"
    },
    {
      "inputs": [],
      "name": "updatePool",
      "outputs": [],
      "stateMutability": "nonpayable",
      "type": "function"
    },
    {
      "inputs": [
        {
          "internalType": "uint256",
          "name": "_amount",
          "type": "uint256"
        }
      ],
      "name": "deposit",
      "outputs": [],
      "stateMutability": "nonpayable",
      "type": "function"
    },
    {
      "inputs": [
        {
          "internalType": "uint256",
          "name": "_amount",
          "type": "uint256"
        }
      ],
      "name": "withdraw",
      "outputs": [],
      "stateMutability": "nonpayable",
      "type": "function"
    },
    {
      "inputs": [],
      "name": "emergencyWithdraw",
      "outputs": [],
      "stateMutability": "nonpayable",
      "type": "function"
    }
  ],
  "bytecode": "0x60806040523480156200001157600080fd5b5060405162001caf38038062001caf8339818101604052810190620000379190620000f5565b836000806101000a81548173ffffffffffffffffffffffffffffffffffffffff021916908373ffffffffffffffffffffffffffffffffffffffff1602179055508260018190555081600681905550806007819055506040518060400160405280600654815260200160008152506002600082015181600001556020820151816001015590505050505050620001f2565b600081519050620000d881620001be565b92915050565b600081519050620000ef81620001d8565b92915050565b60008060008060808587031215620001125762000111620001b9565b5b60006200012287828801620000c7565b94505060206200013587828801620000de565b93505060406200014887828801620000de565b92505060606200015b87828801620000de565b91505092959194509250565b600062000174826200018f565b9050919050565b6000620001888262000167565b9050919050565b600073ffffffffffffffffffffffffffffffffffffffff82169050919050565b6000819050919050565b600080fd5b620001c9816200017b565b8114620001d557600080fd5b50565b620001e381620001af565b8114620001ef57600080fd5b50565b611aad80620002026000396000f3fe608060405234801561001057600080fd5b50600436106100cf5760003560e01c80638ae39cac1161008c578063db2e21bc11610066578063db2e21bc14610205578063dc8818881461020f578063e3161ddd1461022d578063f40f0f5214610237576100cf565b80638ae39cac1461019b578063b6b55f25146101b9578063b810fb43146101d5576100cf565b80631959a002146100d45780631aed6553146101065780632e1a7d4d1461012457806348cd4cb1146101405780635a2f3d091461015e57806386a952c41461017d575b600080fd5b6100ee60048036038101906100e9919061125d565b610267565b6040516100fd9392919061164d565b60405180910390f35b61010e610291565b60405161011b9190611609565b60405180910390f35b61013e600480360381019061013991906112b7565b610297565b005b6101486104ca565b6040516101559190611609565b60405180910390f35b6101666104d0565b604051610174929190611624565b60405180910390f35b6101856104e2565b604051610192919061150c565b60405180910390f35b6101a3610506565b6040516101b09190611609565b60405180910390f35b6101d360048036038101906101ce91906112b7565b61050c565b005b6101ef60048036038101906101ea91906112b7565b61078b565b6040516101fc9190611491565b60405180910390f35b61020d6107ca565b005b6102176108cf565b6040516102249190611609565b60405180910390f35b6102356108dc565b005b610251600480360381019061024c919061125d565b610a3a565b60405161025e9190611609565b60405180910390f35b60046020528060005260406000206000915090508060000154908060010154908060020154905083565b60075481565b600081116102da576040517f08c379a00000000000000000000000000000000000000000000000000000000081526004016102d1906115c9565b60405180910390fd5b6000600460003373ffffffffffffffffffffffffffffffffffffffff1673ffffffffffffffffffffffffffffffffffffffff16815260200190815260200160002090508181600001541015610364576040517f08c379a000000000000000000000000000000000000000000000000000000000815260040161035b90611589565b60405180910390fd5b61036c6108dc565b6103b7338360008054906101000a900473ffffffffffffffffffffffffffffffffffffffff1673ffffffffffffffffffffffffffffffffffffffff16610c259092919063ffffffff16565b610416816002015461040883600101546103fa64e8d4a510006103ec6002600101548860000154610cab90919063ffffffff16565b610d2690919063ffffffff16565b610d7090919063ffffffff16565b610dba90919063ffffffff16565b8160020181905550610435828260000154610d7090919063ffffffff16565b816000018190555061047064e8d4a510006104626002600101548460000154610cab90919063ffffffff16565b610d2690919063ffffffff16565b81600101819055503373ffffffffffffffffffffffffffffffffffffffff167f884edad9ce6fa2440d8a54cc123490eb96d2768479d49ff9c7366125a9424364836040516104be9190611609565b60405180910390a25050565b60065481565b60028060000154908060010154905082565b60008054906101000a900473ffffffffffffffffffffffffffffffffffffffff1681565b60015481565b6000811161054f576040517f08c379a0000000000000000000000000000000000000000000000000000000008152600401610546906115c9565b60405180910390fd5b6000600460003373ffffffffffffffffffffffffffffffffffffffff1673ffffffffffffffffffffffffffffffffffffffff168152602001908152602001600020905061059a6108dc565b6105e733308460008054906101000a900473ffffffffffffffffffffffffffffffffffffffff1673ffffffffffffffffffffffffffffffffffffffff16610e18909392919063ffffffff16565b600081600001541480156105ff575060008160020154145b801561060f575060008160010154145b15610678576005339080600181540180825580915050600190039060005260206000200160009091909190916101000a81548173ffffffffffffffffffffffffffffffffffffffff021916908373ffffffffffffffffffffffffffffffffffffffff1602179055505b6106d781600201546106c983600101546106bb64e8d4a510006106ad6002600101548860000154610cab90919063ffffffff16565b610d2690919063ffffffff16565b610d7090919063ffffffff16565b610dba90919063ffffffff16565b81600201819055506106f6828260000154610dba90919063ffffffff16565b816000018190555061073164e8d4a510006107236002600101548460000154610cab90919063ffffffff16565b610d2690919063ffffffff16565b81600101819055503373ffffffffffffffffffffffffffffffffffffffff167fe1fffcc4923d04b559f4d29a8bfc6cda04eb5b0d3c460751c2402c5c5cc9109c8360405161077f9190611609565b60405180910390a25050565b6005818154811061079b57600080fd5b906000526020600020016000915054906101000a900473ffffffffffffffffffffffffffffffffffffffff1681565b6000600460003373ffffffffffffffffffffffffffffffffffffffff1673ffffffffffffffffffffffffffffffffffffffff168152602001908152602001600020905061085c33826000015460008054906101000a900473ffffffffffffffffffffffffffffffffffffffff1673ffffffffffffffffffffffffffffffffffffffff16610c259092919063ffffffff16565b3373ffffffffffffffffffffffffffffffffffffffff167f5fafa99d0643513820be26656b45130b01e1c03062e1266bf36f88cbd3bd969582600001546040516108a69190611609565b60405180910390a260008160000181905550600081600101819055506000816002018190555050565b6000600580549050905090565b60026000015443116108ed57610a38565b60008060009054906101000a900473ffffffffffffffffffffffffffffffffffffffff1673ffffffffffffffffffffffffffffffffffffffff166370a08231306040518263ffffffff1660e01b81526004016109499190611491565b60206040518083038186803b15801561096157600080fd5b505afa158015610975573d6000803e3d6000fd5b505050506040513d601f19601f8201168201806040525081019061099991906112e4565b905060008114156109b4574360026000018190555050610a38565b60006109c560026000015443610ea1565b905060006109de60015483610cab90919063ffffffff16565b9050610a21610a0d846109ff64e8d4a5100085610cab90919063ffffffff16565b610d2690919063ffffffff16565b600260010154610dba90919063ffffffff16565b600260010181905550436002600001819055505050505b565b600080600290506000600460008573ffffffffffffffffffffffffffffffffffffffff1673ffffffffffffffffffffffffffffffffffffffff168152602001908152602001600020905060008260010154905060008060009054906101000a900473ffffffffffffffffffffffffffffffffffffffff1673ffffffffffffffffffffffffffffffffffffffff166370a08231306040518263ffffffff1660e01b8152600401610ae99190611491565b60206040518083038186803b158015610b0157600080fd5b505afa158015610b15573d6000803e3d6000fd5b505050506040513d601f19601f82011682018060405250810190610b3991906112e4565b9050836000015443118015610b4f575060008114155b15610bc0576000610b64856000015443610ea1565b90506000610b7d60015483610cab90919063ffffffff16565b9050610bbb610bac84610b9e64e8d4a5100085610cab90919063ffffffff16565b610d2690919063ffffffff16565b85610dba90919063ffffffff16565b935050505b610c1a8360020154610c0c8560010154610bfe64e8d4a51000610bf0888a60000154610cab90919063ffffffff16565b610d2690919063ffffffff16565b610d7090919063ffffffff16565b610dba90919063ffffffff16565b945050505050919050565b610ca68363a9059cbb60e01b8484604051602401610c449291906114e3565b604051602081830303815290604052907bffffffffffffffffffffffffffffffffffffffffffffffffffffffff19166020820180517bffffffffffffffffffffffffffffffffffffffffffffffffffffffff8381831617835250505050610ef6565b505050565b600080831415610cbe5760009050610d20565b60008284610ccc919061173d565b9050828482610cdb919061170c565b14610d1b576040517f08c379a0000000000000000000000000000000000000000000000000000000008152600401610d12906115a9565b60405180910390fd5b809150505b92915050565b6000610d6883836040518060400160405280601a81526020017f536166654d6174683a206469766973696f6e206279207a65726f000000000000815250610fbd565b905092915050565b6000610db283836040518060400160405280601e81526020017f536166654d6174683a207375627472616374696f6e206f766572666c6f770000815250611020565b905092915050565b6000808284610dc991906116b6565b905083811015610e0e576040517f08c379a0000000000000000000000000000000000000000000000000000000008152600401610e0590611569565b60405180910390fd5b8091505092915050565b610e9b846323b872dd60e01b858585604051602401610e39939291906114ac565b604051602081830303815290604052907bffffffffffffffffffffffffffffffffffffffffffffffffffffffff19166020820180517bffffffffffffffffffffffffffffffffffffffffffffffffffffffff8381831617835250505050610ef6565b50505050565b60006007548211610ec657610ebf8383610d7090919063ffffffff16565b9050610ef0565b6007548310610ed85760009050610ef0565b610eed83600754610d7090919063ffffffff16565b90505b92915050565b6000610f58826040518060400160405280602081526020017f5361666542455032303a206c6f772d6c6576656c2063616c6c206661696c65648152508573ffffffffffffffffffffffffffffffffffffffff166110849092919063ffffffff16565b9050600081511115610fb85780806020019051810190610f78919061128a565b610fb7576040517f08c379a0000000000000000000000000000000000000000000000000000000008152600401610fae90611549565b60405180910390fd5b5b505050565b60008083118290611004576040517f08c379a0000000000000000000000000000000000000000000000000000000008152600401610ffb9190611527565b60405180910390fd5b5060008385611013919061170c565b9050809150509392505050565b6000838311158290611068576040517f08c379a000000000000000000000000000000000000000000000000000000000815260040161105f9190611527565b60405180910390fd5b50600083856110779190611797565b9050809150509392505050565b6060611093848460008561109c565b90509392505050565b60606110a7856111be565b6110e6576040517f08c379a00000000000000000000000000000000000000000000000000000000081526004016110dd906115e9565b60405180910390fd5b6000808673ffffffffffffffffffffffffffffffffffffffff16858760405161110f919061147a565b60006040518083038185875af1925050503d806000811461114c576040519150601f19603f3d011682016040523d82523d6000602084013e611151565b606091505b509150915081156111665780925050506111b6565b6000815111156111795780518082602001fd5b836040517f08c379a00000000000000000000000000000000000000000000000000000000081526004016111ad9190611527565b60405180910390fd5b949350505050565b60008060007fc5d2460186f7233c927e7db2dcc703c0e500b653ca82273b7bfad8045d85a47060001b9050833f915080821415801561120057506000801b8214155b92505050919050565b60008135905061121881611a32565b92915050565b60008151905061122d81611a49565b92915050565b60008135905061124281611a60565b92915050565b60008151905061125781611a60565b92915050565b600060208284031215611273576112726118da565b5b600061128184828501611209565b91505092915050565b6000602082840312156112a05761129f6118da565b5b60006112ae8482850161121e565b91505092915050565b6000602082840312156112cd576112cc6118da565b5b60006112db84828501611233565b91505092915050565b6000602082840312156112fa576112f96118da565b5b600061130884828501611248565b91505092915050565b61131a816117cb565b82525050565b600061132b82611684565b611335818561169a565b9350611345818560208601611849565b80840191505092915050565b61135a81611813565b82525050565b600061136b8261168f565b61137581856116a5565b9350611385818560208601611849565b61138e816118df565b840191505092915050565b60006113a6602a836116a5565b91506113b1826118f0565b604082019050919050565b60006113c9601b836116a5565b91506113d48261193f565b602082019050919050565b60006113ec6014836116a5565b91506113f782611968565b602082019050919050565b600061140f6021836116a5565b915061141a82611991565b604082019050919050565b60006114326008836116a5565b915061143d826119e0565b602082019050919050565b6000611455601d836116a5565b915061146082611a09565b602082019050919050565b61147481611809565b82525050565b60006114868284611320565b915081905092915050565b60006020820190506114a66000830184611311565b92915050565b60006060820190506114c16000830186611311565b6114ce6020830185611311565b6114db604083018461146b565b949350505050565b60006040820190506114f86000830185611311565b611505602083018461146b565b9392505050565b60006020820190506115216000830184611351565b92915050565b600060208201905081810360008301526115418184611360565b905092915050565b6000602082019050818103600083015261156281611399565b9050919050565b60006020820190508181036000830152611582816113bc565b9050919050565b600060208201905081810360008301526115a2816113df565b9050919050565b600060208201905081810360008301526115c281611402565b9050919050565b600060208201905081810360008301526115e281611425565b9050919050565b6000602082019050818103600083015261160281611448565b9050919050565b600060208201905061161e600083018461146b565b92915050565b6000604082019050611639600083018561146b565b611646602083018461146b565b9392505050565b6000606082019050611662600083018661146b565b61166f602083018561146b565b61167c604083018461146b565b949350505050565b600081519050919050565b600081519050919050565b600081905092915050565b600082825260208201905092915050565b60006116c182611809565b91506116cc83611809565b9250827fffffffffffffffffffffffffffffffffffffffffffffffffffffffffffffffff038211156117015761170061187c565b5b828201905092915050565b600061171782611809565b915061172283611809565b925082611732576117316118ab565b5b828204905092915050565b600061174882611809565b915061175383611809565b9250817fffffffffffffffffffffffffffffffffffffffffffffffffffffffffffffffff048311821515161561178c5761178b61187c565b5b828202905092915050565b60006117a282611809565b91506117ad83611809565b9250828210156117c0576117bf61187c565b5b828203905092915050565b60006117d6826117e9565b9050919050565b60008115159050919050565b600073ffffffffffffffffffffffffffffffffffffffff82169050919050565b6000819050919050565b600061181e82611825565b9050919050565b600061183082611837565b9050919050565b6000611842826117e9565b9050919050565b60005b8381101561186757808201518184015260208101905061184c565b83811115611876576000848401525b50505050565b7f4e487b7100000000000000000000000000000000000000000000000000000000600052601160045260246000fd5b7f4e487b7100000000000000000000000000000000000000000000000000000000600052601260045260246000fd5b600080fd5b6000601f19601f8301169050919050565b7f5361666542455032303a204245503230206f7065726174696f6e20646964206e60008201527f6f74207375636365656400000000000000000000000000000000000000000000602082015250565b7f536166654d6174683a206164646974696f6e206f766572666c6f770000000000600082015250565b7f77697468647261773a206e6f7420656e6f756768000000000000000000000000600082015250565b7f536166654d6174683a206d756c7469706c69636174696f6e206f766572666c6f60008201527f7700000000000000000000000000000000000000000000000000000000000000602082015250565b7f616d6f756e742030000000000000000000000000000000000000000000000000600082015250565b7f416464726573733a2063616c6c20746f206e6f6e2d636f6e7472616374000000600082015250565b611a3b816117cb565b8114611a4657600080fd5b50565b611a52816117dd565b8114611a5d57600080fd5b50565b611a6981611809565b8114611a7457600080fd5b5056fea2646970667358221220d3535dfb8232be1bf0c973799d4a88950f64025e26ed8350c0869e056775952e64736f6c63430008070033",
  "immutableReferences": {},
  "source": "// SPDX-License-Identifier: MIT\n\npragma solidity ^0.8.0;\n\nimport './oreoswap-lib/SafeMath.sol';\nimport './oreoswap-lib/IBEP20.sol';\nimport './oreoswap-lib/SafeBEP20.sol';\n\n// SousChef is the chef of new tokens. He can make yummy food and he is a fair guy as well as MasterChef.\ncontract SousChef {\n    using SafeMath for uint256;\n    using SafeBEP20 for IBEP20;\n\n    // Info of each user.\n    struct UserInfo {\n        uint256 amount;   // How many SYRUP tokens the user has provided.\n        uint256 rewardDebt;  // Reward debt. See explanation below.\n        uint256 rewardPending;\n        //\n        // We do some fancy math here. Basically, any point in time, the amount of SYRUPs\n        // entitled to a user but is pending to be distributed is:\n        //\n        //   pending reward = (user.amount * pool.accRewardPerShare) - user.rewardDebt + user.rewardPending\n        //\n        // Whenever a user deposits or withdraws SYRUP tokens to a pool. Here's what happens:\n        //   1. The pool's `accRewardPerShare` (and `lastRewardBlock`) gets updated.\n        //   2. User receives the pending reward sent to his/her address.\n        //   3. User's `amount` gets updated.\n        //   3. User's `amount` gets updated.\n        //   4. User's `rewardDebt` gets updated.\n    }\n\n    // Info of Pool\n    struct PoolInfo {\n        uint256 lastRewardBlock;  // Last block number that Rewards distribution occurs.\n        uint256 accRewardPerShare; // Accumulated reward per share, times 1e12. See below.\n    }\n\n    // The SYRUP TOKEN!\n    IBEP20 public syrup;\n    // rewards created per block.\n    uint256 public rewardPerBlock;\n\n    // Info.\n    PoolInfo public poolInfo;\n    // Info of each user that stakes Syrup tokens.\n    mapping (address => UserInfo) public userInfo;\n\n    // addresses list\n    address[] public addressList;\n\n    // The block number when mining starts.\n    uint256 public startBlock;\n    // The block number when mining ends.\n    uint256 public bonusEndBlock;\n\n    event Deposit(address indexed user, uint256 amount);\n    event Withdraw(address indexed user, uint256 amount);\n    event EmergencyWithdraw(address indexed user, uint256 amount);\n\n    constructor(\n        IBEP20 _syrup,\n        uint256 _rewardPerBlock,\n        uint256 _startBlock,\n        uint256 _endBlock) {\n            syrup = _syrup;\n            rewardPerBlock = _rewardPerBlock;\n            startBlock = _startBlock;\n            bonusEndBlock = _endBlock;\n\n            // staking pool\n            poolInfo = PoolInfo({\n                lastRewardBlock: startBlock,\n                accRewardPerShare: 0\n            });\n    }\n\n    function addressLength() external view returns (uint256) {\n        return addressList.length;\n    }\n\n    // Return reward multiplier over the given _from to _to block.\n    function getMultiplier(uint256 _from, uint256 _to) internal view returns (uint256) {\n        if (_to <= bonusEndBlock) {\n            return _to.sub(_from);\n        } else if (_from >= bonusEndBlock) {\n            return 0;\n        } else {\n            return bonusEndBlock.sub(_from);\n        }\n    }\n\n    // View function to see pending Tokens on frontend.\n    function pendingReward(address _user) external view returns (uint256) {\n        PoolInfo storage pool = poolInfo;\n        UserInfo storage user = userInfo[_user];\n        uint256 accRewardPerShare = pool.accRewardPerShare;\n        uint256 stakedSupply = syrup.balanceOf(address(this));\n        if (block.number > pool.lastRewardBlock && stakedSupply != 0) {\n            uint256 multiplier = getMultiplier(pool.lastRewardBlock, block.number);\n            uint256 tokenReward = multiplier.mul(rewardPerBlock);\n            accRewardPerShare = accRewardPerShare.add(tokenReward.mul(1e12).div(stakedSupply));\n        }\n        return user.amount.mul(accRewardPerShare).div(1e12).sub(user.rewardDebt).add(user.rewardPending);\n    }\n\n    // Update reward variables of the given pool to be up-to-date.\n    function updatePool() public {\n        if (block.number <= poolInfo.lastRewardBlock) {\n            return;\n        }\n        uint256 syrupSupply = syrup.balanceOf(address(this));\n        if (syrupSupply == 0) {\n            poolInfo.lastRewardBlock = block.number;\n            return;\n        }\n        uint256 multiplier = getMultiplier(poolInfo.lastRewardBlock, block.number);\n        uint256 tokenReward = multiplier.mul(rewardPerBlock);\n\n        poolInfo.accRewardPerShare = poolInfo.accRewardPerShare.add(tokenReward.mul(1e12).div(syrupSupply));\n        poolInfo.lastRewardBlock = block.number;\n    }\n\n\n    // Deposit Syrup tokens to SousChef for Reward allocation.\n    function deposit(uint256 _amount) public {\n        require (_amount > 0, 'amount 0');\n        UserInfo storage user = userInfo[msg.sender];\n        updatePool();\n        syrup.safeTransferFrom(address(msg.sender), address(this), _amount);\n        // The deposit behavior before farming will result in duplicate addresses, and thus we will manually remove them when airdropping.\n        if (user.amount == 0 && user.rewardPending == 0 && user.rewardDebt == 0) {\n            addressList.push(address(msg.sender));\n        }\n        user.rewardPending = user.amount.mul(poolInfo.accRewardPerShare).div(1e12).sub(user.rewardDebt).add(user.rewardPending);\n        user.amount = user.amount.add(_amount);\n        user.rewardDebt = user.amount.mul(poolInfo.accRewardPerShare).div(1e12);\n\n        emit Deposit(msg.sender, _amount);\n    }\n\n    // Withdraw Syrup tokens from SousChef.\n    function withdraw(uint256 _amount) public {\n        require (_amount > 0, 'amount 0');\n        UserInfo storage user = userInfo[msg.sender];\n        require(user.amount >= _amount, \"withdraw: not enough\");\n\n        updatePool();\n        syrup.safeTransfer(address(msg.sender), _amount);\n\n        user.rewardPending = user.amount.mul(poolInfo.accRewardPerShare).div(1e12).sub(user.rewardDebt).add(user.rewardPending);\n        user.amount = user.amount.sub(_amount);\n        user.rewardDebt = user.amount.mul(poolInfo.accRewardPerShare).div(1e12);\n\n        emit Withdraw(msg.sender, _amount);\n    }\n\n    // Withdraw without caring about rewards. EMERGENCY ONLY.\n    function emergencyWithdraw() public {\n        UserInfo storage user = userInfo[msg.sender];\n        syrup.safeTransfer(address(msg.sender), user.amount);\n        emit EmergencyWithdraw(msg.sender, user.amount);\n        user.amount = 0;\n        user.rewardDebt = 0;\n        user.rewardPending = 0;\n    }\n\n}\n",
  "sourcePath": "/Users/calistus/Google Drive/oreo-swap/oreoswapv1-farm-core/contracts/SousChef.sol",
  "compiler": {
    "name": "solc",
    "version": "0.8.7+commit.e28d00a7.Emscripten.clang"
  },
  "schemaVersion": "3.4.0",
  "updatedAt": "2021-09-18T14:47:34.592Z",
  "devdoc": {
    "kind": "dev",
    "methods": {},
    "version": 1
  },
  "userdoc": {
    "kind": "user",
    "methods": {},
    "version": 1
  }
}